{
  "contractName": "Bearcoin",
  "abi": [
    {
      "inputs": [],
      "stateMutability": "nonpayable",
      "type": "constructor"
    },
    {
      "anonymous": false,
      "inputs": [
        {
          "indexed": true,
          "internalType": "address",
          "name": "owner",
          "type": "address"
        },
        {
          "indexed": true,
          "internalType": "address",
          "name": "spender",
          "type": "address"
        },
        {
          "indexed": false,
          "internalType": "uint256",
          "name": "value",
          "type": "uint256"
        }
      ],
      "name": "Approval",
      "type": "event"
    },
    {
      "anonymous": false,
      "inputs": [
        {
          "indexed": false,
          "internalType": "uint256",
          "name": "amount",
          "type": "uint256"
        }
      ],
      "name": "BurnedDeflation",
      "type": "event"
    },
    {
      "anonymous": false,
      "inputs": [
        {
          "indexed": false,
          "internalType": "uint256",
          "name": "unixtime",
          "type": "uint256"
        },
        {
          "indexed": false,
          "internalType": "int256",
          "name": "price",
          "type": "int256"
        }
      ],
      "name": "FetchedBitcoinPrice",
      "type": "event"
    },
    {
      "anonymous": false,
      "inputs": [
        {
          "indexed": false,
          "internalType": "uint256",
          "name": "unixtime",
          "type": "uint256"
        },
        {
          "indexed": false,
          "internalType": "uint8",
          "name": "diffPercent",
          "type": "uint8"
        }
      ],
      "name": "InflationRateUpdateFailure",
      "type": "event"
    },
    {
      "anonymous": false,
      "inputs": [
        {
          "indexed": false,
          "internalType": "uint256",
          "name": "unixtime",
          "type": "uint256"
        },
        {
          "indexed": false,
          "internalType": "uint32",
          "name": "inflationCoef",
          "type": "uint32"
        }
      ],
      "name": "InflationRateUpdateSuccess",
      "type": "event"
    },
    {
      "anonymous": false,
      "inputs": [],
      "name": "InsufficientLINK",
      "type": "event"
    },
    {
      "anonymous": false,
      "inputs": [
        {
          "indexed": true,
          "internalType": "address",
          "name": "previousOwner",
          "type": "address"
        },
        {
          "indexed": true,
          "internalType": "address",
          "name": "newOwner",
          "type": "address"
        }
      ],
      "name": "OwnershipTransferred",
      "type": "event"
    },
    {
      "anonymous": false,
      "inputs": [
        {
          "indexed": false,
          "internalType": "uint256",
          "name": "unixtime",
          "type": "uint256"
        },
        {
          "indexed": false,
          "internalType": "uint256",
          "name": "seed",
          "type": "uint256"
        }
      ],
      "name": "RandomSeedUpdateSuccess",
      "type": "event"
    },
    {
      "anonymous": false,
      "inputs": [
        {
          "indexed": false,
          "internalType": "address",
          "name": "recipient",
          "type": "address"
        },
        {
          "indexed": false,
          "internalType": "uint256",
          "name": "amount",
          "type": "uint256"
        }
      ],
      "name": "ReceivedInflation",
      "type": "event"
    },
    {
      "anonymous": false,
      "inputs": [
        {
          "indexed": true,
          "internalType": "address",
          "name": "from",
          "type": "address"
        },
        {
          "indexed": true,
          "internalType": "address",
          "name": "to",
          "type": "address"
        },
        {
          "indexed": false,
          "internalType": "uint256",
          "name": "value",
          "type": "uint256"
        }
      ],
      "name": "Transfer",
      "type": "event"
    },
    {
      "inputs": [
        {
          "internalType": "address",
          "name": "owner",
          "type": "address"
        },
        {
          "internalType": "address",
          "name": "spender",
          "type": "address"
        }
      ],
      "name": "allowance",
      "outputs": [
        {
          "internalType": "uint256",
          "name": "",
          "type": "uint256"
        }
      ],
      "stateMutability": "view",
      "type": "function"
    },
    {
      "inputs": [
        {
          "internalType": "address",
          "name": "spender",
          "type": "address"
        },
        {
          "internalType": "uint256",
          "name": "amount",
          "type": "uint256"
        }
      ],
      "name": "approve",
      "outputs": [
        {
          "internalType": "bool",
          "name": "",
          "type": "bool"
        }
      ],
      "stateMutability": "nonpayable",
      "type": "function"
    },
    {
      "inputs": [
        {
          "internalType": "address",
          "name": "account",
          "type": "address"
        }
      ],
      "name": "balanceOf",
      "outputs": [
        {
          "internalType": "uint256",
          "name": "",
          "type": "uint256"
        }
      ],
      "stateMutability": "view",
      "type": "function"
    },
    {
      "inputs": [
        {
          "internalType": "bytes",
          "name": "",
          "type": "bytes"
        }
      ],
      "name": "checkUpkeep",
      "outputs": [
        {
          "internalType": "bool",
          "name": "upkeepNeeded",
          "type": "bool"
        },
        {
          "internalType": "bytes",
          "name": "",
          "type": "bytes"
        }
      ],
      "stateMutability": "view",
      "type": "function"
    },
    {
      "inputs": [],
      "name": "decimals",
      "outputs": [
        {
          "internalType": "uint8",
          "name": "",
          "type": "uint8"
        }
      ],
      "stateMutability": "view",
      "type": "function"
    },
    {
      "inputs": [
        {
          "internalType": "address",
          "name": "spender",
          "type": "address"
        },
        {
          "internalType": "uint256",
          "name": "subtractedValue",
          "type": "uint256"
        }
      ],
      "name": "decreaseAllowance",
      "outputs": [
        {
          "internalType": "bool",
          "name": "",
          "type": "bool"
        }
      ],
      "stateMutability": "nonpayable",
      "type": "function"
    },
    {
      "inputs": [],
      "name": "getBitcoinPrice",
      "outputs": [
        {
          "internalType": "uint256",
          "name": "",
          "type": "uint256"
        }
      ],
      "stateMutability": "view",
      "type": "function"
    },
    {
      "inputs": [],
      "name": "getDeflationReserveBalance",
      "outputs": [
        {
          "internalType": "uint256",
          "name": "",
          "type": "uint256"
        }
      ],
      "stateMutability": "view",
      "type": "function"
    },
    {
      "inputs": [],
      "name": "getDesiredBearcoinSupply",
      "outputs": [
        {
          "internalType": "uint256",
          "name": "",
          "type": "uint256"
        }
      ],
      "stateMutability": "view",
      "type": "function"
    },
    {
      "inputs": [],
      "name": "getGenesisBearcoinSupply",
      "outputs": [
        {
          "internalType": "uint256",
          "name": "",
          "type": "uint256"
        }
      ],
      "stateMutability": "pure",
      "type": "function"
    },
    {
      "inputs": [],
      "name": "getGenesisBitcoinPrice",
      "outputs": [
        {
          "internalType": "uint256",
          "name": "",
          "type": "uint256"
        }
      ],
      "stateMutability": "pure",
      "type": "function"
    },
    {
      "inputs": [],
      "name": "getInflationCoef",
      "outputs": [
        {
          "internalType": "uint32",
          "name": "",
          "type": "uint32"
        }
      ],
      "stateMutability": "view",
      "type": "function"
    },
    {
      "inputs": [],
      "name": "getInflationDeflationPaused",
      "outputs": [
        {
          "internalType": "bool",
          "name": "",
          "type": "bool"
        }
      ],
      "stateMutability": "view",
      "type": "function"
    },
    {
      "inputs": [
        {
          "internalType": "address",
          "name": "spender",
          "type": "address"
        },
        {
          "internalType": "uint256",
          "name": "addedValue",
          "type": "uint256"
        }
      ],
      "name": "increaseAllowance",
      "outputs": [
        {
          "internalType": "bool",
          "name": "",
          "type": "bool"
        }
      ],
      "stateMutability": "nonpayable",
      "type": "function"
    },
    {
      "inputs": [
        {
          "internalType": "uint256",
          "name": "amount",
          "type": "uint256"
        }
      ],
      "name": "inflationPoolQualifiedAmount",
      "outputs": [
        {
          "internalType": "bool",
          "name": "",
          "type": "bool"
        }
      ],
      "stateMutability": "view",
      "type": "function"
    },
    {
      "inputs": [],
      "name": "name",
      "outputs": [
        {
          "internalType": "string",
          "name": "",
          "type": "string"
        }
      ],
      "stateMutability": "view",
      "type": "function"
    },
    {
      "inputs": [],
      "name": "owner",
      "outputs": [
        {
          "internalType": "address",
          "name": "",
          "type": "address"
        }
      ],
      "stateMutability": "view",
      "type": "function"
    },
    {
      "inputs": [
        {
          "internalType": "bytes",
          "name": "",
          "type": "bytes"
        }
      ],
      "name": "performUpkeep",
      "outputs": [],
      "stateMutability": "nonpayable",
      "type": "function"
    },
    {
      "inputs": [
        {
          "internalType": "bytes32",
          "name": "requestId",
          "type": "bytes32"
        },
        {
          "internalType": "uint256",
          "name": "randomness",
          "type": "uint256"
        }
      ],
      "name": "rawFulfillRandomness",
      "outputs": [],
      "stateMutability": "nonpayable",
      "type": "function"
    },
    {
      "inputs": [],
      "name": "renounceOwnership",
      "outputs": [],
      "stateMutability": "nonpayable",
      "type": "function"
    },
    {
      "inputs": [],
      "name": "symbol",
      "outputs": [
        {
          "internalType": "string",
          "name": "",
          "type": "string"
        }
      ],
      "stateMutability": "view",
      "type": "function"
    },
    {
      "inputs": [],
      "name": "totalSupply",
      "outputs": [
        {
          "internalType": "uint256",
          "name": "",
          "type": "uint256"
        }
      ],
      "stateMutability": "view",
      "type": "function"
    },
    {
      "inputs": [
        {
          "internalType": "address",
          "name": "recipient",
          "type": "address"
        },
        {
          "internalType": "uint256",
          "name": "amount",
          "type": "uint256"
        }
      ],
      "name": "transfer",
      "outputs": [
        {
          "internalType": "bool",
          "name": "",
          "type": "bool"
        }
      ],
      "stateMutability": "nonpayable",
      "type": "function"
    },
    {
      "inputs": [
        {
          "internalType": "address",
          "name": "sender",
          "type": "address"
        },
        {
          "internalType": "address",
          "name": "recipient",
          "type": "address"
        },
        {
          "internalType": "uint256",
          "name": "amount",
          "type": "uint256"
        }
      ],
      "name": "transferFrom",
      "outputs": [
        {
          "internalType": "bool",
          "name": "",
          "type": "bool"
        }
      ],
      "stateMutability": "nonpayable",
      "type": "function"
    },
    {
      "inputs": [
        {
          "internalType": "address",
          "name": "recipient",
          "type": "address"
        },
        {
          "internalType": "uint256",
          "name": "amount",
          "type": "uint256"
        }
      ],
      "name": "transferFromOwner",
      "outputs": [
        {
          "internalType": "bool",
          "name": "",
          "type": "bool"
        }
      ],
      "stateMutability": "nonpayable",
      "type": "function"
    },
    {
      "inputs": [
        {
          "internalType": "address",
          "name": "newOwner",
          "type": "address"
        }
      ],
      "name": "transferOwnership",
      "outputs": [],
      "stateMutability": "nonpayable",
      "type": "function"
    },
    {
      "inputs": [],
      "name": "updateInflationDeflationRate",
      "outputs": [
        {
          "internalType": "bool",
          "name": "",
          "type": "bool"
        }
      ],
      "stateMutability": "nonpayable",
      "type": "function"
    }
  ],
  "bytecode": "0x60c06040526001600760006101000a81548160ff0219169083151502179055506001600760016101000a81548160ff021916908315150217905550620f4240600760026101000a81548163ffffffff021916908363ffffffff1602179055506210f447600855650464cc403280600a55660775f05a074000600b5542600c5542600d553480156200008f57600080fd5b50733d2341adb2d31f1c5530cdc622016af293177ae073b0897686c545045afc77cf20ec7a532e3120e0f16040518060400160405280600c81526020017f4254432042656172636f696e00000000000000000000000000000000000000008152506040518060400160405280600781526020017f425443424541520000000000000000000000000000000000000000000000000081525081600390805190602001906200013e92919062000607565b5080600490805190602001906200015792919062000607565b5050506200017a6200016e6200027a60201b60201c565b6200028260201b60201c565b8173ffffffffffffffffffffffffffffffffffffffff1660a08173ffffffffffffffffffffffffffffffffffffffff16815250508073ffffffffffffffffffffffffffffffffffffffff1660808173ffffffffffffffffffffffffffffffffffffffff1681525050505073c907e116054ad103354f2d350fd2514433d57f6f600960006101000a81548173ffffffffffffffffffffffffffffffffffffffff021916908373ffffffffffffffffffffffffffffffffffffffff1602179055507ff86195cf7690c55907b2b611ebb7343a6f649bff128701cc542f0569e2c549da60001b6103f681905550620002746200034860201b60201c565b620009fe565b600033905090565b6000600560009054906101000a900473ffffffffffffffffffffffffffffffffffffffff16905081600560006101000a81548173ffffffffffffffffffffffffffffffffffffffff021916908373ffffffffffffffffffffffffffffffffffffffff1602179055508173ffffffffffffffffffffffffffffffffffffffff168173ffffffffffffffffffffffffffffffffffffffff167f8be0079c531659141344cd1fd0a4f28419497f9722a3daafe3b4186f6b6457e060405160405180910390a35050565b655af3107a40006103f78190555060006064601e660775f05a074000620003709190620006f0565b6200037c919062000780565b9050600081660775f05a074000620003959190620007b8565b9050620003a93083620003bf60201b60201c565b620003bb3382620003bf60201b60201c565b5050565b600073ffffffffffffffffffffffffffffffffffffffff168273ffffffffffffffffffffffffffffffffffffffff16141562000432576040517f08c379a0000000000000000000000000000000000000000000000000000000008152600401620004299062000854565b60405180910390fd5b62000446600083836200053860201b60201c565b80600260008282546200045a919062000876565b92505081905550806000808473ffffffffffffffffffffffffffffffffffffffff1673ffffffffffffffffffffffffffffffffffffffff1681526020019081526020016000206000828254620004b1919062000876565b925050819055508173ffffffffffffffffffffffffffffffffffffffff16600073ffffffffffffffffffffffffffffffffffffffff167fddf252ad1be2c89b69c2b068fc378daa952ba7f163c4a11628f55a4df523b3ef83604051620005189190620008e4565b60405180910390a36200053460008383620005fd60201b60201c565b5050565b620005508383836200060260201b620011fc1760201c565b600073ffffffffffffffffffffffffffffffffffffffff168373ffffffffffffffffffffffffffffffffffffffff1614620005f8573073ffffffffffffffffffffffffffffffffffffffff168273ffffffffffffffffffffffffffffffffffffffff161415620005f7576040517f08c379a0000000000000000000000000000000000000000000000000000000008152600401620005ee9062000977565b60405180910390fd5b5b505050565b505050565b505050565b8280546200061590620009c8565b90600052602060002090601f01602090048101928262000639576000855562000685565b82601f106200065457805160ff191683800117855562000685565b8280016001018555821562000685579182015b828111156200068457825182559160200191906001019062000667565b5b50905062000694919062000698565b5090565b5b80821115620006b357600081600090555060010162000699565b5090565b6000819050919050565b7f4e487b7100000000000000000000000000000000000000000000000000000000600052601160045260246000fd5b6000620006fd82620006b7565b91506200070a83620006b7565b9250817fffffffffffffffffffffffffffffffffffffffffffffffffffffffffffffffff0483118215151615620007465762000745620006c1565b5b828202905092915050565b7f4e487b7100000000000000000000000000000000000000000000000000000000600052601260045260246000fd5b60006200078d82620006b7565b91506200079a83620006b7565b925082620007ad57620007ac62000751565b5b828204905092915050565b6000620007c582620006b7565b9150620007d283620006b7565b925082821015620007e857620007e7620006c1565b5b828203905092915050565b600082825260208201905092915050565b7f45524332303a206d696e7420746f20746865207a65726f206164647265737300600082015250565b60006200083c601f83620007f3565b9150620008498262000804565b602082019050919050565b600060208201905081810360008301526200086f816200082d565b9050919050565b60006200088382620006b7565b91506200089083620006b7565b9250827fffffffffffffffffffffffffffffffffffffffffffffffffffffffffffffffff03821115620008c857620008c7620006c1565b5b828201905092915050565b620008de81620006b7565b82525050565b6000602082019050620008fb6000830184620008d3565b92915050565b7f7472616e73666572206e6f7420616c6c6f77656420746f2074686520636f6e7460008201527f7261637420616464726573732028796f752772652077656c636f6d6529000000602082015250565b60006200095f603d83620007f3565b91506200096c8262000901565b604082019050919050565b60006020820190508181036000830152620009928162000950565b9050919050565b7f4e487b7100000000000000000000000000000000000000000000000000000000600052602260045260246000fd5b60006002820490506001821680620009e157607f821691505b60208210811415620009f857620009f762000999565b5b50919050565b60805160a0516136ec62000a3260003960008181610da40152611867015260008181610834015261182b01526136ec6000f3fe608060405234801561001057600080fd5b50600436106101a95760003560e01c8063715018a6116100f9578063a9059cbb11610097578063cffa536511610071578063cffa5365146104eb578063dd62ed3e14610509578063e517354214610539578063f2fde38b14610557576101a9565b8063a9059cbb1461046d578063bd265afe1461049d578063ca5fc173146104bb576101a9565b80638da5cb5b116100d35780638da5cb5b146103e557806394985ddd1461040357806395d89b411461041f578063a457c2d71461043d576101a9565b8063715018a61461039f5780637ef36b94146103a95780638300df49146103c7576101a9565b8063313ce56711610166578063512d6aab11610140578063512d6aab1461030257806359fa434f146103205780636e04ff0d1461033e57806370a082311461036f576101a9565b8063313ce5671461029857806339509351146102b65780634585e33b146102e6576101a9565b806306fdde03146101ae578063095ea7b3146101cc5780630f18ac07146101fc57806318160ddd1461022c57806323b872dd1461024a578063242037781461027a575b600080fd5b6101b6610573565b6040516101c391906123c6565b60405180910390f35b6101e660048036038101906101e19190612486565b610605565b6040516101f391906124e1565b60405180910390f35b61021660048036038101906102119190612486565b610623565b60405161022391906124e1565b60405180910390f35b6102346106bd565b604051610241919061250b565b60405180910390f35b610264600480360381019061025f9190612526565b6106c7565b60405161027191906124e1565b60405180910390f35b61028261074b565b60405161028f919061250b565b60405180910390f35b6102a061075b565b6040516102ad9190612595565b60405180910390f35b6102d060048036038101906102cb9190612486565b610764565b6040516102dd91906124e1565b60405180910390f35b61030060048036038101906102fb9190612615565b610810565b005b61030a610919565b60405161031791906124e1565b60405180910390f35b610328610c5f565b604051610335919061250b565b60405180910390f35b61035860048036038101906103539190612615565b610c69565b6040516103669291906126b7565b60405180910390f35b610389600480360381019061038491906126e7565b610c87565b604051610396919061250b565b60405180910390f35b6103a7610ccf565b005b6103b1610d57565b6040516103be91906124e1565b60405180910390f35b6103cf610d6e565b6040516103dc919061250b565b60405180910390f35b6103ed610d78565b6040516103fa9190612723565b60405180910390f35b61041d60048036038101906104189190612774565b610da2565b005b610427610e3e565b60405161043491906123c6565b60405180910390f35b61045760048036038101906104529190612486565b610ed0565b60405161046491906124e1565b60405180910390f35b61048760048036038101906104829190612486565b610fbb565b60405161049491906124e1565b60405180910390f35b6104a5611006565b6040516104b2919061250b565b60405180910390f35b6104d560048036038101906104d091906127b4565b611015565b6040516104e291906124e1565b60405180910390f35b6104f3611037565b6040516105009190612800565b60405180910390f35b610523600480360381019061051e919061281b565b61106f565b604051610530919061250b565b60405180910390f35b6105416110f6565b60405161054e919061250b565b60405180910390f35b610571600480360381019061056c91906126e7565b611104565b005b6060600380546105829061288a565b80601f01602080910402602001604051908101604052809291908181526020018280546105ae9061288a565b80156105fb5780601f106105d0576101008083540402835291602001916105fb565b820191906000526020600020905b8154815290600101906020018083116105de57829003601f168201915b5050505050905090565b6000610619610612611201565b8484611209565b6001905092915050565b600061062d611201565b73ffffffffffffffffffffffffffffffffffffffff1661064b610d78565b73ffffffffffffffffffffffffffffffffffffffff16146106a1576040517f08c379a000000000000000000000000000000000000000000000000000000000815260040161069890612908565b60405180910390fd5b6106b36106ac610d78565b84846113d4565b6001905092915050565b6000600254905090565b6000806106db856106d6611201565b61106f565b905082811015610720576040517f08c379a00000000000000000000000000000000000000000000000000000000081526004016107179061299a565b60405180910390fd5b6107348561072c611201565b858403611209565b61073f858585611655565b60019150509392505050565b600061075630610c87565b905090565b60006008905090565b6000610806610771611201565b84846001600061077f611201565b73ffffffffffffffffffffffffffffffffffffffff1673ffffffffffffffffffffffffffffffffffffffff16815260200190815260200160002060008873ffffffffffffffffffffffffffffffffffffffff1673ffffffffffffffffffffffffffffffffffffffff1681526020019081526020016000205461080191906129e9565b611209565b6001905092915050565b610818610919565b50603b600d5461082891906129e9565b4210610915576103f7547f000000000000000000000000000000000000000000000000000000000000000073ffffffffffffffffffffffffffffffffffffffff166370a08231306040518263ffffffff1660e01b815260040161088b9190612723565b602060405180830381865afa1580156108a8573d6000803e3d6000fd5b505050506040513d601f19601f820116820180604052508101906108cc9190612a54565b106108e7576108e16103f6546103f754611827565b50610914565b7f01dfa6bc0693a95833988d39a4008583372f6f9b7ed55bfb11dad26b24a111d560405160405180910390a15b5b5050565b6000600760019054906101000a900460ff161561098257603b600c5461093f91906129e9565b421015610981576040517f08c379a000000000000000000000000000000000000000000000000000000000815260040161097890612af3565b60405180910390fd5b5b6000600a549050600061099361197a565b90506000808213156109a3578190505b6000838211156109c05783826109b99190612b13565b90506109cf565b81846109cc9190612b13565b90505b6000811115610b035760008085116109e8576064610a01565b846064836109f69190612b47565b610a009190612bd0565b5b905060148160ff161115610abd57600760009054906101000a900460ff16610a3f576001600760006101000a81548160ff0219169083151502179055505b62093a8042610a4e9190612b13565b600c541015610a7e5782600a819055506000600760006101000a81548160ff021916908315150217905550610ab8565b7ff23ac4a0e110fc4018f62a083e36fb8a47f6ba24178911f5931642b7359781ed4282604051610aaf929190612c01565b60405180910390a15b610afd565b82600a8190555042600c81905550600760009054906101000a900460ff1615610afc576000600760006101000a81548160ff0219169083151502179055505b5b50610b35565b600760009054906101000a900460ff1615610b34576000600760006101000a81548160ff0219169083151502179055505b5b600760009054906101000a900460ff1615610b57576000945050505050610c5c565b620f4240660775f05a074000650464cc403280620f4240600a54610b7b9190612b47565b610b859190612bd0565b610b8f9190612b47565b610b999190612bd0565b600b81905550610bf3610bea620f424080610bb26106bd565b620f4240600b54610bc39190612b47565b610bcd9190612bd0565b610bd79190612b47565b610be19190612bd0565b62100590611a62565b620e7ef0611a7b565b600760026101000a81548163ffffffff021916908363ffffffff1602179055507f2d83fb24850aa24d66bfe12f72799d2e3c096a0cef4a81972d82c2a07bd861a042610c3d611037565b604051610c4b929190612c2a565b60405180910390a160019450505050505b90565b6000600b54905090565b60006060603c600c54610c7c91906129e9565b421191509250929050565b60008060008373ffffffffffffffffffffffffffffffffffffffff1673ffffffffffffffffffffffffffffffffffffffff168152602001908152602001600020549050919050565b610cd7611201565b73ffffffffffffffffffffffffffffffffffffffff16610cf5610d78565b73ffffffffffffffffffffffffffffffffffffffff1614610d4b576040517f08c379a0000000000000000000000000000000000000000000000000000000008152600401610d4290612908565b60405180910390fd5b610d556000611a95565b565b6000600760009054906101000a900460ff16905090565b6000600a54905090565b6000600560009054906101000a900473ffffffffffffffffffffffffffffffffffffffff16905090565b7f000000000000000000000000000000000000000000000000000000000000000073ffffffffffffffffffffffffffffffffffffffff163373ffffffffffffffffffffffffffffffffffffffff1614610e30576040517f08c379a0000000000000000000000000000000000000000000000000000000008152600401610e2790612c9f565b60405180910390fd5b610e3a8282611b5b565b5050565b606060048054610e4d9061288a565b80601f0160208091040260200160405190810160405280929190818152602001828054610e799061288a565b8015610ec65780601f10610e9b57610100808354040283529160200191610ec6565b820191906000526020600020905b815481529060010190602001808311610ea957829003601f168201915b5050505050905090565b60008060016000610edf611201565b73ffffffffffffffffffffffffffffffffffffffff1673ffffffffffffffffffffffffffffffffffffffff16815260200190815260200160002060008573ffffffffffffffffffffffffffffffffffffffff1673ffffffffffffffffffffffffffffffffffffffff16815260200190815260200160002054905082811015610f9c576040517f08c379a0000000000000000000000000000000000000000000000000000000008152600401610f9390612d31565b60405180910390fd5b610fb0610fa7611201565b85858403611209565b600191505092915050565b6000600760009054906101000a900460ff1615610fe957610fe4610fdd611201565b84846113d4565b610ffc565b610ffb610ff4611201565b8484611655565b5b6001905092915050565b6000660775f05a074000905090565b60006305f5e1006110246106bd565b61102e9190612bd0565b82119050919050565b6000600760009054906101000a900460ff1661106557600760029054906101000a900463ffffffff1661106a565b620f42405b905090565b6000600160008473ffffffffffffffffffffffffffffffffffffffff1673ffffffffffffffffffffffffffffffffffffffff16815260200190815260200160002060008373ffffffffffffffffffffffffffffffffffffffff1673ffffffffffffffffffffffffffffffffffffffff16815260200190815260200160002054905092915050565b6000650464cc403280905090565b61110c611201565b73ffffffffffffffffffffffffffffffffffffffff1661112a610d78565b73ffffffffffffffffffffffffffffffffffffffff1614611180576040517f08c379a000000000000000000000000000000000000000000000000000000000815260040161117790612908565b60405180910390fd5b600073ffffffffffffffffffffffffffffffffffffffff168173ffffffffffffffffffffffffffffffffffffffff1614156111f0576040517f08c379a00000000000000000000000000000000000000000000000000000000081526004016111e790612dc3565b60405180910390fd5b6111f981611a95565b50565b505050565b600033905090565b600073ffffffffffffffffffffffffffffffffffffffff168373ffffffffffffffffffffffffffffffffffffffff161415611279576040517f08c379a000000000000000000000000000000000000000000000000000000000815260040161127090612e55565b60405180910390fd5b600073ffffffffffffffffffffffffffffffffffffffff168273ffffffffffffffffffffffffffffffffffffffff1614156112e9576040517f08c379a00000000000000000000000000000000000000000000000000000000081526004016112e090612ee7565b60405180910390fd5b80600160008573ffffffffffffffffffffffffffffffffffffffff1673ffffffffffffffffffffffffffffffffffffffff16815260200190815260200160002060008473ffffffffffffffffffffffffffffffffffffffff1673ffffffffffffffffffffffffffffffffffffffff168152602001908152602001600020819055508173ffffffffffffffffffffffffffffffffffffffff168373ffffffffffffffffffffffffffffffffffffffff167f8c5be1e5ebec7d5bd14f71427d1e84f3dd0314c0f7b2291e5b200ac8c7c3b925836040516113c7919061250b565b60405180910390a3505050565b600073ffffffffffffffffffffffffffffffffffffffff168373ffffffffffffffffffffffffffffffffffffffff161415611444576040517f08c379a000000000000000000000000000000000000000000000000000000000815260040161143b90612f79565b60405180910390fd5b600073ffffffffffffffffffffffffffffffffffffffff168273ffffffffffffffffffffffffffffffffffffffff1614156114b4576040517f08c379a00000000000000000000000000000000000000000000000000000000081526004016114ab9061300b565b60405180910390fd5b6114bf838383611ba8565b60008060008573ffffffffffffffffffffffffffffffffffffffff1673ffffffffffffffffffffffffffffffffffffffff16815260200190815260200160002054905081811015611545576040517f08c379a000000000000000000000000000000000000000000000000000000000815260040161153c9061309d565b60405180910390fd5b8181036000808673ffffffffffffffffffffffffffffffffffffffff1673ffffffffffffffffffffffffffffffffffffffff16815260200190815260200160002081905550816000808573ffffffffffffffffffffffffffffffffffffffff1673ffffffffffffffffffffffffffffffffffffffff16815260200190815260200160002060008282546115d891906129e9565b925050819055508273ffffffffffffffffffffffffffffffffffffffff168473ffffffffffffffffffffffffffffffffffffffff167fddf252ad1be2c89b69c2b068fc378daa952ba7f163c4a11628f55a4df523b3ef8460405161163c919061250b565b60405180910390a361164f848484611c5c565b50505050565b600760009054906101000a900460ff1661181757600061167482611c61565b905061167f82611015565b156117055782600e6103e86116a98673ffffffffffffffffffffffffffffffffffffffff16611d69565b6116b391906130bd565b6103e881106116c5576116c46130ee565b5b0160006101000a81548173ffffffffffffffffffffffffffffffffffffffff021916908373ffffffffffffffffffffffffffffffffffffffff1602179055505b61170d610d78565b73ffffffffffffffffffffffffffffffffffffffff16600e6101f46103e8811061173a576117396130ee565b5b0160009054906101000a900473ffffffffffffffffffffffffffffffffffffffff1673ffffffffffffffffffffffffffffffffffffffff16146117d65761177f610d78565b600e6101f46103e88110611796576117956130ee565b5b0160006101000a81548173ffffffffffffffffffffffffffffffffffffffff021916908373ffffffffffffffffffffffffffffffffffffffff1602179055505b818111156117f7576117f282826117ed9190612b13565b611da4565b611815565b8082111561181457611813818361180e9190612b13565b611f2d565b5b5b505b6118228383836113d4565b505050565b60007f000000000000000000000000000000000000000000000000000000000000000073ffffffffffffffffffffffffffffffffffffffff16634000aea07f00000000000000000000000000000000000000000000000000000000000000008486600060405160200161189b92919061312c565b6040516020818303038152906040526040518463ffffffff1660e01b81526004016118c893929190613155565b6020604051808303816000875af11580156118e7573d6000803e3d6000fd5b505050506040513d601f19601f8201168201806040525081019061190b91906131bf565b50600061192e846000306006600089815260200190815260200160002054611f87565b90506001600660008681526020019081526020016000205461195091906129e9565b60066000868152602001908152602001600020819055506119718482611fc3565b91505092915050565b600080600080600080600960009054906101000a900473ffffffffffffffffffffffffffffffffffffffff1673ffffffffffffffffffffffffffffffffffffffff1663feaf968c6040518163ffffffff1660e01b815260040160a060405180830381865afa1580156119f0573d6000803e3d6000fd5b505050506040513d601f19601f82011682018060405250810190611a149190613264565b945094509450945094507f84346e4eb9a9c51c338a375ef4faeceb72f1c95e46924ac64856598ba0c8c6c94285604051611a4f9291906132ee565b60405180910390a1839550505050505090565b6000818310611a715781611a73565b825b905092915050565b600081831015611a8b5781611a8d565b825b905092915050565b6000600560009054906101000a900473ffffffffffffffffffffffffffffffffffffffff16905081600560006101000a81548173ffffffffffffffffffffffffffffffffffffffff021916908373ffffffffffffffffffffffffffffffffffffffff1602179055508173ffffffffffffffffffffffffffffffffffffffff168173ffffffffffffffffffffffffffffffffffffffff167f8be0079c531659141344cd1fd0a4f28419497f9722a3daafe3b4186f6b6457e060405160405180910390a35050565b8060088190555042600d819055507fd0703bbe30c41149f7daedd23cc40f5f945d3a419378a7a62069c9d0e782299242600854604051611b9c929190613317565b60405180910390a15050565b611bb38383836111fc565b600073ffffffffffffffffffffffffffffffffffffffff168373ffffffffffffffffffffffffffffffffffffffff1614611c57573073ffffffffffffffffffffffffffffffffffffffff168273ffffffffffffffffffffffffffffffffffffffff161415611c56576040517f08c379a0000000000000000000000000000000000000000000000000000000008152600401611c4d906133b2565b60405180910390fd5b5b505050565b505050565b600080620f4240611c70611037565b63ffffffff1684611c819190612b47565b611c8b9190612bd0565b90506000611c976106bd565b905083821115611cfd5780600b541115611cf857600081600b54611cbb9190612b13565b905060008584611ccb9190612b13565b905081811115611cec578186611ce191906129e9565b945050505050611d64565b83945050505050611d64565b611d5e565b81841115611d5d57600b54811115611d5c576000600b5482611d1f9190612b13565b905060008386611d2f9190612b13565b905081811115611d50578186611d459190612b13565b945050505050611d64565b83945050505050611d64565b5b5b83925050505b919050565b6000600854444284604051602001611d8494939291906133f3565b6040516020818303038152906040528051906020012060001c9050919050565b6000611dae610d78565b905060005b600a8160ff161015611ee55760006103e8611dd08360ff16611d69565b611dda91906130bd565b9050600073ffffffffffffffffffffffffffffffffffffffff16600e826103e88110611e0957611e086130ee565b5b0160009054906101000a900473ffffffffffffffffffffffffffffffffffffffff1673ffffffffffffffffffffffffffffffffffffffff1614158015611e8d57506000611e8b600e836103e88110611e6457611e636130ee565b5b0160009054906101000a900473ffffffffffffffffffffffffffffffffffffffff16610c87565b115b15611ed157600e816103e88110611ea757611ea66130ee565b5b0160009054906101000a900473ffffffffffffffffffffffffffffffffffffffff16925050611ee5565b508080611edd90613441565b915050611db3565b50611ef08183611ff6565b7f7b7ccc0db87ceb0fcbd03f8d4dd950588bfe00bb478752f85e888dc8039a3cc78183604051611f2192919061346b565b60405180910390a15050565b6000611f40611f3a61074b565b83611a62565b9050611f4c3082612156565b7fc1dd05e017162441f03d8b2afc6f7864ae5b0d94b0066bf136200a6fb772d89981604051611f7b919061250b565b60405180910390a15050565b600084848484604051602001611fa09493929190613494565b6040516020818303038152906040528051906020012060001c9050949350505050565b60008282604051602001611fd89291906134fa565b60405160208183030381529060405280519060200120905092915050565b600073ffffffffffffffffffffffffffffffffffffffff168273ffffffffffffffffffffffffffffffffffffffff161415612066576040517f08c379a000000000000000000000000000000000000000000000000000000000815260040161205d90613572565b60405180910390fd5b61207260008383611ba8565b806002600082825461208491906129e9565b92505081905550806000808473ffffffffffffffffffffffffffffffffffffffff1673ffffffffffffffffffffffffffffffffffffffff16815260200190815260200160002060008282546120d991906129e9565b925050819055508173ffffffffffffffffffffffffffffffffffffffff16600073ffffffffffffffffffffffffffffffffffffffff167fddf252ad1be2c89b69c2b068fc378daa952ba7f163c4a11628f55a4df523b3ef8360405161213e919061250b565b60405180910390a361215260008383611c5c565b5050565b600073ffffffffffffffffffffffffffffffffffffffff168273ffffffffffffffffffffffffffffffffffffffff1614156121c6576040517f08c379a00000000000000000000000000000000000000000000000000000000081526004016121bd90613604565b60405180910390fd5b6121d282600083611ba8565b60008060008473ffffffffffffffffffffffffffffffffffffffff1673ffffffffffffffffffffffffffffffffffffffff16815260200190815260200160002054905081811015612258576040517f08c379a000000000000000000000000000000000000000000000000000000000815260040161224f90613696565b60405180910390fd5b8181036000808573ffffffffffffffffffffffffffffffffffffffff1673ffffffffffffffffffffffffffffffffffffffff1681526020019081526020016000208190555081600260008282546122af9190612b13565b92505081905550600073ffffffffffffffffffffffffffffffffffffffff168373ffffffffffffffffffffffffffffffffffffffff167fddf252ad1be2c89b69c2b068fc378daa952ba7f163c4a11628f55a4df523b3ef84604051612314919061250b565b60405180910390a361232883600084611c5c565b505050565b600081519050919050565b600082825260208201905092915050565b60005b8381101561236757808201518184015260208101905061234c565b83811115612376576000848401525b50505050565b6000601f19601f8301169050919050565b60006123988261232d565b6123a28185612338565b93506123b2818560208601612349565b6123bb8161237c565b840191505092915050565b600060208201905081810360008301526123e0818461238d565b905092915050565b600080fd5b600080fd5b600073ffffffffffffffffffffffffffffffffffffffff82169050919050565b600061241d826123f2565b9050919050565b61242d81612412565b811461243857600080fd5b50565b60008135905061244a81612424565b92915050565b6000819050919050565b61246381612450565b811461246e57600080fd5b50565b6000813590506124808161245a565b92915050565b6000806040838503121561249d5761249c6123e8565b5b60006124ab8582860161243b565b92505060206124bc85828601612471565b9150509250929050565b60008115159050919050565b6124db816124c6565b82525050565b60006020820190506124f660008301846124d2565b92915050565b61250581612450565b82525050565b600060208201905061252060008301846124fc565b92915050565b60008060006060848603121561253f5761253e6123e8565b5b600061254d8682870161243b565b935050602061255e8682870161243b565b925050604061256f86828701612471565b9150509250925092565b600060ff82169050919050565b61258f81612579565b82525050565b60006020820190506125aa6000830184612586565b92915050565b600080fd5b600080fd5b600080fd5b60008083601f8401126125d5576125d46125b0565b5b8235905067ffffffffffffffff8111156125f2576125f16125b5565b5b60208301915083600182028301111561260e5761260d6125ba565b5b9250929050565b6000806020838503121561262c5761262b6123e8565b5b600083013567ffffffffffffffff81111561264a576126496123ed565b5b612656858286016125bf565b92509250509250929050565b600081519050919050565b600082825260208201905092915050565b600061268982612662565b612693818561266d565b93506126a3818560208601612349565b6126ac8161237c565b840191505092915050565b60006040820190506126cc60008301856124d2565b81810360208301526126de818461267e565b90509392505050565b6000602082840312156126fd576126fc6123e8565b5b600061270b8482850161243b565b91505092915050565b61271d81612412565b82525050565b60006020820190506127386000830184612714565b92915050565b6000819050919050565b6127518161273e565b811461275c57600080fd5b50565b60008135905061276e81612748565b92915050565b6000806040838503121561278b5761278a6123e8565b5b60006127998582860161275f565b92505060206127aa85828601612471565b9150509250929050565b6000602082840312156127ca576127c96123e8565b5b60006127d884828501612471565b91505092915050565b600063ffffffff82169050919050565b6127fa816127e1565b82525050565b600060208201905061281560008301846127f1565b92915050565b60008060408385031215612832576128316123e8565b5b60006128408582860161243b565b92505060206128518582860161243b565b9150509250929050565b7f4e487b7100000000000000000000000000000000000000000000000000000000600052602260045260246000fd5b600060028204905060018216806128a257607f821691505b602082108114156128b6576128b561285b565b5b50919050565b7f4f776e61626c653a2063616c6c6572206973206e6f7420746865206f776e6572600082015250565b60006128f2602083612338565b91506128fd826128bc565b602082019050919050565b60006020820190508181036000830152612921816128e5565b9050919050565b7f7472616e7366657220616d6f756e74206578636565647320616c6c6f77616e6360008201527f6500000000000000000000000000000000000000000000000000000000000000602082015250565b6000612984602183612338565b915061298f82612928565b604082019050919050565b600060208201905081810360008301526129b381612977565b9050919050565b7f4e487b7100000000000000000000000000000000000000000000000000000000600052601160045260246000fd5b60006129f482612450565b91506129ff83612450565b9250827fffffffffffffffffffffffffffffffffffffffffffffffffffffffffffffffff03821115612a3457612a336129ba565b5b828201905092915050565b600081519050612a4e8161245a565b92915050565b600060208284031215612a6a57612a696123e8565b5b6000612a7884828501612a3f565b91505092915050565b7f757064617465496e666c6174696f6e4465666c6174696f6e526174653a20636160008201527f6e206f6e6c792062652063616c6c6564206f6e636520706572206d696e757465602082015250565b6000612add604083612338565b9150612ae882612a81565b604082019050919050565b60006020820190508181036000830152612b0c81612ad0565b9050919050565b6000612b1e82612450565b9150612b2983612450565b925082821015612b3c57612b3b6129ba565b5b828203905092915050565b6000612b5282612450565b9150612b5d83612450565b9250817fffffffffffffffffffffffffffffffffffffffffffffffffffffffffffffffff0483118215151615612b9657612b956129ba565b5b828202905092915050565b7f4e487b7100000000000000000000000000000000000000000000000000000000600052601260045260246000fd5b6000612bdb82612450565b9150612be683612450565b925082612bf657612bf5612ba1565b5b828204905092915050565b6000604082019050612c1660008301856124fc565b612c236020830184612586565b9392505050565b6000604082019050612c3f60008301856124fc565b612c4c60208301846127f1565b9392505050565b7f4f6e6c7920565246436f6f7264696e61746f722063616e2066756c66696c6c00600082015250565b6000612c89601f83612338565b9150612c9482612c53565b602082019050919050565b60006020820190508181036000830152612cb881612c7c565b9050919050565b7f45524332303a2064656372656173656420616c6c6f77616e63652062656c6f7760008201527f207a65726f000000000000000000000000000000000000000000000000000000602082015250565b6000612d1b602583612338565b9150612d2682612cbf565b604082019050919050565b60006020820190508181036000830152612d4a81612d0e565b9050919050565b7f4f776e61626c653a206e6577206f776e657220697320746865207a65726f206160008201527f6464726573730000000000000000000000000000000000000000000000000000602082015250565b6000612dad602683612338565b9150612db882612d51565b604082019050919050565b60006020820190508181036000830152612ddc81612da0565b9050919050565b7f45524332303a20617070726f76652066726f6d20746865207a65726f2061646460008201527f7265737300000000000000000000000000000000000000000000000000000000602082015250565b6000612e3f602483612338565b9150612e4a82612de3565b604082019050919050565b60006020820190508181036000830152612e6e81612e32565b9050919050565b7f45524332303a20617070726f766520746f20746865207a65726f20616464726560008201527f7373000000000000000000000000000000000000000000000000000000000000602082015250565b6000612ed1602283612338565b9150612edc82612e75565b604082019050919050565b60006020820190508181036000830152612f0081612ec4565b9050919050565b7f45524332303a207472616e736665722066726f6d20746865207a65726f20616460008201527f6472657373000000000000000000000000000000000000000000000000000000602082015250565b6000612f63602583612338565b9150612f6e82612f07565b604082019050919050565b60006020820190508181036000830152612f9281612f56565b9050919050565b7f45524332303a207472616e7366657220746f20746865207a65726f206164647260008201527f6573730000000000000000000000000000000000000000000000000000000000602082015250565b6000612ff5602383612338565b915061300082612f99565b604082019050919050565b6000602082019050818103600083015261302481612fe8565b9050919050565b7f45524332303a207472616e7366657220616d6f756e742065786365656473206260008201527f616c616e63650000000000000000000000000000000000000000000000000000602082015250565b6000613087602683612338565b91506130928261302b565b604082019050919050565b600060208201905081810360008301526130b68161307a565b9050919050565b60006130c882612450565b91506130d383612450565b9250826130e3576130e2612ba1565b5b828206905092915050565b7f4e487b7100000000000000000000000000000000000000000000000000000000600052603260045260246000fd5b6131268161273e565b82525050565b6000604082019050613141600083018561311d565b61314e60208301846124fc565b9392505050565b600060608201905061316a6000830186612714565b61317760208301856124fc565b8181036040830152613189818461267e565b9050949350505050565b61319c816124c6565b81146131a757600080fd5b50565b6000815190506131b981613193565b92915050565b6000602082840312156131d5576131d46123e8565b5b60006131e3848285016131aa565b91505092915050565b600069ffffffffffffffffffff82169050919050565b61320b816131ec565b811461321657600080fd5b50565b60008151905061322881613202565b92915050565b6000819050919050565b6132418161322e565b811461324c57600080fd5b50565b60008151905061325e81613238565b92915050565b600080600080600060a086880312156132805761327f6123e8565b5b600061328e88828901613219565b955050602061329f8882890161324f565b94505060406132b088828901612a3f565b93505060606132c188828901612a3f565b92505060806132d288828901613219565b9150509295509295909350565b6132e88161322e565b82525050565b600060408201905061330360008301856124fc565b61331060208301846132df565b9392505050565b600060408201905061332c60008301856124fc565b61333960208301846124fc565b9392505050565b7f7472616e73666572206e6f7420616c6c6f77656420746f2074686520636f6e7460008201527f7261637420616464726573732028796f752772652077656c636f6d6529000000602082015250565b600061339c603d83612338565b91506133a782613340565b604082019050919050565b600060208201905081810360008301526133cb8161338f565b9050919050565b6000819050919050565b6133ed6133e882612450565b6133d2565b82525050565b60006133ff82876133dc565b60208201915061340f82866133dc565b60208201915061341f82856133dc565b60208201915061342f82846133dc565b60208201915081905095945050505050565b600061344c82612579565b915060ff8214156134605761345f6129ba565b5b600182019050919050565b60006040820190506134806000830185612714565b61348d60208301846124fc565b9392505050565b60006080820190506134a9600083018761311d565b6134b660208301866124fc565b6134c36040830185612714565b6134d060608301846124fc565b95945050505050565b6000819050919050565b6134f46134ef8261273e565b6134d9565b82525050565b600061350682856134e3565b60208201915061351682846133dc565b6020820191508190509392505050565b7f45524332303a206d696e7420746f20746865207a65726f206164647265737300600082015250565b600061355c601f83612338565b915061356782613526565b602082019050919050565b6000602082019050818103600083015261358b8161354f565b9050919050565b7f45524332303a206275726e2066726f6d20746865207a65726f2061646472657360008201527f7300000000000000000000000000000000000000000000000000000000000000602082015250565b60006135ee602183612338565b91506135f982613592565b604082019050919050565b6000602082019050818103600083015261361d816135e1565b9050919050565b7f45524332303a206275726e20616d6f756e7420657863656564732062616c616e60008201527f6365000000000000000000000000000000000000000000000000000000000000602082015250565b6000613680602283612338565b915061368b82613624565b604082019050919050565b600060208201905081810360008301526136af81613673565b905091905056fea2646970667358221220eda97500aa5744afdebf351a7d4e5d6f4beef7a5071d1e115bcda0ccb512082b64736f6c634300080a0033",
  "immutableReferences": {
    "73": [
      {
        "length": 32,
        "start": 2100
      },
      {
        "length": 32,
        "start": 6187
      }
    ],
    "75": [
      {
        "length": 32,
        "start": 3492
      },
      {
        "length": 32,
        "start": 6247
      }
    ]
  },
  "source": "pragma solidity ^0.8.10;\n\nimport \"./BearcoinBase.sol\";\n\ncontract Bearcoin is BearcoinBase {\n  // Initialises smart contract with supply of tokens going to the address that deployed the contract.\n  constructor() ERC20(\"BTC Bearcoin\", \"BTCBEAR\")\n      VRFConsumerBase(\n        0x3d2341ADb2D31f1c5530cDC622016af293177AE0, // VRF Coordinator\n        0xb0897686c545045aFc77CF20eC7A532E3120E0F1  // LINK Token\n    )\n  {\n    priceFeed = AggregatorV3Interface(0xc907E116054Ad103354f2D350FD2514433D57F6f);  //Polygon BTC / USD\n\n    //Randomness\n    s_keyHash = 0xf86195cf7690c55907b2b611ebb7343a6f649bff128701cc542f0569e2c549da;\n\n    onDeploy();\n  }\n}",
  "sourcePath": "/Users/james/Projects/bearcoin/contracts/Bearcoin.sol",
  "compiler": {
    "name": "solc",
    "version": "0.8.10+commit.fc410830.Emscripten.clang"
  },
  "schemaVersion": "3.4.4",
  "updatedAt": "2022-01-22T01:36:24.855Z",
  "devdoc": {
    "kind": "dev",
    "methods": {
      "allowance(address,address)": {
        "details": "See {IERC20-allowance}."
      },
      "approve(address,uint256)": {
        "details": "See {IERC20-approve}. Requirements: - `spender` cannot be the zero address."
      },
      "balanceOf(address)": {
        "details": "See {IERC20-balanceOf}."
      },
      "decimals()": {
        "details": "Returns the number of decimals used to get its user representation. For example, if `decimals` equals `2`, a balance of `505` tokens should be displayed to a user as `5.05` (`505 / 10 ** 2`). Tokens usually opt for a value of 18, imitating the relationship between Ether and Wei. This is the value {ERC20} uses, unless this function is overridden; NOTE: This information is only used for _display_ purposes: it in no way affects any of the arithmetic of the contract, including {IERC20-balanceOf} and {IERC20-transfer}."
      },
      "decreaseAllowance(address,uint256)": {
        "details": "Atomically decreases the allowance granted to `spender` by the caller. This is an alternative to {approve} that can be used as a mitigation for problems described in {IERC20-approve}. Emits an {Approval} event indicating the updated allowance. Requirements: - `spender` cannot be the zero address. - `spender` must have allowance for the caller of at least `subtractedValue`."
      },
      "increaseAllowance(address,uint256)": {
        "details": "Atomically increases the allowance granted to `spender` by the caller. This is an alternative to {approve} that can be used as a mitigation for problems described in {IERC20-approve}. Emits an {Approval} event indicating the updated allowance. Requirements: - `spender` cannot be the zero address."
      },
      "name()": {
        "details": "Returns the name of the token."
      },
      "owner()": {
        "details": "Returns the address of the current owner."
      },
      "renounceOwnership()": {
        "details": "Leaves the contract without owner. It will not be possible to call `onlyOwner` functions anymore. Can only be called by the current owner. NOTE: Renouncing ownership will leave the contract without an owner, thereby removing any functionality that is only available to the owner."
      },
      "symbol()": {
        "details": "Returns the symbol of the token, usually a shorter version of the name."
      },
      "totalSupply()": {
        "details": "See {IERC20-totalSupply}."
      },
      "transfer(address,uint256)": {
        "details": "See {IERC20-transfer}. Requirements: - `recipient` cannot be the zero address. - the caller must have a balance of at least `amount`."
      },
      "transferFrom(address,address,uint256)": {
        "details": "See {IERC20-transferFrom}. Emits an {Approval} event indicating the updated allowance. This is not required by the EIP. See the note at the beginning of {ERC20}. Requirements: - `sender` and `recipient` cannot be the zero address. - `sender` must have a balance of at least `amount`. - the caller must have allowance for ``sender``'s tokens of at least `amount`."
      },
      "transferOwnership(address)": {
        "details": "Transfers ownership of the contract to a new account (`newOwner`). Can only be called by the current owner."
      }
    },
    "version": 1
  },
  "userdoc": {
    "kind": "user",
    "methods": {},
    "version": 1
  }
}