{
  "contractName": "DevBearcoin",
  "abi": [
    {
      "inputs": [],
      "stateMutability": "nonpayable",
      "type": "constructor"
    },
    {
      "anonymous": false,
      "inputs": [
        {
          "indexed": true,
          "internalType": "address",
          "name": "owner",
          "type": "address"
        },
        {
          "indexed": true,
          "internalType": "address",
          "name": "spender",
          "type": "address"
        },
        {
          "indexed": false,
          "internalType": "uint256",
          "name": "value",
          "type": "uint256"
        }
      ],
      "name": "Approval",
      "type": "event"
    },
    {
      "anonymous": false,
      "inputs": [
        {
          "indexed": false,
          "internalType": "address",
          "name": "account",
          "type": "address"
        },
        {
          "indexed": false,
          "internalType": "uint256",
          "name": "amount",
          "type": "uint256"
        }
      ],
      "name": "BurnedDeflation",
      "type": "event"
    },
    {
      "anonymous": false,
      "inputs": [
        {
          "indexed": false,
          "internalType": "address",
          "name": "value",
          "type": "address"
        }
      ],
      "name": "DebugAddress",
      "type": "event"
    },
    {
      "anonymous": false,
      "inputs": [
        {
          "indexed": false,
          "internalType": "bool",
          "name": "value",
          "type": "bool"
        }
      ],
      "name": "DebugBool",
      "type": "event"
    },
    {
      "anonymous": false,
      "inputs": [
        {
          "indexed": false,
          "internalType": "bytes32",
          "name": "value",
          "type": "bytes32"
        }
      ],
      "name": "DebugBytes32",
      "type": "event"
    },
    {
      "anonymous": false,
      "inputs": [
        {
          "indexed": false,
          "internalType": "uint256",
          "name": "value",
          "type": "uint256"
        }
      ],
      "name": "DebugUint256",
      "type": "event"
    },
    {
      "anonymous": false,
      "inputs": [
        {
          "indexed": false,
          "internalType": "uint256",
          "name": "unixtime",
          "type": "uint256"
        },
        {
          "indexed": false,
          "internalType": "int256",
          "name": "price",
          "type": "int256"
        }
      ],
      "name": "FetchedBitcoinPrice",
      "type": "event"
    },
    {
      "anonymous": false,
      "inputs": [
        {
          "indexed": false,
          "internalType": "address",
          "name": "account",
          "type": "address"
        }
      ],
      "name": "InflationDeflationEnabled",
      "type": "event"
    },
    {
      "anonymous": false,
      "inputs": [],
      "name": "InsufficientLINK",
      "type": "event"
    },
    {
      "anonymous": false,
      "inputs": [
        {
          "indexed": true,
          "internalType": "address",
          "name": "previousOwner",
          "type": "address"
        },
        {
          "indexed": true,
          "internalType": "address",
          "name": "newOwner",
          "type": "address"
        }
      ],
      "name": "OwnershipTransferred",
      "type": "event"
    },
    {
      "anonymous": false,
      "inputs": [
        {
          "indexed": false,
          "internalType": "uint256",
          "name": "unixtime",
          "type": "uint256"
        }
      ],
      "name": "RandomSeedUpdateSuccess",
      "type": "event"
    },
    {
      "anonymous": false,
      "inputs": [
        {
          "indexed": false,
          "internalType": "uint256",
          "name": "unixtime",
          "type": "uint256"
        },
        {
          "indexed": false,
          "internalType": "uint8",
          "name": "diffPercent",
          "type": "uint8"
        }
      ],
      "name": "RateUpdateFailure",
      "type": "event"
    },
    {
      "anonymous": false,
      "inputs": [
        {
          "indexed": false,
          "internalType": "uint256",
          "name": "unixtime",
          "type": "uint256"
        },
        {
          "indexed": false,
          "internalType": "uint32",
          "name": "inflationCoef",
          "type": "uint32"
        }
      ],
      "name": "RateUpdateSuccess",
      "type": "event"
    },
    {
      "anonymous": false,
      "inputs": [
        {
          "indexed": false,
          "internalType": "address",
          "name": "recipient",
          "type": "address"
        },
        {
          "indexed": false,
          "internalType": "uint256",
          "name": "amount",
          "type": "uint256"
        }
      ],
      "name": "ReceivedInflation",
      "type": "event"
    },
    {
      "anonymous": false,
      "inputs": [
        {
          "indexed": false,
          "internalType": "uint256",
          "name": "amount",
          "type": "uint256"
        }
      ],
      "name": "ReplenishedDeflation",
      "type": "event"
    },
    {
      "anonymous": false,
      "inputs": [
        {
          "indexed": true,
          "internalType": "address",
          "name": "from",
          "type": "address"
        },
        {
          "indexed": true,
          "internalType": "address",
          "name": "to",
          "type": "address"
        },
        {
          "indexed": false,
          "internalType": "uint256",
          "name": "value",
          "type": "uint256"
        }
      ],
      "name": "Transfer",
      "type": "event"
    },
    {
      "inputs": [
        {
          "internalType": "address",
          "name": "owner",
          "type": "address"
        },
        {
          "internalType": "address",
          "name": "spender",
          "type": "address"
        }
      ],
      "name": "allowance",
      "outputs": [
        {
          "internalType": "uint256",
          "name": "",
          "type": "uint256"
        }
      ],
      "stateMutability": "view",
      "type": "function",
      "constant": true
    },
    {
      "inputs": [
        {
          "internalType": "address",
          "name": "spender",
          "type": "address"
        },
        {
          "internalType": "uint256",
          "name": "amount",
          "type": "uint256"
        }
      ],
      "name": "approve",
      "outputs": [
        {
          "internalType": "bool",
          "name": "",
          "type": "bool"
        }
      ],
      "stateMutability": "nonpayable",
      "type": "function"
    },
    {
      "inputs": [
        {
          "internalType": "address",
          "name": "account",
          "type": "address"
        }
      ],
      "name": "balanceLessDeflationOf",
      "outputs": [
        {
          "internalType": "uint256",
          "name": "",
          "type": "uint256"
        }
      ],
      "stateMutability": "view",
      "type": "function",
      "constant": true
    },
    {
      "inputs": [
        {
          "internalType": "address",
          "name": "account",
          "type": "address"
        }
      ],
      "name": "balanceOf",
      "outputs": [
        {
          "internalType": "uint256",
          "name": "",
          "type": "uint256"
        }
      ],
      "stateMutability": "view",
      "type": "function",
      "constant": true
    },
    {
      "inputs": [],
      "name": "bitcoinPrice",
      "outputs": [
        {
          "internalType": "uint256",
          "name": "",
          "type": "uint256"
        }
      ],
      "stateMutability": "view",
      "type": "function",
      "constant": true
    },
    {
      "inputs": [],
      "name": "burnPreviousDeflation",
      "outputs": [],
      "stateMutability": "nonpayable",
      "type": "function"
    },
    {
      "inputs": [
        {
          "internalType": "bytes",
          "name": "",
          "type": "bytes"
        }
      ],
      "name": "checkUpkeep",
      "outputs": [
        {
          "internalType": "bool",
          "name": "upkeepNeeded",
          "type": "bool"
        },
        {
          "internalType": "bytes",
          "name": "",
          "type": "bytes"
        }
      ],
      "stateMutability": "view",
      "type": "function",
      "constant": true
    },
    {
      "inputs": [],
      "name": "decimals",
      "outputs": [
        {
          "internalType": "uint8",
          "name": "",
          "type": "uint8"
        }
      ],
      "stateMutability": "view",
      "type": "function",
      "constant": true
    },
    {
      "inputs": [
        {
          "internalType": "address",
          "name": "spender",
          "type": "address"
        },
        {
          "internalType": "uint256",
          "name": "subtractedValue",
          "type": "uint256"
        }
      ],
      "name": "decreaseAllowance",
      "outputs": [
        {
          "internalType": "bool",
          "name": "",
          "type": "bool"
        }
      ],
      "stateMutability": "nonpayable",
      "type": "function"
    },
    {
      "inputs": [],
      "name": "desiredSupply",
      "outputs": [
        {
          "internalType": "uint256",
          "name": "",
          "type": "uint256"
        }
      ],
      "stateMutability": "view",
      "type": "function",
      "constant": true
    },
    {
      "inputs": [],
      "name": "enableInflationDeflation",
      "outputs": [],
      "stateMutability": "nonpayable",
      "type": "function"
    },
    {
      "inputs": [],
      "name": "genesisBearcoinSupply",
      "outputs": [
        {
          "internalType": "uint256",
          "name": "",
          "type": "uint256"
        }
      ],
      "stateMutability": "pure",
      "type": "function",
      "constant": true
    },
    {
      "inputs": [],
      "name": "genesisBitcoinPrice",
      "outputs": [
        {
          "internalType": "uint256",
          "name": "",
          "type": "uint256"
        }
      ],
      "stateMutability": "view",
      "type": "function",
      "constant": true
    },
    {
      "inputs": [
        {
          "internalType": "address",
          "name": "spender",
          "type": "address"
        },
        {
          "internalType": "uint256",
          "name": "addedValue",
          "type": "uint256"
        }
      ],
      "name": "increaseAllowance",
      "outputs": [
        {
          "internalType": "bool",
          "name": "",
          "type": "bool"
        }
      ],
      "stateMutability": "nonpayable",
      "type": "function"
    },
    {
      "inputs": [],
      "name": "inflationCoef",
      "outputs": [
        {
          "internalType": "uint32",
          "name": "",
          "type": "uint32"
        }
      ],
      "stateMutability": "view",
      "type": "function",
      "constant": true
    },
    {
      "inputs": [],
      "name": "inflationDeflationEnabled",
      "outputs": [
        {
          "internalType": "bool",
          "name": "",
          "type": "bool"
        }
      ],
      "stateMutability": "nonpayable",
      "type": "function"
    },
    {
      "inputs": [
        {
          "internalType": "address",
          "name": "account",
          "type": "address"
        }
      ],
      "name": "inflationDeflationEnabled",
      "outputs": [
        {
          "internalType": "bool",
          "name": "",
          "type": "bool"
        }
      ],
      "stateMutability": "view",
      "type": "function",
      "constant": true
    },
    {
      "inputs": [],
      "name": "inflationDeflationPaused",
      "outputs": [
        {
          "internalType": "bool",
          "name": "",
          "type": "bool"
        }
      ],
      "stateMutability": "view",
      "type": "function",
      "constant": true
    },
    {
      "inputs": [],
      "name": "name",
      "outputs": [
        {
          "internalType": "string",
          "name": "",
          "type": "string"
        }
      ],
      "stateMutability": "view",
      "type": "function",
      "constant": true
    },
    {
      "inputs": [],
      "name": "owner",
      "outputs": [
        {
          "internalType": "address",
          "name": "",
          "type": "address"
        }
      ],
      "stateMutability": "view",
      "type": "function",
      "constant": true
    },
    {
      "inputs": [
        {
          "internalType": "address",
          "name": "account",
          "type": "address"
        }
      ],
      "name": "pendingDeflationOf",
      "outputs": [
        {
          "internalType": "uint256",
          "name": "",
          "type": "uint256"
        }
      ],
      "stateMutability": "view",
      "type": "function",
      "constant": true
    },
    {
      "inputs": [
        {
          "internalType": "bytes",
          "name": "",
          "type": "bytes"
        }
      ],
      "name": "performUpkeep",
      "outputs": [],
      "stateMutability": "nonpayable",
      "type": "function"
    },
    {
      "inputs": [
        {
          "internalType": "bytes32",
          "name": "requestId",
          "type": "bytes32"
        },
        {
          "internalType": "uint256",
          "name": "randomness",
          "type": "uint256"
        }
      ],
      "name": "rawFulfillRandomness",
      "outputs": [],
      "stateMutability": "nonpayable",
      "type": "function"
    },
    {
      "inputs": [],
      "name": "renounceOwnership",
      "outputs": [],
      "stateMutability": "nonpayable",
      "type": "function"
    },
    {
      "inputs": [],
      "name": "symbol",
      "outputs": [
        {
          "internalType": "string",
          "name": "",
          "type": "string"
        }
      ],
      "stateMutability": "view",
      "type": "function",
      "constant": true
    },
    {
      "inputs": [],
      "name": "totalSupply",
      "outputs": [
        {
          "internalType": "uint256",
          "name": "",
          "type": "uint256"
        }
      ],
      "stateMutability": "view",
      "type": "function",
      "constant": true
    },
    {
      "inputs": [],
      "name": "totalSupplyLessPendingDeflation",
      "outputs": [
        {
          "internalType": "uint256",
          "name": "",
          "type": "uint256"
        }
      ],
      "stateMutability": "view",
      "type": "function",
      "constant": true
    },
    {
      "inputs": [
        {
          "internalType": "address",
          "name": "recipient",
          "type": "address"
        },
        {
          "internalType": "uint256",
          "name": "amount",
          "type": "uint256"
        }
      ],
      "name": "transfer",
      "outputs": [
        {
          "internalType": "bool",
          "name": "",
          "type": "bool"
        }
      ],
      "stateMutability": "nonpayable",
      "type": "function"
    },
    {
      "inputs": [
        {
          "internalType": "address",
          "name": "sender",
          "type": "address"
        },
        {
          "internalType": "address",
          "name": "recipient",
          "type": "address"
        },
        {
          "internalType": "uint256",
          "name": "amount",
          "type": "uint256"
        }
      ],
      "name": "transferFrom",
      "outputs": [
        {
          "internalType": "bool",
          "name": "",
          "type": "bool"
        }
      ],
      "stateMutability": "nonpayable",
      "type": "function"
    },
    {
      "inputs": [
        {
          "internalType": "address",
          "name": "newOwner",
          "type": "address"
        }
      ],
      "name": "transferOwnership",
      "outputs": [],
      "stateMutability": "nonpayable",
      "type": "function"
    },
    {
      "inputs": [],
      "name": "updateInflationDeflationRate",
      "outputs": [
        {
          "internalType": "bool",
          "name": "",
          "type": "bool"
        }
      ],
      "stateMutability": "nonpayable",
      "type": "function"
    },
    {
      "inputs": [
        {
          "internalType": "uint256",
          "name": "price",
          "type": "uint256"
        }
      ],
      "name": "devSetGenesisBitcoinPrice",
      "outputs": [],
      "stateMutability": "nonpayable",
      "type": "function"
    },
    {
      "inputs": [
        {
          "internalType": "uint256",
          "name": "price",
          "type": "uint256"
        }
      ],
      "name": "devSetCurrentBitcoinPrice",
      "outputs": [],
      "stateMutability": "nonpayable",
      "type": "function"
    },
    {
      "inputs": [
        {
          "internalType": "uint256",
          "name": "timestamp",
          "type": "uint256"
        }
      ],
      "name": "devSetLastRateUpdateAt",
      "outputs": [],
      "stateMutability": "nonpayable",
      "type": "function"
    },
    {
      "inputs": [
        {
          "internalType": "uint256",
          "name": "seed",
          "type": "uint256"
        }
      ],
      "name": "devSetRandomSeed",
      "outputs": [],
      "stateMutability": "nonpayable",
      "type": "function"
    },
    {
      "inputs": [],
      "name": "devRandomSeed",
      "outputs": [
        {
          "internalType": "uint256",
          "name": "",
          "type": "uint256"
        }
      ],
      "stateMutability": "view",
      "type": "function",
      "constant": true
    },
    {
      "inputs": [
        {
          "internalType": "bytes",
          "name": "",
          "type": "bytes"
        }
      ],
      "name": "devPerformUpkeepUpdateRate",
      "outputs": [],
      "stateMutability": "nonpayable",
      "type": "function"
    },
    {
      "inputs": [
        {
          "internalType": "bytes",
          "name": "",
          "type": "bytes"
        }
      ],
      "name": "devPerformUpkeepCheckLink",
      "outputs": [],
      "stateMutability": "nonpayable",
      "type": "function"
    },
    {
      "inputs": [
        {
          "internalType": "bytes",
          "name": "",
          "type": "bytes"
        }
      ],
      "name": "devPerformUpkeepRequestRandomness",
      "outputs": [],
      "stateMutability": "nonpayable",
      "type": "function"
    }
  ],
  "bytecode": "0x60c06040526001600760006101000a81548160ff0219169083151502179055506001600760016101000a81548160ff021916908315150217905550620f4240600760026101000a81548163ffffffff021916908363ffffffff16021790555065034d66ad5280600855600854600b55660775f05a074000600c556000600d556000600e556000600f556210f4476014553480156200009c57600080fd5b50738c7382f9d8f56b33781fe506e897a4f1e2d1725573326c977e6efc84e512bb9c30f76e30c160ed06fb6040518060400160405280600c81526020017f4254432042656172636f696e00000000000000000000000000000000000000008152506040518060400160405280600781526020017f425443424541520000000000000000000000000000000000000000000000000081525081600390805190602001906200014b92919062001ab0565b5080600490805190602001906200016492919062001ab0565b505050620001876200017b6200028560201b60201c565b6200028d60201b60201c565b8173ffffffffffffffffffffffffffffffffffffffff1660a08173ffffffffffffffffffffffffffffffffffffffff16815250508073ffffffffffffffffffffffffffffffffffffffff1660808173ffffffffffffffffffffffffffffffffffffffff16815250505050727a22900a3b98143368bd5906f8e17e9867581b600a60006101000a81548173ffffffffffffffffffffffffffffffffffffffff021916908373ffffffffffffffffffffffffffffffffffffffff1602179055507f6e75b569a01ef56d18cab6a8e71e6600d6ce853834d4a5748b720d06f878b3a460001b6012819055506200027f6200035360201b60201c565b620022b3565b600033905090565b6000600560009054906101000a900473ffffffffffffffffffffffffffffffffffffffff16905081600560006101000a81548173ffffffffffffffffffffffffffffffffffffffff021916908373ffffffffffffffffffffffffffffffffffffffff1602179055508173ffffffffffffffffffffffffffffffffffffffff168173ffffffffffffffffffffffffffffffffffffffff167f8be0079c531659141344cd1fd0a4f28419497f9722a3daafe3b4186f6b6457e060405160405180910390a35050565b655af3107a40006013819055506200037933660775f05a0740006200044360201b60201c565b601060009080600181540180825580915050600190039060005260206000200160009091909190916101000a81548173ffffffffffffffffffffffffffffffffffffffff021916908373ffffffffffffffffffffffffffffffffffffffff160217905550601060009080600181540180825580915050600190039060005260206000200160009091909190916101000a81548173ffffffffffffffffffffffffffffffffffffffff021916908373ffffffffffffffffffffffffffffffffffffffff160217905550565b600073ffffffffffffffffffffffffffffffffffffffff168273ffffffffffffffffffffffffffffffffffffffff161415620004b6576040517f08c379a0000000000000000000000000000000000000000000000000000000008152600401620004ad9062001bc1565b60405180910390fd5b620004ca60008383620005bc60201b60201c565b8060026000828254620004de919062001c1c565b92505081905550806000808473ffffffffffffffffffffffffffffffffffffffff1673ffffffffffffffffffffffffffffffffffffffff168152602001908152602001600020600082825462000535919062001c1c565b925050819055508173ffffffffffffffffffffffffffffffffffffffff16600073ffffffffffffffffffffffffffffffffffffffff167fddf252ad1be2c89b69c2b068fc378daa952ba7f163c4a11628f55a4df523b3ef836040516200059c919062001c8a565b60405180910390a3620005b8600083836200085f60201b60201c565b5050565b620005d48383836200086460201b62001d061760201c565b600073ffffffffffffffffffffffffffffffffffffffff168373ffffffffffffffffffffffffffffffffffffffff16141580156200063f5750600073ffffffffffffffffffffffffffffffffffffffff168273ffffffffffffffffffffffffffffffffffffffff1614155b80156200067857508173ffffffffffffffffffffffffffffffffffffffff168373ffffffffffffffffffffffffffffffffffffffff1614155b8015620006855750600081115b156200085a576200069b6200086960201b60201c565b3073ffffffffffffffffffffffffffffffffffffffff168273ffffffffffffffffffffffffffffffffffffffff1614156200070d576040517f08c379a0000000000000000000000000000000000000000000000000000000008152600401620007049062001d1d565b60405180910390fd5b600760009054906101000a900460ff1662000791576000620007358262000aed60201b60201c565b90508181111562000764576200075e828262000752919062001d3f565b62000c2060201b60201c565b6200078f565b808211156200078e576200078d8484838562000781919062001d3f565b62000e7e60201b60201c565b5b5b505b620007a28362000efc60201b60201c565b156200082e576000620007bb8462000f4760201b60201c565b90508181101562000803576040517f08c379a0000000000000000000000000000000000000000000000000000000008152600401620007fa9062001df0565b60405180910390fd5b6000828262000813919062001d3f565b14156200082c576200082b8462000f7e60201b60201c565b5b505b6200083f8262000efc60201b60201c565b156200085957620008588260006200107760201b60201c565b5b5b505050565b505050565b505050565b60005b6009805490508160ff16101562000aea57600073ffffffffffffffffffffffffffffffffffffffff1660098260ff1681548110620008af57620008ae62001e12565b5b906000526020600020906003020160010160009054906101000a900473ffffffffffffffffffffffffffffffffffffffff1673ffffffffffffffffffffffffffffffffffffffff16141580156200093157504360098260ff16815481106200091c576200091b62001e12565b5b90600052602060002090600302016000015414155b1562000ad457600060098260ff168154811062000953576200095262001e12565b5b906000526020600020906003020160010160009054906101000a900473ffffffffffffffffffffffffffffffffffffffff169050600060098360ff1681548110620009a357620009a262001e12565b5b9060005260206000209060030201600201549050600060098460ff1681548110620009d357620009d262001e12565b5b906000526020600020906003020160010160006101000a81548173ffffffffffffffffffffffffffffffffffffffff021916908373ffffffffffffffffffffffffffffffffffffffff160217905550600060098460ff168154811062000a3e5762000a3d62001e12565b5b906000526020600020906003020160020181905550600060098460ff168154811062000a6f5762000a6e62001e12565b5b90600052602060002090600302016000018190555062000a9682826200132560201b60201c565b7fd0ee2fa2f967719a2568b137516c9af76a3f569d40e0174be72fad87b11c8fd2828260405162000ac992919062001e86565b60405180910390a150505b808062000ae19062001ec0565b9150506200086c565b50565b600080620f424062000b046200151660201b60201c565b63ffffffff168462000b17919062001eef565b62000b23919062001f7f565b9050600062000b376200155060201b60201c565b90508382111562000ba95780600c54111562000ba357600081600c5462000b5f919062001d3f565b90506000858462000b71919062001d3f565b90508181111562000b9657818662000b8a919062001c1c565b94505050505062000c1b565b8394505050505062000c1b565b62000c15565b8184111562000c1457600c5481111562000c13576000600c548262000bcf919062001d3f565b90506000838662000be1919062001d3f565b90508181111562000c0657818662000bfa919062001d3f565b94505050505062000c1b565b8394505050505062000c1b565b5b5b83925050505b919050565b60008111801562000c3657506000601080549050115b1562000e7b576000806000806101f46103e862000c5e6010805490506200166160201b60201c565b62000c6a919062001fb7565b141562000c895762000c816200169e60201b60201c565b935062000df3565b60005b600a8160ff16101562000df1576000805b600a8160ff16101562000d9d5760108054905062000cc48260ff166200166160201b60201c565b62000cd0919062001fb7565b9350600184111562000d87576010848154811062000cf35762000cf262001e12565b5b9060005260206000200160009054906101000a900473ffffffffffffffffffffffffffffffffffffffff169450600073ffffffffffffffffffffffffffffffffffffffff168573ffffffffffffffffffffffffffffffffffffffff161462000d865762000d6685620016c860201b60201c565b955060008611801562000d7857508186115b1562000d85578496508591505b5b5b808062000d949062001ec0565b91505062000c9d565b50600073ffffffffffffffffffffffffffffffffffffffff168673ffffffffffffffffffffffffffffffffffffffff161462000dda575062000df1565b50808062000de89062001ec0565b91505062000c8c565b505b600073ffffffffffffffffffffffffffffffffffffffff168473ffffffffffffffffffffffffffffffffffffffff161462000e765762000e3a84866200044360201b60201c565b7f7b7ccc0db87ceb0fcbd03f8d4dd950588bfe00bb478752f85e888dc8039a3cc7848660405162000e6d92919062001e86565b60405180910390a15b505050505b50565b600062000e918462000efc60201b60201c565b9050600062000ea68462000efc60201b60201c565b905081801562000eb35750805b8062000ebc5750805b1562000eda5762000ed484846200171060201b60201c565b62000ef5565b811562000ef45762000ef385846200171060201b60201c565b5b5b5050505050565b600080601160008473ffffffffffffffffffffffffffffffffffffffff1673ffffffffffffffffffffffffffffffffffffffff16815260200190815260200160002054119050919050565b600062000f5a82620019af60201b60201c565b62000f6b83620016c860201b60201c565b62000f77919062001d3f565b9050919050565b6000601160008373ffffffffffffffffffffffffffffffffffffffff1673ffffffffffffffffffffffffffffffffffffffff16815260200190815260200160002054905060018111156200102e5760006010828154811062000fe55762000fe462001e12565b5b9060005260206000200160006101000a81548173ffffffffffffffffffffffffffffffffffffffff021916908373ffffffffffffffffffffffffffffffffffffffff1602179055505b6001601160008473ffffffffffffffffffffffffffffffffffffffff1673ffffffffffffffffffffffffffffffffffffffff168152602001908152602001600020819055505050565b6000601160008473ffffffffffffffffffffffffffffffffffffffff1673ffffffffffffffffffffffffffffffffffffffff1681526020019081526020016000205490506000811480620010d65750600181148015620010d5575081155b5b15620013205760006001905082620012cb576000805b60648160ff16101562001239576000601080549050620011158360ff166200166160201b60201c565b62001121919062001fb7565b905060018111156200122257600073ffffffffffffffffffffffffffffffffffffffff16601082815481106200115c576200115b62001e12565b5b9060005260206000200160009054906101000a900473ffffffffffffffffffffffffffffffffffffffff1673ffffffffffffffffffffffffffffffffffffffff1614156200122157620011b46200028560201b60201c565b60108281548110620011cb57620011ca62001e12565b5b9060005260206000200160006101000a81548173ffffffffffffffffffffffffffffffffffffffff021916908373ffffffffffffffffffffffffffffffffffffffff160217905550600192508093505062001239565b5b508080620012309062001ec0565b915050620010ec565b5080620012c9576010620012526200028560201b60201c565b9080600181540180825580915050600190039060005260206000200160009091909190916101000a81548173ffffffffffffffffffffffffffffffffffffffff021916908373ffffffffffffffffffffffffffffffffffffffff1602179055506001601080549050620012c6919062001d3f565b91505b505b8060116000620012e06200028560201b60201c565b73ffffffffffffffffffffffffffffffffffffffff1673ffffffffffffffffffffffffffffffffffffffff16815260200190815260200160002081905550505b505050565b600073ffffffffffffffffffffffffffffffffffffffff168273ffffffffffffffffffffffffffffffffffffffff16141562001398576040517f08c379a00000000000000000000000000000000000000000000000000000000081526004016200138f9062002065565b60405180910390fd5b620013ac82600083620005bc60201b60201c565b60008060008473ffffffffffffffffffffffffffffffffffffffff1673ffffffffffffffffffffffffffffffffffffffff1681526020019081526020016000205490508181101562001435576040517f08c379a00000000000000000000000000000000000000000000000000000000081526004016200142c90620020fd565b60405180910390fd5b8181036000808573ffffffffffffffffffffffffffffffffffffffff1673ffffffffffffffffffffffffffffffffffffffff1681526020019081526020016000208190555081600260008282546200148e919062001d3f565b92505081905550600073ffffffffffffffffffffffffffffffffffffffff168373ffffffffffffffffffffffffffffffffffffffff167fddf252ad1be2c89b69c2b068fc378daa952ba7f163c4a11628f55a4df523b3ef84604051620014f5919062001c8a565b60405180910390a362001511836000846200085f60201b60201c565b505050565b6000600760009054906101000a900460ff166200154657600760029054906101000a900463ffffffff166200154b565b620f42405b905090565b6000806000905060005b6009805490508160ff1610156200163d57600073ffffffffffffffffffffffffffffffffffffffff1660098260ff16815481106200159d576200159c62001e12565b5b906000526020600020906003020160010160009054906101000a900473ffffffffffffffffffffffffffffffffffffffff1673ffffffffffffffffffffffffffffffffffffffff1614620016275760098160ff168154811062001605576200160462001e12565b5b9060005260206000209060030201600201548262001624919062001c1c565b91505b8080620016349062001ec0565b9150506200155a565b50806200164f62001aa660201b60201c565b6200165b919062001d3f565b91505090565b60006014544442846040516020016200167e949392919062002144565b6040516020818303038152906040528051906020012060001c9050919050565b6000600560009054906101000a900473ffffffffffffffffffffffffffffffffffffffff16905090565b60008060008373ffffffffffffffffffffffffffffffffffffffff1673ffffffffffffffffffffffffffffffffffffffff168152602001908152602001600020549050919050565b6000805b6009805490508163ffffffff1610156200189a57600073ffffffffffffffffffffffffffffffffffffffff1660098263ffffffff16815481106200175d576200175c62001e12565b5b906000526020600020906003020160010160009054906101000a900473ffffffffffffffffffffffffffffffffffffffff1673ffffffffffffffffffffffffffffffffffffffff16141562001884574360098263ffffffff1681548110620017ca57620017c962001e12565b5b9060005260206000209060030201600001819055508360098263ffffffff1681548110620017fd57620017fc62001e12565b5b906000526020600020906003020160010160006101000a81548173ffffffffffffffffffffffffffffffffffffffff021916908373ffffffffffffffffffffffffffffffffffffffff1602179055508260098263ffffffff16815481106200186a576200186962001e12565b5b906000526020600020906003020160020181905550600191505b80806200189190620021aa565b91505062001714565b5080620019aa57600960405180606001604052804381526020018573ffffffffffffffffffffffffffffffffffffffff1681526020018481525090806001815401808255809150506001900390600052602060002090600302016000909190919091506000820151816000015560208201518160010160006101000a81548173ffffffffffffffffffffffffffffffffffffffff021916908373ffffffffffffffffffffffffffffffffffffffff160217905550604082015181600201555050603260ff166009805490501115620019a9576040517f08c379a0000000000000000000000000000000000000000000000000000000008152600401620019a0906200222c565b60405180910390fd5b5b505050565b6000806000905060005b6009805490508160ff16101562001a9c578373ffffffffffffffffffffffffffffffffffffffff1660098260ff1681548110620019fb57620019fa62001e12565b5b906000526020600020906003020160010160009054906101000a900473ffffffffffffffffffffffffffffffffffffffff1673ffffffffffffffffffffffffffffffffffffffff16141562001a865760098160ff168154811062001a645762001a6362001e12565b5b9060005260206000209060030201600201548262001a83919062001c1c565b91505b808062001a939062001ec0565b915050620019b9565b5080915050919050565b6000600254905090565b82805462001abe906200227d565b90600052602060002090601f01602090048101928262001ae2576000855562001b2e565b82601f1062001afd57805160ff191683800117855562001b2e565b8280016001018555821562001b2e579182015b8281111562001b2d57825182559160200191906001019062001b10565b5b50905062001b3d919062001b41565b5090565b5b8082111562001b5c57600081600090555060010162001b42565b5090565b600082825260208201905092915050565b7f45524332303a206d696e7420746f20746865207a65726f206164647265737300600082015250565b600062001ba9601f8362001b60565b915062001bb68262001b71565b602082019050919050565b6000602082019050818103600083015262001bdc8162001b9a565b9050919050565b6000819050919050565b7f4e487b7100000000000000000000000000000000000000000000000000000000600052601160045260246000fd5b600062001c298262001be3565b915062001c368362001be3565b9250827fffffffffffffffffffffffffffffffffffffffffffffffffffffffffffffffff0382111562001c6e5762001c6d62001bed565b5b828201905092915050565b62001c848162001be3565b82525050565b600060208201905062001ca1600083018462001c79565b92915050565b7f7472616e73666572206e6f7420616c6c6f77656420746f2074686520636f6e7460008201527f7261637420616464726573732028796f752772652077656c636f6d6529000000602082015250565b600062001d05603d8362001b60565b915062001d128262001ca7565b604082019050919050565b6000602082019050818103600083015262001d388162001cf6565b9050919050565b600062001d4c8262001be3565b915062001d598362001be3565b92508282101562001d6f5762001d6e62001bed565b5b828203905092915050565b7f7472616e7366657220616d6f756e742028696e636c7564696e672070656e646960008201527f6e67206465666c6174696f6e2920657863656564732062616c616e6365000000602082015250565b600062001dd8603d8362001b60565b915062001de58262001d7a565b604082019050919050565b6000602082019050818103600083015262001e0b8162001dc9565b9050919050565b7f4e487b7100000000000000000000000000000000000000000000000000000000600052603260045260246000fd5b600073ffffffffffffffffffffffffffffffffffffffff82169050919050565b600062001e6e8262001e41565b9050919050565b62001e808162001e61565b82525050565b600060408201905062001e9d600083018562001e75565b62001eac602083018462001c79565b9392505050565b600060ff82169050919050565b600062001ecd8262001eb3565b915060ff82141562001ee45762001ee362001bed565b5b600182019050919050565b600062001efc8262001be3565b915062001f098362001be3565b9250817fffffffffffffffffffffffffffffffffffffffffffffffffffffffffffffffff048311821515161562001f455762001f4462001bed565b5b828202905092915050565b7f4e487b7100000000000000000000000000000000000000000000000000000000600052601260045260246000fd5b600062001f8c8262001be3565b915062001f998362001be3565b92508262001fac5762001fab62001f50565b5b828204905092915050565b600062001fc48262001be3565b915062001fd18362001be3565b92508262001fe45762001fe362001f50565b5b828206905092915050565b7f45524332303a206275726e2066726f6d20746865207a65726f2061646472657360008201527f7300000000000000000000000000000000000000000000000000000000000000602082015250565b60006200204d60218362001b60565b91506200205a8262001fef565b604082019050919050565b6000602082019050818103600083015262002080816200203e565b9050919050565b7f45524332303a206275726e20616d6f756e7420657863656564732062616c616e60008201527f6365000000000000000000000000000000000000000000000000000000000000602082015250565b6000620020e560228362001b60565b9150620020f28262002087565b604082019050919050565b600060208201905081810360008301526200211881620020d6565b9050919050565b6000819050919050565b6200213e620021388262001be3565b6200211f565b82525050565b600062002152828762002129565b60208201915062002164828662002129565b60208201915062002176828562002129565b60208201915062002188828462002129565b60208201915081905095945050505050565b600063ffffffff82169050919050565b6000620021b7826200219a565b915063ffffffff821415620021d157620021d062001bed565b5b600182019050919050565b7f746f6f206d756368206465666c6174696f6e0000000000000000000000000000600082015250565b60006200221460128362001b60565b91506200222182620021dc565b602082019050919050565b60006020820190508181036000830152620022478162002205565b9050919050565b7f4e487b7100000000000000000000000000000000000000000000000000000000600052602260045260246000fd5b600060028204905060018216806200229657607f821691505b60208210811415620022ad57620022ac6200224e565b5b50919050565b60805160a0516149be620022ee600039600081816114030152611f1e015260008181610c460152818161129d0152611ee201526149be6000f3fe608060405234801561001057600080fd5b506004361061023d5760003560e01c806379fad7fc1161013b578063c7d58dec116100b8578063d48015161161007c578063d4801516146106a7578063dd62ed3e146106c5578063f2fde38b146106f5578063f94d9bb814610711578063f9ddf3ed1461072d5761023d565b8063c7d58dec146105f1578063c90d301b1461060d578063d1034cee1461063d578063d106a8871461066d578063d4777082146106895761023d565b806394985ddd116100ff57806394985ddd1461054d57806395d89b4114610569578063a457c2d714610587578063a9059cbb146105b7578063b0eececc146105e75761023d565b806379fad7fc146104b95780637fed827d146104d55780638857856f146104f35780638da5cb5b1461051157806393d6a0861461052f5761023d565b8063313ce567116101c95780635cc894db1161018d5780635cc894db1461041457806367073b941461041e5780636e04ff0d1461044e57806370a082311461047f578063715018a6146104af5761023d565b8063313ce56714610370578063362e6b961461038e57806339509351146103aa5780634585e33b146103da578063512d6aab146103f65761023d565b806318160ddd1161021057806318160ddd146102ca5780631d8176a5146102e85780631fc356871461030457806323b872dd146103225780632d76a742146103525761023d565b8063023879601461024257806306fdde0314610260578063095ea7b31461027e5780630a6c6e56146102ae575b600080fd5b61024a61074b565b6040516102579190613486565b60405180910390f35b610268610762565b604051610275919061353a565b60405180910390f35b610298600480360381019061029391906135fa565b6107f4565b6040516102a59190613486565b60405180910390f35b6102c860048036038101906102c3919061363a565b610812565b005b6102d2610898565b6040516102df9190613676565b60405180910390f35b61030260048036038101906102fd91906136f6565b6108a2565b005b61030c6108b5565b6040516103199190613676565b60405180910390f35b61033c60048036038101906103379190613743565b6109af565b6040516103499190613486565b60405180910390f35b61035a610aa7565b6040516103679190613486565b60405180910390f35b610378610abe565b60405161038591906137b2565b60405180910390f35b6103a860048036038101906103a3919061363a565b610ac7565b005b6103c460048036038101906103bf91906135fa565b610b4d565b6040516103d19190613486565b60405180910390f35b6103f460048036038101906103ef91906136f6565b610bf9565b005b6103fe610d29565b60405161040b9190613486565b60405180910390f35b61041c611078565b005b610438600480360381019061043391906137cd565b611158565b6040516104459190613486565b60405180910390f35b610468600480360381019061046391906136f6565b6111a3565b60405161047692919061384f565b60405180910390f35b610499600480360381019061049491906137cd565b6111c8565b6040516104a69190613676565b60405180910390f35b6104b7611210565b005b6104d360048036038101906104ce91906136f6565b611298565b005b6104dd6113b4565b6040516104ea9190613676565b60405180910390f35b6104fb6113be565b6040516105089190613676565b60405180910390f35b6105196113c8565b604051610526919061388e565b60405180910390f35b6105376113f2565b6040516105449190613676565b60405180910390f35b610567600480360381019061056291906138df565b611401565b005b61057161149d565b60405161057e919061353a565b60405180910390f35b6105a1600480360381019061059c91906135fa565b61152f565b6040516105ae9190613486565b60405180910390f35b6105d160048036038101906105cc91906135fa565b61161a565b6040516105de9190613486565b60405180910390f35b6105ef611638565b005b61060b600480360381019061060691906136f6565b611897565b005b610627600480360381019061062291906137cd565b6118a4565b6040516106349190613676565b60405180910390f35b610657600480360381019061065291906137cd565b6118c9565b6040516106649190613676565b60405180910390f35b6106876004803603810190610682919061363a565b6119b3565b005b610691611a39565b60405161069e919061393e565b60405180910390f35b6106af611a71565b6040516106bc9190613676565b60405180910390f35b6106df60048036038101906106da9190613959565b611af7565b6040516106ec9190613676565b60405180910390f35b61070f600480360381019061070a91906137cd565b611b7e565b005b61072b6004803603810190610726919061363a565b611c76565b005b610735611cfc565b6040516107429190613676565b60405180910390f35b600061075d610758611d0b565b611158565b905090565b606060038054610771906139c8565b80601f016020809104026020016040519081016040528092919081815260200182805461079d906139c8565b80156107ea5780601f106107bf576101008083540402835291602001916107ea565b820191906000526020600020905b8154815290600101906020018083116107cd57829003601f168201915b5050505050905090565b6000610808610801611d0b565b8484611d13565b6001905092915050565b61081a611d0b565b73ffffffffffffffffffffffffffffffffffffffff166108386113c8565b73ffffffffffffffffffffffffffffffffffffffff161461088e576040517f08c379a000000000000000000000000000000000000000000000000000000000815260040161088590613a46565b60405180910390fd5b80600b8190555050565b6000600254905090565b6108b0601254601354611ede565b505050565b6000806000905060005b6009805490508160ff16101561099557600073ffffffffffffffffffffffffffffffffffffffff1660098260ff16815481106108fe576108fd613a66565b5b906000526020600020906003020160010160009054906101000a900473ffffffffffffffffffffffffffffffffffffffff1673ffffffffffffffffffffffffffffffffffffffff16146109825760098160ff168154811061096257610961613a66565b5b9060005260206000209060030201600201548261097f9190613ac4565b91505b808061098d90613b1a565b9150506108bf565b508061099f610898565b6109a99190613b44565b91505090565b60006109bc848484612031565b6000600160008673ffffffffffffffffffffffffffffffffffffffff1673ffffffffffffffffffffffffffffffffffffffff1681526020019081526020016000206000610a07611d0b565b73ffffffffffffffffffffffffffffffffffffffff1673ffffffffffffffffffffffffffffffffffffffff16815260200190815260200160002054905082811015610a87576040517f08c379a0000000000000000000000000000000000000000000000000000000008152600401610a7e90613bea565b60405180910390fd5b610a9b85610a93611d0b565b858403611d13565b60019150509392505050565b6000600760009054906101000a900460ff16905090565b60006008905090565b610acf611d0b565b73ffffffffffffffffffffffffffffffffffffffff16610aed6113c8565b73ffffffffffffffffffffffffffffffffffffffff1614610b43576040517f08c379a0000000000000000000000000000000000000000000000000000000008152600401610b3a90613a46565b60405180910390fd5b8060148190555050565b6000610bef610b5a611d0b565b848460016000610b68611d0b565b73ffffffffffffffffffffffffffffffffffffffff1673ffffffffffffffffffffffffffffffffffffffff16815260200190815260200160002060008873ffffffffffffffffffffffffffffffffffffffff1673ffffffffffffffffffffffffffffffffffffffff16815260200190815260200160002054610bea9190613ac4565b611d13565b6001905092915050565b42600d81905550600163ffffffff16600e54610c159190613ac4565b4210610c2557610c23610d29565b505b610e1063ffffffff16600f54610c3b9190613ac4565b4210610d25576013547f000000000000000000000000000000000000000000000000000000000000000073ffffffffffffffffffffffffffffffffffffffff166370a08231306040518263ffffffff1660e01b8152600401610c9d919061388e565b602060405180830381865afa158015610cba573d6000803e3d6000fd5b505050506040513d601f19601f82011682018060405250810190610cde9190613c1f565b10610cf757610cf1601254601354611ede565b50610d24565b7f01dfa6bc0693a95833988d39a4008583372f6f9b7ed55bfb11dad26b24a111d560405160405180910390a15b5b5050565b6000600760019054906101000a900460ff1615610d9857600163ffffffff16600e54610d559190613ac4565b421015610d97576040517f08c379a0000000000000000000000000000000000000000000000000000000008152600401610d8e90613cbe565b60405180910390fd5b5b6000600b5490506000610da96122b2565b9050600080821315610db9578190505b600083821115610dd6578382610dcf9190613b44565b9050610de5565b8184610de29190613b44565b90505b6000811115610f20576000808511610dfe576064610e17565b84606483610e0c9190613cde565b610e169190613d67565b5b905060148160ff161115610eda57600760009054906101000a900460ff16610e55576001600760006101000a81548160ff0219169083151502179055505b62093a8042610e649190613b44565b600e541015610e9b5782600b819055506000600760006101000a81548160ff02191690831515021790555042600e81905550610ed5565b7f67f806498a0163f4964f7f18395189bd3f7a12c4a7950989c5f38b591d0126734282604051610ecc929190613d98565b60405180910390a15b610f1a565b82600b8190555042600e81905550600760009054906101000a900460ff1615610f19576000600760006101000a81548160ff0219169083151502179055505b5b50610f52565b600760009054906101000a900460ff1615610f51576000600760006101000a81548160ff0219169083151502179055505b5b600760009054906101000a900460ff1615610f74576000945050505050611075565b620f4240660775f05a074000600854620f4240600b54610f949190613cde565b610f9e9190613d67565b610fa89190613cde565b610fb29190613d67565b600c8190555061100c611003620f424080610fcb6108b5565b620f4240600c54610fdc9190613cde565b610fe69190613d67565b610ff09190613cde565b610ffa9190613d67565b6210059061239a565b620e7ef06123b3565b600760026101000a81548163ffffffff021916908363ffffffff1602179055507fa0b79167ca082d6e3e6dc08b7ecc1d70db5f13620b5d1e2c277b47767405738342611056611a39565b604051611064929190613dc1565b60405180910390a160019450505050505b90565b6110806113c8565b73ffffffffffffffffffffffffffffffffffffffff1661109e611d0b565b73ffffffffffffffffffffffffffffffffffffffff1614156110f5576040517f08c379a00000000000000000000000000000000000000000000000000000000081526004016110ec90613e5c565b60405180910390fd5b611118611100611d0b565b600061111261110d611d0b565b6118a4565b146123cd565b7fad2644799d22ccf482d35b38cc8c8c4ff4b7192df5f0e76b2c9c63a55b5be151611141611d0b565b60405161114e919061388e565b60405180910390a1565b600080601160008473ffffffffffffffffffffffffffffffffffffffff1673ffffffffffffffffffffffffffffffffffffffff16815260200190815260200160002054119050919050565b6000606061025863ffffffff16600d546111bd9190613ac4565b421191509250929050565b60008060008373ffffffffffffffffffffffffffffffffffffffff1673ffffffffffffffffffffffffffffffffffffffff168152602001908152602001600020549050919050565b611218611d0b565b73ffffffffffffffffffffffffffffffffffffffff166112366113c8565b73ffffffffffffffffffffffffffffffffffffffff161461128c576040517f08c379a000000000000000000000000000000000000000000000000000000000815260040161128390613a46565b60405180910390fd5b6112966000612645565b565b6013547f000000000000000000000000000000000000000000000000000000000000000073ffffffffffffffffffffffffffffffffffffffff166370a08231306040518263ffffffff1660e01b81526004016112f4919061388e565b602060405180830381865afa158015611311573d6000803e3d6000fd5b505050506040513d601f19601f820116820180604052508101906113359190613c1f565b10611377577fe3a4ce2743f762fb9ba1b280ad891310a8dc003fa605660cb8e460f3c7218e7a600160405161136a9190613486565b60405180910390a16113b0565b7fe3a4ce2743f762fb9ba1b280ad891310a8dc003fa605660cb8e460f3c7218e7a60006040516113a79190613486565b60405180910390a15b5050565b6000600854905090565b6000600c54905090565b6000600560009054906101000a900473ffffffffffffffffffffffffffffffffffffffff16905090565b6000660775f05a074000905090565b7f000000000000000000000000000000000000000000000000000000000000000073ffffffffffffffffffffffffffffffffffffffff163373ffffffffffffffffffffffffffffffffffffffff161461148f576040517f08c379a000000000000000000000000000000000000000000000000000000000815260040161148690613ec8565b60405180910390fd5b611499828261270b565b5050565b6060600480546114ac906139c8565b80601f01602080910402602001604051908101604052809291908181526020018280546114d8906139c8565b80156115255780601f106114fa57610100808354040283529160200191611525565b820191906000526020600020905b81548152906001019060200180831161150857829003601f168201915b5050505050905090565b6000806001600061153e611d0b565b73ffffffffffffffffffffffffffffffffffffffff1673ffffffffffffffffffffffffffffffffffffffff16815260200190815260200160002060008573ffffffffffffffffffffffffffffffffffffffff1673ffffffffffffffffffffffffffffffffffffffff168152602001908152602001600020549050828110156115fb576040517f08c379a00000000000000000000000000000000000000000000000000000000081526004016115f290613f5a565b60405180910390fd5b61160f611606611d0b565b85858403611d13565b600191505092915050565b600061162e611627611d0b565b8484612031565b6001905092915050565b60005b6009805490508160ff16101561189457600073ffffffffffffffffffffffffffffffffffffffff1660098260ff168154811061167a57611679613a66565b5b906000526020600020906003020160010160009054906101000a900473ffffffffffffffffffffffffffffffffffffffff1673ffffffffffffffffffffffffffffffffffffffff16141580156116f857504360098260ff16815481106116e3576116e2613a66565b5b90600052602060002090600302016000015414155b1561188157600060098260ff168154811061171657611715613a66565b5b906000526020600020906003020160010160009054906101000a900473ffffffffffffffffffffffffffffffffffffffff169050600060098360ff168154811061176357611762613a66565b5b9060005260206000209060030201600201549050600060098460ff16815481106117905761178f613a66565b5b906000526020600020906003020160010160006101000a81548173ffffffffffffffffffffffffffffffffffffffff021916908373ffffffffffffffffffffffffffffffffffffffff160217905550600060098460ff16815481106117f8576117f7613a66565b5b906000526020600020906003020160020181905550600060098460ff168154811061182657611825613a66565b5b9060005260206000209060030201600001819055506118458282612754565b7fd0ee2fa2f967719a2568b137516c9af76a3f569d40e0174be72fad87b11c8fd28282604051611876929190613f7a565b60405180910390a150505b808061188c90613b1a565b91505061163b565b50565b61189f610d29565b505050565b60006118af826118c9565b6118b8836111c8565b6118c29190613b44565b9050919050565b6000806000905060005b6009805490508160ff1610156119a9578373ffffffffffffffffffffffffffffffffffffffff1660098260ff168154811061191157611910613a66565b5b906000526020600020906003020160010160009054906101000a900473ffffffffffffffffffffffffffffffffffffffff1673ffffffffffffffffffffffffffffffffffffffff1614156119965760098160ff168154811061197657611975613a66565b5b906000526020600020906003020160020154826119939190613ac4565b91505b80806119a190613b1a565b9150506118d3565b5080915050919050565b6119bb611d0b565b73ffffffffffffffffffffffffffffffffffffffff166119d96113c8565b73ffffffffffffffffffffffffffffffffffffffff1614611a2f576040517f08c379a0000000000000000000000000000000000000000000000000000000008152600401611a2690613a46565b60405180910390fd5b8060088190555050565b6000600760009054906101000a900460ff16611a6757600760029054906101000a900463ffffffff16611a6c565b620f42405b905090565b6000611a7b611d0b565b73ffffffffffffffffffffffffffffffffffffffff16611a996113c8565b73ffffffffffffffffffffffffffffffffffffffff1614611aef576040517f08c379a0000000000000000000000000000000000000000000000000000000008152600401611ae690613a46565b60405180910390fd5b601454905090565b6000600160008473ffffffffffffffffffffffffffffffffffffffff1673ffffffffffffffffffffffffffffffffffffffff16815260200190815260200160002060008373ffffffffffffffffffffffffffffffffffffffff1673ffffffffffffffffffffffffffffffffffffffff16815260200190815260200160002054905092915050565b611b86611d0b565b73ffffffffffffffffffffffffffffffffffffffff16611ba46113c8565b73ffffffffffffffffffffffffffffffffffffffff1614611bfa576040517f08c379a0000000000000000000000000000000000000000000000000000000008152600401611bf190613a46565b60405180910390fd5b600073ffffffffffffffffffffffffffffffffffffffff168173ffffffffffffffffffffffffffffffffffffffff161415611c6a576040517f08c379a0000000000000000000000000000000000000000000000000000000008152600401611c6190614015565b60405180910390fd5b611c7381612645565b50565b611c7e611d0b565b73ffffffffffffffffffffffffffffffffffffffff16611c9c6113c8565b73ffffffffffffffffffffffffffffffffffffffff1614611cf2576040517f08c379a0000000000000000000000000000000000000000000000000000000008152600401611ce990613a46565b60405180910390fd5b80600e8190555050565b6000600b54905090565b505050565b600033905090565b600073ffffffffffffffffffffffffffffffffffffffff168373ffffffffffffffffffffffffffffffffffffffff161415611d83576040517f08c379a0000000000000000000000000000000000000000000000000000000008152600401611d7a906140a7565b60405180910390fd5b600073ffffffffffffffffffffffffffffffffffffffff168273ffffffffffffffffffffffffffffffffffffffff161415611df3576040517f08c379a0000000000000000000000000000000000000000000000000000000008152600401611dea90614139565b60405180910390fd5b80600160008573ffffffffffffffffffffffffffffffffffffffff1673ffffffffffffffffffffffffffffffffffffffff16815260200190815260200160002060008473ffffffffffffffffffffffffffffffffffffffff1673ffffffffffffffffffffffffffffffffffffffff168152602001908152602001600020819055508173ffffffffffffffffffffffffffffffffffffffff168373ffffffffffffffffffffffffffffffffffffffff167f8c5be1e5ebec7d5bd14f71427d1e84f3dd0314c0f7b2291e5b200ac8c7c3b92583604051611ed19190613676565b60405180910390a3505050565b60007f000000000000000000000000000000000000000000000000000000000000000073ffffffffffffffffffffffffffffffffffffffff16634000aea07f000000000000000000000000000000000000000000000000000000000000000084866000604051602001611f52929190614168565b6040516020818303038152906040526040518463ffffffff1660e01b8152600401611f7f93929190614191565b6020604051808303816000875af1158015611f9e573d6000803e3d6000fd5b505050506040513d601f19601f82011682018060405250810190611fc291906141fb565b506000611fe584600030600660008981526020019081526020016000205461292b565b9050600160066000868152602001908152602001600020546120079190613ac4565b60066000868152602001908152602001600020819055506120288482612967565b91505092915050565b600073ffffffffffffffffffffffffffffffffffffffff168373ffffffffffffffffffffffffffffffffffffffff1614156120a1576040517f08c379a00000000000000000000000000000000000000000000000000000000081526004016120989061429a565b60405180910390fd5b600073ffffffffffffffffffffffffffffffffffffffff168273ffffffffffffffffffffffffffffffffffffffff161415612111576040517f08c379a00000000000000000000000000000000000000000000000000000000081526004016121089061432c565b60405180910390fd5b61211c83838361299a565b60008060008573ffffffffffffffffffffffffffffffffffffffff1673ffffffffffffffffffffffffffffffffffffffff168152602001908152602001600020549050818110156121a2576040517f08c379a0000000000000000000000000000000000000000000000000000000008152600401612199906143be565b60405180910390fd5b8181036000808673ffffffffffffffffffffffffffffffffffffffff1673ffffffffffffffffffffffffffffffffffffffff16815260200190815260200160002081905550816000808573ffffffffffffffffffffffffffffffffffffffff1673ffffffffffffffffffffffffffffffffffffffff16815260200190815260200160002060008282546122359190613ac4565b925050819055508273ffffffffffffffffffffffffffffffffffffffff168473ffffffffffffffffffffffffffffffffffffffff167fddf252ad1be2c89b69c2b068fc378daa952ba7f163c4a11628f55a4df523b3ef846040516122999190613676565b60405180910390a36122ac848484612bd1565b50505050565b600080600080600080600a60009054906101000a900473ffffffffffffffffffffffffffffffffffffffff1673ffffffffffffffffffffffffffffffffffffffff1663feaf968c6040518163ffffffff1660e01b815260040160a060405180830381865afa158015612328573d6000803e3d6000fd5b505050506040513d601f19601f8201168201806040525081019061234c9190614456565b945094509450945094507f84346e4eb9a9c51c338a375ef4faeceb72f1c95e46924ac64856598ba0c8c6c942856040516123879291906144e0565b60405180910390a1839550505050505090565b60008183106123a957816123ab565b825b905092915050565b6000818310156123c357816123c5565b825b905092915050565b6000601160008473ffffffffffffffffffffffffffffffffffffffff1673ffffffffffffffffffffffffffffffffffffffff168152602001908152602001600020549050600081148061242a5750600181148015612429575081155b5b1561264057600060019050826125f3576000805b60648160ff16101561256c57600060108054905061245e8360ff16612bd6565b6124689190614509565b9050600181111561255857600073ffffffffffffffffffffffffffffffffffffffff166010828154811061249f5761249e613a66565b5b9060005260206000200160009054906101000a900473ffffffffffffffffffffffffffffffffffffffff1673ffffffffffffffffffffffffffffffffffffffff161415612557576124ee611d0b565b6010828154811061250257612501613a66565b5b9060005260206000200160006101000a81548173ffffffffffffffffffffffffffffffffffffffff021916908373ffffffffffffffffffffffffffffffffffffffff160217905550600192508093505061256c565b5b50808061256490613b1a565b91505061243e565b50806125f157601061257c611d0b565b9080600181540180825580915050600190039060005260206000200160009091909190916101000a81548173ffffffffffffffffffffffffffffffffffffffff021916908373ffffffffffffffffffffffffffffffffffffffff16021790555060016010805490506125ee9190613b44565b91505b505b8060116000612600611d0b565b73ffffffffffffffffffffffffffffffffffffffff1673ffffffffffffffffffffffffffffffffffffffff16815260200190815260200160002081905550505b505050565b6000600560009054906101000a900473ffffffffffffffffffffffffffffffffffffffff16905081600560006101000a81548173ffffffffffffffffffffffffffffffffffffffff021916908373ffffffffffffffffffffffffffffffffffffffff1602179055508173ffffffffffffffffffffffffffffffffffffffff168173ffffffffffffffffffffffffffffffffffffffff167f8be0079c531659141344cd1fd0a4f28419497f9722a3daafe3b4186f6b6457e060405160405180910390a35050565b8060148190555042600f819055507f6346be37468568fe66e15515523b31f767f59bfc6febb11e73440938b45e522d426040516127489190613676565b60405180910390a15050565b600073ffffffffffffffffffffffffffffffffffffffff168273ffffffffffffffffffffffffffffffffffffffff1614156127c4576040517f08c379a00000000000000000000000000000000000000000000000000000000081526004016127bb906145ac565b60405180910390fd5b6127d08260008361299a565b60008060008473ffffffffffffffffffffffffffffffffffffffff1673ffffffffffffffffffffffffffffffffffffffff16815260200190815260200160002054905081811015612856576040517f08c379a000000000000000000000000000000000000000000000000000000000815260040161284d9061463e565b60405180910390fd5b8181036000808573ffffffffffffffffffffffffffffffffffffffff1673ffffffffffffffffffffffffffffffffffffffff1681526020019081526020016000208190555081600260008282546128ad9190613b44565b92505081905550600073ffffffffffffffffffffffffffffffffffffffff168373ffffffffffffffffffffffffffffffffffffffff167fddf252ad1be2c89b69c2b068fc378daa952ba7f163c4a11628f55a4df523b3ef846040516129129190613676565b60405180910390a361292683600084612bd1565b505050565b600084848484604051602001612944949392919061465e565b6040516020818303038152906040528051906020012060001c9050949350505050565b6000828260405160200161297c9291906146e5565b60405160208183030381529060405280519060200120905092915050565b6129a5838383611d06565b600073ffffffffffffffffffffffffffffffffffffffff168373ffffffffffffffffffffffffffffffffffffffff1614158015612a0f5750600073ffffffffffffffffffffffffffffffffffffffff168273ffffffffffffffffffffffffffffffffffffffff1614155b8015612a4757508173ffffffffffffffffffffffffffffffffffffffff168373ffffffffffffffffffffffffffffffffffffffff1614155b8015612a535750600081115b15612bcc57612a60611638565b3073ffffffffffffffffffffffffffffffffffffffff168273ffffffffffffffffffffffffffffffffffffffff161415612acf576040517f08c379a0000000000000000000000000000000000000000000000000000000008152600401612ac690614783565b60405180910390fd5b600760009054906101000a900460ff16612b33576000612aee82612c11565b905081811115612b1157612b0c8282612b079190613b44565b612d19565b612b31565b80821115612b3057612b2f84848385612b2a9190613b44565b612f33565b5b5b505b612b3c83611158565b15612bb1576000612b4c846118a4565b905081811015612b91576040517f08c379a0000000000000000000000000000000000000000000000000000000008152600401612b8890614815565b60405180910390fd5b60008282612b9f9190613b44565b1415612baf57612bae84612f8c565b5b505b612bba82611158565b15612bcb57612bca8260006123cd565b5b5b505050565b505050565b6000601454444284604051602001612bf19493929190614835565b6040516020818303038152906040528051906020012060001c9050919050565b600080620f4240612c20611a39565b63ffffffff1684612c319190613cde565b612c3b9190613d67565b90506000612c476108b5565b905083821115612cad5780600c541115612ca857600081600c54612c6b9190613b44565b905060008584612c7b9190613b44565b905081811115612c9c578186612c919190613ac4565b945050505050612d14565b83945050505050612d14565b612d0e565b81841115612d0d57600c54811115612d0c576000600c5482612ccf9190613b44565b905060008386612cdf9190613b44565b905081811115612d00578186612cf59190613b44565b945050505050612d14565b83945050505050612d14565b5b5b83925050505b919050565b600081118015612d2e57506000601080549050115b15612f30576000806000806101f46103e8612d4d601080549050612bd6565b612d579190614509565b1415612d6c57612d656113c8565b9350612eb3565b60005b600a8160ff161015612eb1576000805b600a8160ff161015612e6257601080549050612d9d8260ff16612bd6565b612da79190614509565b93506001841115612e4f5760108481548110612dc657612dc5613a66565b5b9060005260206000200160009054906101000a900473ffffffffffffffffffffffffffffffffffffffff169450600073ffffffffffffffffffffffffffffffffffffffff168573ffffffffffffffffffffffffffffffffffffffff1614612e4e57612e30856111c8565b9550600086118015612e4157508186115b15612e4d578496508591505b5b5b8080612e5a90613b1a565b915050612d7f565b50600073ffffffffffffffffffffffffffffffffffffffff168673ffffffffffffffffffffffffffffffffffffffff1614612e9d5750612eb1565b508080612ea990613b1a565b915050612d6f565b505b600073ffffffffffffffffffffffffffffffffffffffff168473ffffffffffffffffffffffffffffffffffffffff1614612f2b57612ef18486613081565b7f7b7ccc0db87ceb0fcbd03f8d4dd950588bfe00bb478752f85e888dc8039a3cc78486604051612f22929190613f7a565b60405180910390a15b505050505b50565b6000612f3e84611158565b90506000612f4b84611158565b9050818015612f575750805b80612f5f5750805b15612f7357612f6e84846131e1565b612f85565b8115612f8457612f8385846131e1565b5b5b5050505050565b6000601160008373ffffffffffffffffffffffffffffffffffffffff1673ffffffffffffffffffffffffffffffffffffffff168152602001908152602001600020549050600181111561303857600060108281548110612fef57612fee613a66565b5b9060005260206000200160006101000a81548173ffffffffffffffffffffffffffffffffffffffff021916908373ffffffffffffffffffffffffffffffffffffffff1602179055505b6001601160008473ffffffffffffffffffffffffffffffffffffffff1673ffffffffffffffffffffffffffffffffffffffff168152602001908152602001600020819055505050565b600073ffffffffffffffffffffffffffffffffffffffff168273ffffffffffffffffffffffffffffffffffffffff1614156130f1576040517f08c379a00000000000000000000000000000000000000000000000000000000081526004016130e8906148cf565b60405180910390fd5b6130fd6000838361299a565b806002600082825461310f9190613ac4565b92505081905550806000808473ffffffffffffffffffffffffffffffffffffffff1673ffffffffffffffffffffffffffffffffffffffff16815260200190815260200160002060008282546131649190613ac4565b925050819055508173ffffffffffffffffffffffffffffffffffffffff16600073ffffffffffffffffffffffffffffffffffffffff167fddf252ad1be2c89b69c2b068fc378daa952ba7f163c4a11628f55a4df523b3ef836040516131c99190613676565b60405180910390a36131dd60008383612bd1565b5050565b6000805b6009805490508163ffffffff16101561335a57600073ffffffffffffffffffffffffffffffffffffffff1660098263ffffffff168154811061322a57613229613a66565b5b906000526020600020906003020160010160009054906101000a900473ffffffffffffffffffffffffffffffffffffffff1673ffffffffffffffffffffffffffffffffffffffff161415613347574360098263ffffffff168154811061329357613292613a66565b5b9060005260206000209060030201600001819055508360098263ffffffff16815481106132c3576132c2613a66565b5b906000526020600020906003020160010160006101000a81548173ffffffffffffffffffffffffffffffffffffffff021916908373ffffffffffffffffffffffffffffffffffffffff1602179055508260098263ffffffff168154811061332d5761332c613a66565b5b906000526020600020906003020160020181905550600191505b8080613352906148ef565b9150506131e5565b508061346657600960405180606001604052804381526020018573ffffffffffffffffffffffffffffffffffffffff1681526020018481525090806001815401808255809150506001900390600052602060002090600302016000909190919091506000820151816000015560208201518160010160006101000a81548173ffffffffffffffffffffffffffffffffffffffff021916908373ffffffffffffffffffffffffffffffffffffffff160217905550604082015181600201555050603260ff166009805490501115613465576040517f08c379a000000000000000000000000000000000000000000000000000000000815260040161345c90614968565b60405180910390fd5b5b505050565b60008115159050919050565b6134808161346b565b82525050565b600060208201905061349b6000830184613477565b92915050565b600081519050919050565b600082825260208201905092915050565b60005b838110156134db5780820151818401526020810190506134c0565b838111156134ea576000848401525b50505050565b6000601f19601f8301169050919050565b600061350c826134a1565b61351681856134ac565b93506135268185602086016134bd565b61352f816134f0565b840191505092915050565b600060208201905081810360008301526135548184613501565b905092915050565b600080fd5b600080fd5b600073ffffffffffffffffffffffffffffffffffffffff82169050919050565b600061359182613566565b9050919050565b6135a181613586565b81146135ac57600080fd5b50565b6000813590506135be81613598565b92915050565b6000819050919050565b6135d7816135c4565b81146135e257600080fd5b50565b6000813590506135f4816135ce565b92915050565b600080604083850312156136115761361061355c565b5b600061361f858286016135af565b9250506020613630858286016135e5565b9150509250929050565b6000602082840312156136505761364f61355c565b5b600061365e848285016135e5565b91505092915050565b613670816135c4565b82525050565b600060208201905061368b6000830184613667565b92915050565b600080fd5b600080fd5b600080fd5b60008083601f8401126136b6576136b5613691565b5b8235905067ffffffffffffffff8111156136d3576136d2613696565b5b6020830191508360018202830111156136ef576136ee61369b565b5b9250929050565b6000806020838503121561370d5761370c61355c565b5b600083013567ffffffffffffffff81111561372b5761372a613561565b5b613737858286016136a0565b92509250509250929050565b60008060006060848603121561375c5761375b61355c565b5b600061376a868287016135af565b935050602061377b868287016135af565b925050604061378c868287016135e5565b9150509250925092565b600060ff82169050919050565b6137ac81613796565b82525050565b60006020820190506137c760008301846137a3565b92915050565b6000602082840312156137e3576137e261355c565b5b60006137f1848285016135af565b91505092915050565b600081519050919050565b600082825260208201905092915050565b6000613821826137fa565b61382b8185613805565b935061383b8185602086016134bd565b613844816134f0565b840191505092915050565b60006040820190506138646000830185613477565b81810360208301526138768184613816565b90509392505050565b61388881613586565b82525050565b60006020820190506138a3600083018461387f565b92915050565b6000819050919050565b6138bc816138a9565b81146138c757600080fd5b50565b6000813590506138d9816138b3565b92915050565b600080604083850312156138f6576138f561355c565b5b6000613904858286016138ca565b9250506020613915858286016135e5565b9150509250929050565b600063ffffffff82169050919050565b6139388161391f565b82525050565b6000602082019050613953600083018461392f565b92915050565b600080604083850312156139705761396f61355c565b5b600061397e858286016135af565b925050602061398f858286016135af565b9150509250929050565b7f4e487b7100000000000000000000000000000000000000000000000000000000600052602260045260246000fd5b600060028204905060018216806139e057607f821691505b602082108114156139f4576139f3613999565b5b50919050565b7f4f776e61626c653a2063616c6c6572206973206e6f7420746865206f776e6572600082015250565b6000613a306020836134ac565b9150613a3b826139fa565b602082019050919050565b60006020820190508181036000830152613a5f81613a23565b9050919050565b7f4e487b7100000000000000000000000000000000000000000000000000000000600052603260045260246000fd5b7f4e487b7100000000000000000000000000000000000000000000000000000000600052601160045260246000fd5b6000613acf826135c4565b9150613ada836135c4565b9250827fffffffffffffffffffffffffffffffffffffffffffffffffffffffffffffffff03821115613b0f57613b0e613a95565b5b828201905092915050565b6000613b2582613796565b915060ff821415613b3957613b38613a95565b5b600182019050919050565b6000613b4f826135c4565b9150613b5a836135c4565b925082821015613b6d57613b6c613a95565b5b828203905092915050565b7f45524332303a207472616e7366657220616d6f756e742065786365656473206160008201527f6c6c6f77616e6365000000000000000000000000000000000000000000000000602082015250565b6000613bd46028836134ac565b9150613bdf82613b78565b604082019050919050565b60006020820190508181036000830152613c0381613bc7565b9050919050565b600081519050613c19816135ce565b92915050565b600060208284031215613c3557613c3461355c565b5b6000613c4384828501613c0a565b91505092915050565b7f757064617465496e666c6174696f6e4465666c6174696f6e526174653a20636160008201527f6e206f6e6c792062652063616c6c6564206f6e636520706572206d696e757465602082015250565b6000613ca86040836134ac565b9150613cb382613c4c565b604082019050919050565b60006020820190508181036000830152613cd781613c9b565b9050919050565b6000613ce9826135c4565b9150613cf4836135c4565b9250817fffffffffffffffffffffffffffffffffffffffffffffffffffffffffffffffff0483118215151615613d2d57613d2c613a95565b5b828202905092915050565b7f4e487b7100000000000000000000000000000000000000000000000000000000600052601260045260246000fd5b6000613d72826135c4565b9150613d7d836135c4565b925082613d8d57613d8c613d38565b5b828204905092915050565b6000604082019050613dad6000830185613667565b613dba60208301846137a3565b9392505050565b6000604082019050613dd66000830185613667565b613de3602083018461392f565b9392505050565b7f746865206f776e6572206163636f756e74206973206e6f7420616c6c6f77656460008201527f20746f20656e61626c6520696e666c6174696f6e2f6465666c6174696f6e0000602082015250565b6000613e46603e836134ac565b9150613e5182613dea565b604082019050919050565b60006020820190508181036000830152613e7581613e39565b9050919050565b7f4f6e6c7920565246436f6f7264696e61746f722063616e2066756c66696c6c00600082015250565b6000613eb2601f836134ac565b9150613ebd82613e7c565b602082019050919050565b60006020820190508181036000830152613ee181613ea5565b9050919050565b7f45524332303a2064656372656173656420616c6c6f77616e63652062656c6f7760008201527f207a65726f000000000000000000000000000000000000000000000000000000602082015250565b6000613f446025836134ac565b9150613f4f82613ee8565b604082019050919050565b60006020820190508181036000830152613f7381613f37565b9050919050565b6000604082019050613f8f600083018561387f565b613f9c6020830184613667565b9392505050565b7f4f776e61626c653a206e6577206f776e657220697320746865207a65726f206160008201527f6464726573730000000000000000000000000000000000000000000000000000602082015250565b6000613fff6026836134ac565b915061400a82613fa3565b604082019050919050565b6000602082019050818103600083015261402e81613ff2565b9050919050565b7f45524332303a20617070726f76652066726f6d20746865207a65726f2061646460008201527f7265737300000000000000000000000000000000000000000000000000000000602082015250565b60006140916024836134ac565b915061409c82614035565b604082019050919050565b600060208201905081810360008301526140c081614084565b9050919050565b7f45524332303a20617070726f766520746f20746865207a65726f20616464726560008201527f7373000000000000000000000000000000000000000000000000000000000000602082015250565b60006141236022836134ac565b915061412e826140c7565b604082019050919050565b6000602082019050818103600083015261415281614116565b9050919050565b614162816138a9565b82525050565b600060408201905061417d6000830185614159565b61418a6020830184613667565b9392505050565b60006060820190506141a6600083018661387f565b6141b36020830185613667565b81810360408301526141c58184613816565b9050949350505050565b6141d88161346b565b81146141e357600080fd5b50565b6000815190506141f5816141cf565b92915050565b6000602082840312156142115761421061355c565b5b600061421f848285016141e6565b91505092915050565b7f45524332303a207472616e736665722066726f6d20746865207a65726f20616460008201527f6472657373000000000000000000000000000000000000000000000000000000602082015250565b60006142846025836134ac565b915061428f82614228565b604082019050919050565b600060208201905081810360008301526142b381614277565b9050919050565b7f45524332303a207472616e7366657220746f20746865207a65726f206164647260008201527f6573730000000000000000000000000000000000000000000000000000000000602082015250565b60006143166023836134ac565b9150614321826142ba565b604082019050919050565b6000602082019050818103600083015261434581614309565b9050919050565b7f45524332303a207472616e7366657220616d6f756e742065786365656473206260008201527f616c616e63650000000000000000000000000000000000000000000000000000602082015250565b60006143a86026836134ac565b91506143b38261434c565b604082019050919050565b600060208201905081810360008301526143d78161439b565b9050919050565b600069ffffffffffffffffffff82169050919050565b6143fd816143de565b811461440857600080fd5b50565b60008151905061441a816143f4565b92915050565b6000819050919050565b61443381614420565b811461443e57600080fd5b50565b6000815190506144508161442a565b92915050565b600080600080600060a086880312156144725761447161355c565b5b60006144808882890161440b565b955050602061449188828901614441565b94505060406144a288828901613c0a565b93505060606144b388828901613c0a565b92505060806144c48882890161440b565b9150509295509295909350565b6144da81614420565b82525050565b60006040820190506144f56000830185613667565b61450260208301846144d1565b9392505050565b6000614514826135c4565b915061451f836135c4565b92508261452f5761452e613d38565b5b828206905092915050565b7f45524332303a206275726e2066726f6d20746865207a65726f2061646472657360008201527f7300000000000000000000000000000000000000000000000000000000000000602082015250565b60006145966021836134ac565b91506145a18261453a565b604082019050919050565b600060208201905081810360008301526145c581614589565b9050919050565b7f45524332303a206275726e20616d6f756e7420657863656564732062616c616e60008201527f6365000000000000000000000000000000000000000000000000000000000000602082015250565b60006146286022836134ac565b9150614633826145cc565b604082019050919050565b600060208201905081810360008301526146578161461b565b9050919050565b60006080820190506146736000830187614159565b6146806020830186613667565b61468d604083018561387f565b61469a6060830184613667565b95945050505050565b6000819050919050565b6146be6146b9826138a9565b6146a3565b82525050565b6000819050919050565b6146df6146da826135c4565b6146c4565b82525050565b60006146f182856146ad565b60208201915061470182846146ce565b6020820191508190509392505050565b7f7472616e73666572206e6f7420616c6c6f77656420746f2074686520636f6e7460008201527f7261637420616464726573732028796f752772652077656c636f6d6529000000602082015250565b600061476d603d836134ac565b915061477882614711565b604082019050919050565b6000602082019050818103600083015261479c81614760565b9050919050565b7f7472616e7366657220616d6f756e742028696e636c7564696e672070656e646960008201527f6e67206465666c6174696f6e2920657863656564732062616c616e6365000000602082015250565b60006147ff603d836134ac565b915061480a826147a3565b604082019050919050565b6000602082019050818103600083015261482e816147f2565b9050919050565b600061484182876146ce565b60208201915061485182866146ce565b60208201915061486182856146ce565b60208201915061487182846146ce565b60208201915081905095945050505050565b7f45524332303a206d696e7420746f20746865207a65726f206164647265737300600082015250565b60006148b9601f836134ac565b91506148c482614883565b602082019050919050565b600060208201905081810360008301526148e8816148ac565b9050919050565b60006148fa8261391f565b915063ffffffff82141561491157614910613a95565b5b600182019050919050565b7f746f6f206d756368206465666c6174696f6e0000000000000000000000000000600082015250565b60006149526012836134ac565b915061495d8261491c565b602082019050919050565b6000602082019050818103600083015261498181614945565b905091905056fea264697066735822122021cd1dc29ef2bc6c6ecd35929d54b7ad29e93fdf1e804a00f40d33464545820264736f6c634300080a0033",
  "immutableReferences": {
    "73": [
      {
        "length": 32,
        "start": 3142
      },
      {
        "length": 32,
        "start": 4765
      },
      {
        "length": 32,
        "start": 7906
      }
    ],
    "75": [
      {
        "length": 32,
        "start": 5123
      },
      {
        "length": 32,
        "start": 7966
      }
    ]
  },
  "source": "pragma solidity ^0.8.10;\n\nimport \"./BearcoinBase.sol\";\n\ncontract DevBearcoin is BearcoinBase {\n  event DebugUint256(uint256 value);\n  event DebugAddress(address value);\n  event DebugBool( bool value );\n  event DebugBytes32(bytes32 value);\n\n  constructor() ERC20(\"BTC Bearcoin\", \"BTCBEAR\") VRFConsumerBase(\n        0x8C7382F9D8f56b33781fE506E897a4F1e2d17255, // VRF Coordinator\n        0x326C977E6efc84E512bB9C30f76E30c160eD06FB  // LINK Token\n    )\n  {\n    _priceFeed = AggregatorV3Interface(0x007A22900a3B98143368Bd5906f8E17e9867581b);  //Polygon Testnet BTC / USD\n\n    //Randomness\n    s_keyHash = 0x6e75b569a01ef56d18cab6a8e71e6600d6ce853834d4a5748b720d06f878b3a4;\n\n    onDeploy();\n  }\n\n  function devSetGenesisBitcoinPrice( uint256 price ) public onlyOwner {\n    _genesisBitcoinPrice = price;\n  }\n\n  function devSetCurrentBitcoinPrice( uint256 price ) public onlyOwner {\n    _bitcoinPrice = price;\n  }\n\n  function devSetLastRateUpdateAt( uint256 timestamp ) public onlyOwner {\n    _lastRateUpdateAt = timestamp;\n  }\n\n  function devSetRandomSeed( uint256 seed ) public onlyOwner {\n    _randomSeed = seed;\n  }\n\n  function devRandomSeed() public view onlyOwner returns (uint256) {\n    return _randomSeed;\n  }\n\n  function devPerformUpkeepUpdateRate(bytes calldata /* performData */) external {\n    updateInflationDeflationRate();\n  }\n\n  function devPerformUpkeepCheckLink(bytes calldata /* performData */) external {\n    if ( LINK.balanceOf(address(this)) >= s_fee ) {\n      emit DebugBool(true);\n    }\n    else {\n      emit DebugBool(false);\n    }\n  }\n\n  function devPerformUpkeepRequestRandomness(bytes calldata /* performData */) external {\n    requestRandomness(s_keyHash, s_fee);\n  }\n}",
  "sourcePath": "/Users/james/Projects/bearcoin/contracts/DevBearcoin.sol",
  "compiler": {
    "name": "solc",
    "version": "0.8.10+commit.fc410830.Emscripten.clang"
  },
  "schemaVersion": "3.4.4",
  "updatedAt": "2022-01-28T20:08:05.028Z",
  "networkType": "ethereum",
  "devdoc": {
    "kind": "dev",
    "methods": {
      "allowance(address,address)": {
        "details": "See {IERC20-allowance}."
      },
      "approve(address,uint256)": {
        "details": "See {IERC20-approve}. Requirements: - `spender` cannot be the zero address."
      },
      "balanceOf(address)": {
        "details": "See {IERC20-balanceOf}."
      },
      "decimals()": {
        "details": "Returns the number of decimals used to get its user representation. For example, if `decimals` equals `2`, a balance of `505` tokens should be displayed to a user as `5.05` (`505 / 10 ** 2`). Tokens usually opt for a value of 18, imitating the relationship between Ether and Wei. This is the value {ERC20} uses, unless this function is overridden; NOTE: This information is only used for _display_ purposes: it in no way affects any of the arithmetic of the contract, including {IERC20-balanceOf} and {IERC20-transfer}."
      },
      "decreaseAllowance(address,uint256)": {
        "details": "Atomically decreases the allowance granted to `spender` by the caller. This is an alternative to {approve} that can be used as a mitigation for problems described in {IERC20-approve}. Emits an {Approval} event indicating the updated allowance. Requirements: - `spender` cannot be the zero address. - `spender` must have allowance for the caller of at least `subtractedValue`."
      },
      "increaseAllowance(address,uint256)": {
        "details": "Atomically increases the allowance granted to `spender` by the caller. This is an alternative to {approve} that can be used as a mitigation for problems described in {IERC20-approve}. Emits an {Approval} event indicating the updated allowance. Requirements: - `spender` cannot be the zero address."
      },
      "name()": {
        "details": "Returns the name of the token."
      },
      "owner()": {
        "details": "Returns the address of the current owner."
      },
      "renounceOwnership()": {
        "details": "Leaves the contract without owner. It will not be possible to call `onlyOwner` functions anymore. Can only be called by the current owner. NOTE: Renouncing ownership will leave the contract without an owner, thereby removing any functionality that is only available to the owner."
      },
      "symbol()": {
        "details": "Returns the symbol of the token, usually a shorter version of the name."
      },
      "totalSupply()": {
        "details": "See {IERC20-totalSupply}."
      },
      "transfer(address,uint256)": {
        "details": "See {IERC20-transfer}. Requirements: - `recipient` cannot be the zero address. - the caller must have a balance of at least `amount`."
      },
      "transferFrom(address,address,uint256)": {
        "details": "See {IERC20-transferFrom}. Emits an {Approval} event indicating the updated allowance. This is not required by the EIP. See the note at the beginning of {ERC20}. Requirements: - `sender` and `recipient` cannot be the zero address. - `sender` must have a balance of at least `amount`. - the caller must have allowance for ``sender``'s tokens of at least `amount`."
      },
      "transferOwnership(address)": {
        "details": "Transfers ownership of the contract to a new account (`newOwner`). Can only be called by the current owner."
      }
    },
    "version": 1
  },
  "userdoc": {
    "kind": "user",
    "methods": {},
    "version": 1
  }
}