{
  "contractName": "DevBearcoin",
  "abi": [
    {
      "inputs": [],
      "stateMutability": "nonpayable",
      "type": "constructor"
    },
    {
      "anonymous": false,
      "inputs": [
        {
          "indexed": true,
          "internalType": "address",
          "name": "owner",
          "type": "address"
        },
        {
          "indexed": true,
          "internalType": "address",
          "name": "spender",
          "type": "address"
        },
        {
          "indexed": false,
          "internalType": "uint256",
          "name": "value",
          "type": "uint256"
        }
      ],
      "name": "Approval",
      "type": "event"
    },
    {
      "anonymous": false,
      "inputs": [
        {
          "indexed": false,
          "internalType": "address",
          "name": "account",
          "type": "address"
        },
        {
          "indexed": false,
          "internalType": "uint256",
          "name": "amount",
          "type": "uint256"
        }
      ],
      "name": "BurnedDeflation",
      "type": "event"
    },
    {
      "anonymous": false,
      "inputs": [
        {
          "indexed": false,
          "internalType": "address",
          "name": "value",
          "type": "address"
        }
      ],
      "name": "DebugAddress",
      "type": "event"
    },
    {
      "anonymous": false,
      "inputs": [
        {
          "indexed": false,
          "internalType": "uint256",
          "name": "value",
          "type": "uint256"
        }
      ],
      "name": "DebugUint265",
      "type": "event"
    },
    {
      "anonymous": false,
      "inputs": [
        {
          "indexed": false,
          "internalType": "uint256",
          "name": "unixtime",
          "type": "uint256"
        },
        {
          "indexed": false,
          "internalType": "int256",
          "name": "price",
          "type": "int256"
        }
      ],
      "name": "FetchedBitcoinPrice",
      "type": "event"
    },
    {
      "anonymous": false,
      "inputs": [
        {
          "indexed": false,
          "internalType": "address",
          "name": "account",
          "type": "address"
        }
      ],
      "name": "InflationDeflationEnabled",
      "type": "event"
    },
    {
      "anonymous": false,
      "inputs": [],
      "name": "InsufficientLINK",
      "type": "event"
    },
    {
      "anonymous": false,
      "inputs": [
        {
          "indexed": true,
          "internalType": "address",
          "name": "previousOwner",
          "type": "address"
        },
        {
          "indexed": true,
          "internalType": "address",
          "name": "newOwner",
          "type": "address"
        }
      ],
      "name": "OwnershipTransferred",
      "type": "event"
    },
    {
      "anonymous": false,
      "inputs": [
        {
          "indexed": false,
          "internalType": "uint256",
          "name": "unixtime",
          "type": "uint256"
        },
        {
          "indexed": false,
          "internalType": "uint256",
          "name": "seed",
          "type": "uint256"
        }
      ],
      "name": "RandomSeedUpdateSuccess",
      "type": "event"
    },
    {
      "anonymous": false,
      "inputs": [
        {
          "indexed": false,
          "internalType": "uint256",
          "name": "unixtime",
          "type": "uint256"
        },
        {
          "indexed": false,
          "internalType": "uint8",
          "name": "diffPercent",
          "type": "uint8"
        }
      ],
      "name": "RateUpdateFailure",
      "type": "event"
    },
    {
      "anonymous": false,
      "inputs": [
        {
          "indexed": false,
          "internalType": "uint256",
          "name": "unixtime",
          "type": "uint256"
        },
        {
          "indexed": false,
          "internalType": "uint32",
          "name": "inflationCoef",
          "type": "uint32"
        }
      ],
      "name": "RateUpdateSuccess",
      "type": "event"
    },
    {
      "anonymous": false,
      "inputs": [
        {
          "indexed": false,
          "internalType": "address",
          "name": "recipient",
          "type": "address"
        },
        {
          "indexed": false,
          "internalType": "uint256",
          "name": "amount",
          "type": "uint256"
        }
      ],
      "name": "ReceivedInflation",
      "type": "event"
    },
    {
      "anonymous": false,
      "inputs": [
        {
          "indexed": false,
          "internalType": "uint256",
          "name": "amount",
          "type": "uint256"
        }
      ],
      "name": "ReplenishedDeflation",
      "type": "event"
    },
    {
      "anonymous": false,
      "inputs": [
        {
          "indexed": true,
          "internalType": "address",
          "name": "from",
          "type": "address"
        },
        {
          "indexed": true,
          "internalType": "address",
          "name": "to",
          "type": "address"
        },
        {
          "indexed": false,
          "internalType": "uint256",
          "name": "value",
          "type": "uint256"
        }
      ],
      "name": "Transfer",
      "type": "event"
    },
    {
      "inputs": [
        {
          "internalType": "address",
          "name": "owner",
          "type": "address"
        },
        {
          "internalType": "address",
          "name": "spender",
          "type": "address"
        }
      ],
      "name": "allowance",
      "outputs": [
        {
          "internalType": "uint256",
          "name": "",
          "type": "uint256"
        }
      ],
      "stateMutability": "view",
      "type": "function",
      "constant": true
    },
    {
      "inputs": [
        {
          "internalType": "address",
          "name": "spender",
          "type": "address"
        },
        {
          "internalType": "uint256",
          "name": "amount",
          "type": "uint256"
        }
      ],
      "name": "approve",
      "outputs": [
        {
          "internalType": "bool",
          "name": "",
          "type": "bool"
        }
      ],
      "stateMutability": "nonpayable",
      "type": "function"
    },
    {
      "inputs": [
        {
          "internalType": "address",
          "name": "account",
          "type": "address"
        }
      ],
      "name": "balanceLessDeflationOf",
      "outputs": [
        {
          "internalType": "uint256",
          "name": "",
          "type": "uint256"
        }
      ],
      "stateMutability": "view",
      "type": "function",
      "constant": true
    },
    {
      "inputs": [
        {
          "internalType": "address",
          "name": "account",
          "type": "address"
        }
      ],
      "name": "balanceOf",
      "outputs": [
        {
          "internalType": "uint256",
          "name": "",
          "type": "uint256"
        }
      ],
      "stateMutability": "view",
      "type": "function",
      "constant": true
    },
    {
      "inputs": [],
      "name": "bitcoinPrice",
      "outputs": [
        {
          "internalType": "uint256",
          "name": "",
          "type": "uint256"
        }
      ],
      "stateMutability": "view",
      "type": "function",
      "constant": true
    },
    {
      "inputs": [],
      "name": "burnPreviousDeflation",
      "outputs": [],
      "stateMutability": "nonpayable",
      "type": "function"
    },
    {
      "inputs": [
        {
          "internalType": "bytes",
          "name": "",
          "type": "bytes"
        }
      ],
      "name": "checkUpkeep",
      "outputs": [
        {
          "internalType": "bool",
          "name": "upkeepNeeded",
          "type": "bool"
        },
        {
          "internalType": "bytes",
          "name": "",
          "type": "bytes"
        }
      ],
      "stateMutability": "view",
      "type": "function",
      "constant": true
    },
    {
      "inputs": [],
      "name": "decimals",
      "outputs": [
        {
          "internalType": "uint8",
          "name": "",
          "type": "uint8"
        }
      ],
      "stateMutability": "view",
      "type": "function",
      "constant": true
    },
    {
      "inputs": [
        {
          "internalType": "address",
          "name": "spender",
          "type": "address"
        },
        {
          "internalType": "uint256",
          "name": "subtractedValue",
          "type": "uint256"
        }
      ],
      "name": "decreaseAllowance",
      "outputs": [
        {
          "internalType": "bool",
          "name": "",
          "type": "bool"
        }
      ],
      "stateMutability": "nonpayable",
      "type": "function"
    },
    {
      "inputs": [],
      "name": "desiredSupply",
      "outputs": [
        {
          "internalType": "uint256",
          "name": "",
          "type": "uint256"
        }
      ],
      "stateMutability": "view",
      "type": "function",
      "constant": true
    },
    {
      "inputs": [],
      "name": "enableInflationDeflation",
      "outputs": [],
      "stateMutability": "nonpayable",
      "type": "function"
    },
    {
      "inputs": [],
      "name": "genesisBearcoinSupply",
      "outputs": [
        {
          "internalType": "uint256",
          "name": "",
          "type": "uint256"
        }
      ],
      "stateMutability": "pure",
      "type": "function",
      "constant": true
    },
    {
      "inputs": [],
      "name": "genesisBitcoinPrice",
      "outputs": [
        {
          "internalType": "uint256",
          "name": "",
          "type": "uint256"
        }
      ],
      "stateMutability": "pure",
      "type": "function",
      "constant": true
    },
    {
      "inputs": [
        {
          "internalType": "address",
          "name": "spender",
          "type": "address"
        },
        {
          "internalType": "uint256",
          "name": "addedValue",
          "type": "uint256"
        }
      ],
      "name": "increaseAllowance",
      "outputs": [
        {
          "internalType": "bool",
          "name": "",
          "type": "bool"
        }
      ],
      "stateMutability": "nonpayable",
      "type": "function"
    },
    {
      "inputs": [],
      "name": "inflationCoef",
      "outputs": [
        {
          "internalType": "uint32",
          "name": "",
          "type": "uint32"
        }
      ],
      "stateMutability": "view",
      "type": "function",
      "constant": true
    },
    {
      "inputs": [],
      "name": "inflationDeflationEnabled",
      "outputs": [
        {
          "internalType": "bool",
          "name": "",
          "type": "bool"
        }
      ],
      "stateMutability": "nonpayable",
      "type": "function"
    },
    {
      "inputs": [
        {
          "internalType": "address",
          "name": "account",
          "type": "address"
        }
      ],
      "name": "inflationDeflationEnabled",
      "outputs": [
        {
          "internalType": "bool",
          "name": "",
          "type": "bool"
        }
      ],
      "stateMutability": "view",
      "type": "function",
      "constant": true
    },
    {
      "inputs": [],
      "name": "inflationDeflationPaused",
      "outputs": [
        {
          "internalType": "bool",
          "name": "",
          "type": "bool"
        }
      ],
      "stateMutability": "view",
      "type": "function",
      "constant": true
    },
    {
      "inputs": [],
      "name": "name",
      "outputs": [
        {
          "internalType": "string",
          "name": "",
          "type": "string"
        }
      ],
      "stateMutability": "view",
      "type": "function",
      "constant": true
    },
    {
      "inputs": [],
      "name": "owner",
      "outputs": [
        {
          "internalType": "address",
          "name": "",
          "type": "address"
        }
      ],
      "stateMutability": "view",
      "type": "function",
      "constant": true
    },
    {
      "inputs": [
        {
          "internalType": "address",
          "name": "account",
          "type": "address"
        }
      ],
      "name": "pendingDeflationOf",
      "outputs": [
        {
          "internalType": "uint256",
          "name": "",
          "type": "uint256"
        }
      ],
      "stateMutability": "view",
      "type": "function",
      "constant": true
    },
    {
      "inputs": [
        {
          "internalType": "bytes",
          "name": "",
          "type": "bytes"
        }
      ],
      "name": "performUpkeep",
      "outputs": [],
      "stateMutability": "nonpayable",
      "type": "function"
    },
    {
      "inputs": [
        {
          "internalType": "bytes32",
          "name": "requestId",
          "type": "bytes32"
        },
        {
          "internalType": "uint256",
          "name": "randomness",
          "type": "uint256"
        }
      ],
      "name": "rawFulfillRandomness",
      "outputs": [],
      "stateMutability": "nonpayable",
      "type": "function"
    },
    {
      "inputs": [],
      "name": "renounceOwnership",
      "outputs": [],
      "stateMutability": "nonpayable",
      "type": "function"
    },
    {
      "inputs": [],
      "name": "symbol",
      "outputs": [
        {
          "internalType": "string",
          "name": "",
          "type": "string"
        }
      ],
      "stateMutability": "view",
      "type": "function",
      "constant": true
    },
    {
      "inputs": [],
      "name": "totalSupply",
      "outputs": [
        {
          "internalType": "uint256",
          "name": "",
          "type": "uint256"
        }
      ],
      "stateMutability": "view",
      "type": "function",
      "constant": true
    },
    {
      "inputs": [],
      "name": "totalSupplyLessPendingDeflation",
      "outputs": [
        {
          "internalType": "uint256",
          "name": "",
          "type": "uint256"
        }
      ],
      "stateMutability": "view",
      "type": "function",
      "constant": true
    },
    {
      "inputs": [
        {
          "internalType": "address",
          "name": "recipient",
          "type": "address"
        },
        {
          "internalType": "uint256",
          "name": "amount",
          "type": "uint256"
        }
      ],
      "name": "transfer",
      "outputs": [
        {
          "internalType": "bool",
          "name": "",
          "type": "bool"
        }
      ],
      "stateMutability": "nonpayable",
      "type": "function"
    },
    {
      "inputs": [
        {
          "internalType": "address",
          "name": "sender",
          "type": "address"
        },
        {
          "internalType": "address",
          "name": "recipient",
          "type": "address"
        },
        {
          "internalType": "uint256",
          "name": "amount",
          "type": "uint256"
        }
      ],
      "name": "transferFrom",
      "outputs": [
        {
          "internalType": "bool",
          "name": "",
          "type": "bool"
        }
      ],
      "stateMutability": "nonpayable",
      "type": "function"
    },
    {
      "inputs": [
        {
          "internalType": "address",
          "name": "newOwner",
          "type": "address"
        }
      ],
      "name": "transferOwnership",
      "outputs": [],
      "stateMutability": "nonpayable",
      "type": "function"
    },
    {
      "inputs": [],
      "name": "updateInflationDeflationRate",
      "outputs": [
        {
          "internalType": "bool",
          "name": "",
          "type": "bool"
        }
      ],
      "stateMutability": "nonpayable",
      "type": "function"
    }
  ],
  "bytecode": "0x60c06040526001600760006101000a81548160ff0219169083151502179055506001600760016101000a81548160ff021916908315150217905550620f4240600760026101000a81548163ffffffff021916908363ffffffff1602179055506210f447600855650464cc403280600b55660775f05a074000600c5542600d5542600e553480156200008f57600080fd5b50733d2341adb2d31f1c5530cdc622016af293177ae073b0897686c545045afc77cf20ec7a532e3120e0f16040518060400160405280600c81526020017f4254432042656172636f696e00000000000000000000000000000000000000008152506040518060400160405280600781526020017f425443424541520000000000000000000000000000000000000000000000000081525081600390805190602001906200013e92919062001aa3565b5080600490805190602001906200015792919062001aa3565b5050506200017a6200016e6200027860201b60201c565b6200028060201b60201c565b8173ffffffffffffffffffffffffffffffffffffffff1660a08173ffffffffffffffffffffffffffffffffffffffff16815250508073ffffffffffffffffffffffffffffffffffffffff1660808173ffffffffffffffffffffffffffffffffffffffff16815250505050727a22900a3b98143368bd5906f8e17e9867581b600a60006101000a81548173ffffffffffffffffffffffffffffffffffffffff021916908373ffffffffffffffffffffffffffffffffffffffff1602179055507f6e75b569a01ef56d18cab6a8e71e6600d6ce853834d4a5748b720d06f878b3a460001b601181905550620002726200034660201b60201c565b620022a6565b600033905090565b6000600560009054906101000a900473ffffffffffffffffffffffffffffffffffffffff16905081600560006101000a81548173ffffffffffffffffffffffffffffffffffffffff021916908373ffffffffffffffffffffffffffffffffffffffff1602179055508173ffffffffffffffffffffffffffffffffffffffff168173ffffffffffffffffffffffffffffffffffffffff167f8be0079c531659141344cd1fd0a4f28419497f9722a3daafe3b4186f6b6457e060405160405180910390a35050565b655af3107a40006012819055506200036c33660775f05a0740006200043660201b60201c565b600f60009080600181540180825580915050600190039060005260206000200160009091909190916101000a81548173ffffffffffffffffffffffffffffffffffffffff021916908373ffffffffffffffffffffffffffffffffffffffff160217905550600f60009080600181540180825580915050600190039060005260206000200160009091909190916101000a81548173ffffffffffffffffffffffffffffffffffffffff021916908373ffffffffffffffffffffffffffffffffffffffff160217905550565b600073ffffffffffffffffffffffffffffffffffffffff168273ffffffffffffffffffffffffffffffffffffffff161415620004a9576040517f08c379a0000000000000000000000000000000000000000000000000000000008152600401620004a09062001bb4565b60405180910390fd5b620004bd60008383620005af60201b60201c565b8060026000828254620004d1919062001c0f565b92505081905550806000808473ffffffffffffffffffffffffffffffffffffffff1673ffffffffffffffffffffffffffffffffffffffff168152602001908152602001600020600082825462000528919062001c0f565b925050819055508173ffffffffffffffffffffffffffffffffffffffff16600073ffffffffffffffffffffffffffffffffffffffff167fddf252ad1be2c89b69c2b068fc378daa952ba7f163c4a11628f55a4df523b3ef836040516200058f919062001c7d565b60405180910390a3620005ab600083836200085260201b60201c565b5050565b620005c78383836200085760201b620017bc1760201c565b600073ffffffffffffffffffffffffffffffffffffffff168373ffffffffffffffffffffffffffffffffffffffff1614158015620006325750600073ffffffffffffffffffffffffffffffffffffffff168273ffffffffffffffffffffffffffffffffffffffff1614155b80156200066b57508173ffffffffffffffffffffffffffffffffffffffff168373ffffffffffffffffffffffffffffffffffffffff1614155b8015620006785750600081115b156200084d576200068e6200085c60201b60201c565b3073ffffffffffffffffffffffffffffffffffffffff168273ffffffffffffffffffffffffffffffffffffffff16141562000700576040517f08c379a0000000000000000000000000000000000000000000000000000000008152600401620006f79062001d10565b60405180910390fd5b600760009054906101000a900460ff1662000784576000620007288262000ae060201b60201c565b905081811115620007575762000751828262000745919062001d32565b62000c1360201b60201c565b62000782565b808211156200078157620007808484838562000774919062001d32565b62000e7160201b60201c565b5b5b505b620007958362000eef60201b60201c565b1562000821576000620007ae8462000f3a60201b60201c565b905081811015620007f6576040517f08c379a0000000000000000000000000000000000000000000000000000000008152600401620007ed9062001de3565b60405180910390fd5b6000828262000806919062001d32565b14156200081f576200081e8462000f7160201b60201c565b5b505b620008328262000eef60201b60201c565b156200084c576200084b8260006200106a60201b60201c565b5b5b505050565b505050565b505050565b60005b6009805490508160ff16101562000add57600073ffffffffffffffffffffffffffffffffffffffff1660098260ff1681548110620008a257620008a162001e05565b5b906000526020600020906003020160010160009054906101000a900473ffffffffffffffffffffffffffffffffffffffff1673ffffffffffffffffffffffffffffffffffffffff16141580156200092457504360098260ff16815481106200090f576200090e62001e05565b5b90600052602060002090600302016000015414155b1562000ac757600060098260ff168154811062000946576200094562001e05565b5b906000526020600020906003020160010160009054906101000a900473ffffffffffffffffffffffffffffffffffffffff169050600060098360ff168154811062000996576200099562001e05565b5b9060005260206000209060030201600201549050600060098460ff1681548110620009c657620009c562001e05565b5b906000526020600020906003020160010160006101000a81548173ffffffffffffffffffffffffffffffffffffffff021916908373ffffffffffffffffffffffffffffffffffffffff160217905550600060098460ff168154811062000a315762000a3062001e05565b5b906000526020600020906003020160020181905550600060098460ff168154811062000a625762000a6162001e05565b5b90600052602060002090600302016000018190555062000a8982826200131860201b60201c565b7fd0ee2fa2f967719a2568b137516c9af76a3f569d40e0174be72fad87b11c8fd2828260405162000abc92919062001e79565b60405180910390a150505b808062000ad49062001eb3565b9150506200085f565b50565b600080620f424062000af76200150960201b60201c565b63ffffffff168462000b0a919062001ee2565b62000b16919062001f72565b9050600062000b2a6200154360201b60201c565b90508382111562000b9c5780600c54111562000b9657600081600c5462000b52919062001d32565b90506000858462000b64919062001d32565b90508181111562000b8957818662000b7d919062001c0f565b94505050505062000c0e565b8394505050505062000c0e565b62000c08565b8184111562000c0757600c5481111562000c06576000600c548262000bc2919062001d32565b90506000838662000bd4919062001d32565b90508181111562000bf957818662000bed919062001d32565b94505050505062000c0e565b8394505050505062000c0e565b5b5b83925050505b919050565b60008111801562000c2957506000600f80549050115b1562000e6e576000806000806101f46103e862000c51600f805490506200165460201b60201c565b62000c5d919062001faa565b141562000c7c5762000c746200169160201b60201c565b935062000de6565b60005b600a8160ff16101562000de4576000805b600a8160ff16101562000d9057600f8054905062000cb78260ff166200165460201b60201c565b62000cc3919062001faa565b9350600184111562000d7a57600f848154811062000ce65762000ce562001e05565b5b9060005260206000200160009054906101000a900473ffffffffffffffffffffffffffffffffffffffff169450600073ffffffffffffffffffffffffffffffffffffffff168573ffffffffffffffffffffffffffffffffffffffff161462000d795762000d5985620016bb60201b60201c565b955060008611801562000d6b57508186115b1562000d78578496508591505b5b5b808062000d879062001eb3565b91505062000c90565b50600073ffffffffffffffffffffffffffffffffffffffff168673ffffffffffffffffffffffffffffffffffffffff161462000dcd575062000de4565b50808062000ddb9062001eb3565b91505062000c7f565b505b600073ffffffffffffffffffffffffffffffffffffffff168473ffffffffffffffffffffffffffffffffffffffff161462000e695762000e2d84866200043660201b60201c565b7f7b7ccc0db87ceb0fcbd03f8d4dd950588bfe00bb478752f85e888dc8039a3cc7848660405162000e6092919062001e79565b60405180910390a15b505050505b50565b600062000e848462000eef60201b60201c565b9050600062000e998462000eef60201b60201c565b905081801562000ea65750805b8062000eaf5750805b1562000ecd5762000ec784846200170360201b60201c565b62000ee8565b811562000ee75762000ee685846200170360201b60201c565b5b5b5050505050565b600080601060008473ffffffffffffffffffffffffffffffffffffffff1673ffffffffffffffffffffffffffffffffffffffff16815260200190815260200160002054119050919050565b600062000f4d82620019a260201b60201c565b62000f5e83620016bb60201b60201c565b62000f6a919062001d32565b9050919050565b6000601060008373ffffffffffffffffffffffffffffffffffffffff1673ffffffffffffffffffffffffffffffffffffffff168152602001908152602001600020549050600181111562001021576000600f828154811062000fd85762000fd762001e05565b5b9060005260206000200160006101000a81548173ffffffffffffffffffffffffffffffffffffffff021916908373ffffffffffffffffffffffffffffffffffffffff1602179055505b6001601060008473ffffffffffffffffffffffffffffffffffffffff1673ffffffffffffffffffffffffffffffffffffffff168152602001908152602001600020819055505050565b6000601060008473ffffffffffffffffffffffffffffffffffffffff1673ffffffffffffffffffffffffffffffffffffffff1681526020019081526020016000205490506000811480620010c95750600181148015620010c8575081155b5b15620013135760006001905082620012be576000805b60648160ff1610156200122c576000600f80549050620011088360ff166200165460201b60201c565b62001114919062001faa565b905060018111156200121557600073ffffffffffffffffffffffffffffffffffffffff16600f82815481106200114f576200114e62001e05565b5b9060005260206000200160009054906101000a900473ffffffffffffffffffffffffffffffffffffffff1673ffffffffffffffffffffffffffffffffffffffff1614156200121457620011a76200027860201b60201c565b600f8281548110620011be57620011bd62001e05565b5b9060005260206000200160006101000a81548173ffffffffffffffffffffffffffffffffffffffff021916908373ffffffffffffffffffffffffffffffffffffffff16021790555060019250809350506200122c565b5b508080620012239062001eb3565b915050620010df565b5080620012bc57600f620012456200027860201b60201c565b9080600181540180825580915050600190039060005260206000200160009091909190916101000a81548173ffffffffffffffffffffffffffffffffffffffff021916908373ffffffffffffffffffffffffffffffffffffffff1602179055506001600f80549050620012b9919062001d32565b91505b505b8060106000620012d36200027860201b60201c565b73ffffffffffffffffffffffffffffffffffffffff1673ffffffffffffffffffffffffffffffffffffffff16815260200190815260200160002081905550505b505050565b600073ffffffffffffffffffffffffffffffffffffffff168273ffffffffffffffffffffffffffffffffffffffff1614156200138b576040517f08c379a0000000000000000000000000000000000000000000000000000000008152600401620013829062002058565b60405180910390fd5b6200139f82600083620005af60201b60201c565b60008060008473ffffffffffffffffffffffffffffffffffffffff1673ffffffffffffffffffffffffffffffffffffffff1681526020019081526020016000205490508181101562001428576040517f08c379a00000000000000000000000000000000000000000000000000000000081526004016200141f90620020f0565b60405180910390fd5b8181036000808573ffffffffffffffffffffffffffffffffffffffff1673ffffffffffffffffffffffffffffffffffffffff16815260200190815260200160002081905550816002600082825462001481919062001d32565b92505081905550600073ffffffffffffffffffffffffffffffffffffffff168373ffffffffffffffffffffffffffffffffffffffff167fddf252ad1be2c89b69c2b068fc378daa952ba7f163c4a11628f55a4df523b3ef84604051620014e8919062001c7d565b60405180910390a362001504836000846200085260201b60201c565b505050565b6000600760009054906101000a900460ff166200153957600760029054906101000a900463ffffffff166200153e565b620f42405b905090565b6000806000905060005b6009805490508160ff1610156200163057600073ffffffffffffffffffffffffffffffffffffffff1660098260ff168154811062001590576200158f62001e05565b5b906000526020600020906003020160010160009054906101000a900473ffffffffffffffffffffffffffffffffffffffff1673ffffffffffffffffffffffffffffffffffffffff16146200161a5760098160ff1681548110620015f857620015f762001e05565b5b9060005260206000209060030201600201548262001617919062001c0f565b91505b8080620016279062001eb3565b9150506200154d565b50806200164262001a9960201b60201c565b6200164e919062001d32565b91505090565b600060085444428460405160200162001671949392919062002137565b6040516020818303038152906040528051906020012060001c9050919050565b6000600560009054906101000a900473ffffffffffffffffffffffffffffffffffffffff16905090565b60008060008373ffffffffffffffffffffffffffffffffffffffff1673ffffffffffffffffffffffffffffffffffffffff168152602001908152602001600020549050919050565b6000805b6009805490508163ffffffff1610156200188d57600073ffffffffffffffffffffffffffffffffffffffff1660098263ffffffff168154811062001750576200174f62001e05565b5b906000526020600020906003020160010160009054906101000a900473ffffffffffffffffffffffffffffffffffffffff1673ffffffffffffffffffffffffffffffffffffffff16141562001877574360098263ffffffff1681548110620017bd57620017bc62001e05565b5b9060005260206000209060030201600001819055508360098263ffffffff1681548110620017f057620017ef62001e05565b5b906000526020600020906003020160010160006101000a81548173ffffffffffffffffffffffffffffffffffffffff021916908373ffffffffffffffffffffffffffffffffffffffff1602179055508260098263ffffffff16815481106200185d576200185c62001e05565b5b906000526020600020906003020160020181905550600191505b808062001884906200219d565b91505062001707565b50806200199d57600960405180606001604052804381526020018573ffffffffffffffffffffffffffffffffffffffff1681526020018481525090806001815401808255809150506001900390600052602060002090600302016000909190919091506000820151816000015560208201518160010160006101000a81548173ffffffffffffffffffffffffffffffffffffffff021916908373ffffffffffffffffffffffffffffffffffffffff160217905550604082015181600201555050603260ff1660098054905011156200199c576040517f08c379a000000000000000000000000000000000000000000000000000000000815260040162001993906200221f565b60405180910390fd5b5b505050565b6000806000905060005b6009805490508160ff16101562001a8f578373ffffffffffffffffffffffffffffffffffffffff1660098260ff1681548110620019ee57620019ed62001e05565b5b906000526020600020906003020160010160009054906101000a900473ffffffffffffffffffffffffffffffffffffffff1673ffffffffffffffffffffffffffffffffffffffff16141562001a795760098160ff168154811062001a575762001a5662001e05565b5b9060005260206000209060030201600201548262001a76919062001c0f565b91505b808062001a869062001eb3565b915050620019ac565b5080915050919050565b6000600254905090565b82805462001ab19062002270565b90600052602060002090601f01602090048101928262001ad5576000855562001b21565b82601f1062001af057805160ff191683800117855562001b21565b8280016001018555821562001b21579182015b8281111562001b2057825182559160200191906001019062001b03565b5b50905062001b30919062001b34565b5090565b5b8082111562001b4f57600081600090555060010162001b35565b5090565b600082825260208201905092915050565b7f45524332303a206d696e7420746f20746865207a65726f206164647265737300600082015250565b600062001b9c601f8362001b53565b915062001ba98262001b64565b602082019050919050565b6000602082019050818103600083015262001bcf8162001b8d565b9050919050565b6000819050919050565b7f4e487b7100000000000000000000000000000000000000000000000000000000600052601160045260246000fd5b600062001c1c8262001bd6565b915062001c298362001bd6565b9250827fffffffffffffffffffffffffffffffffffffffffffffffffffffffffffffffff0382111562001c615762001c6062001be0565b5b828201905092915050565b62001c778162001bd6565b82525050565b600060208201905062001c94600083018462001c6c565b92915050565b7f7472616e73666572206e6f7420616c6c6f77656420746f2074686520636f6e7460008201527f7261637420616464726573732028796f752772652077656c636f6d6529000000602082015250565b600062001cf8603d8362001b53565b915062001d058262001c9a565b604082019050919050565b6000602082019050818103600083015262001d2b8162001ce9565b9050919050565b600062001d3f8262001bd6565b915062001d4c8362001bd6565b92508282101562001d625762001d6162001be0565b5b828203905092915050565b7f7472616e7366657220616d6f756e742028696e636c7564696e672070656e646960008201527f6e67206465666c6174696f6e2920657863656564732062616c616e6365000000602082015250565b600062001dcb603d8362001b53565b915062001dd88262001d6d565b604082019050919050565b6000602082019050818103600083015262001dfe8162001dbc565b9050919050565b7f4e487b7100000000000000000000000000000000000000000000000000000000600052603260045260246000fd5b600073ffffffffffffffffffffffffffffffffffffffff82169050919050565b600062001e618262001e34565b9050919050565b62001e738162001e54565b82525050565b600060408201905062001e90600083018562001e68565b62001e9f602083018462001c6c565b9392505050565b600060ff82169050919050565b600062001ec08262001ea6565b915060ff82141562001ed75762001ed662001be0565b5b600182019050919050565b600062001eef8262001bd6565b915062001efc8362001bd6565b9250817fffffffffffffffffffffffffffffffffffffffffffffffffffffffffffffffff048311821515161562001f385762001f3762001be0565b5b828202905092915050565b7f4e487b7100000000000000000000000000000000000000000000000000000000600052601260045260246000fd5b600062001f7f8262001bd6565b915062001f8c8362001bd6565b92508262001f9f5762001f9e62001f43565b5b828204905092915050565b600062001fb78262001bd6565b915062001fc48362001bd6565b92508262001fd75762001fd662001f43565b5b828206905092915050565b7f45524332303a206275726e2066726f6d20746865207a65726f2061646472657360008201527f7300000000000000000000000000000000000000000000000000000000000000602082015250565b60006200204060218362001b53565b91506200204d8262001fe2565b604082019050919050565b60006020820190508181036000830152620020738162002031565b9050919050565b7f45524332303a206275726e20616d6f756e7420657863656564732062616c616e60008201527f6365000000000000000000000000000000000000000000000000000000000000602082015250565b6000620020d860228362001b53565b9150620020e5826200207a565b604082019050919050565b600060208201905081810360008301526200210b81620020c9565b9050919050565b6000819050919050565b620021316200212b8262001bd6565b62002112565b82525050565b60006200214582876200211c565b6020820191506200215782866200211c565b6020820191506200216982856200211c565b6020820191506200217b82846200211c565b60208201915081905095945050505050565b600063ffffffff82169050919050565b6000620021aa826200218d565b915063ffffffff821415620021c457620021c362001be0565b5b600182019050919050565b7f746f6f206d756368206465666c6174696f6e0000000000000000000000000000600082015250565b60006200220760128362001b53565b91506200221482620021cf565b602082019050919050565b600060208201905081810360008301526200223a81620021f8565b9050919050565b7f4e487b7100000000000000000000000000000000000000000000000000000000600052602260045260246000fd5b600060028204905060018216806200228957607f821691505b60208210811415620022a0576200229f62002241565b5b50919050565b60805160a051614474620022da600039600081816110580152611c550152600081816109c30152611c1901526144746000f3fe608060405234801561001057600080fd5b50600436106101e55760003560e01c8063715018a61161010f578063a9059cbb116100a2578063d477708211610071578063d477708214610589578063dd62ed3e146105a7578063f2fde38b146105d7578063f9ddf3ed146105f3576101e5565b8063a9059cbb146104ef578063b0eececc1461051f578063c90d301b14610529578063d1034cee14610559576101e5565b806393d6a086116100de57806393d6a0861461046757806394985ddd1461048557806395d89b41146104a1578063a457c2d7146104bf576101e5565b8063715018a6146104035780637fed827d1461040d5780638857856f1461042b5780638da5cb5b14610449576101e5565b8063313ce567116101875780635cc894db116101565780635cc894db1461036857806367073b94146103725780636e04ff0d146103a257806370a08231146103d3576101e5565b8063313ce567146102e057806339509351146102fe5780634585e33b1461032e578063512d6aab1461034a576101e5565b806318160ddd116101c357806318160ddd146102565780631fc356871461027457806323b872dd146102925780632d76a742146102c2576101e5565b806302387960146101ea57806306fdde0314610208578063095ea7b314610226575b600080fd5b6101f2610611565b6040516101ff9190612f40565b60405180910390f35b610210610628565b60405161021d9190612ff4565b60405180910390f35b610240600480360381019061023b91906130b4565b6106ba565b60405161024d9190612f40565b60405180910390f35b61025e6106d8565b60405161026b9190613103565b60405180910390f35b61027c6106e2565b6040516102899190613103565b60405180910390f35b6102ac60048036038101906102a7919061311e565b6107dc565b6040516102b99190612f40565b60405180910390f35b6102ca6108d4565b6040516102d79190612f40565b60405180910390f35b6102e86108eb565b6040516102f5919061318d565b60405180910390f35b610318600480360381019061031391906130b4565b6108f4565b6040516103259190612f40565b60405180910390f35b6103486004803603810190610343919061320d565b6109a0565b005b610352610aa6565b60405161035f9190612f40565b60405180910390f35b610370610dec565b005b61038c6004803603810190610387919061325a565b610ecc565b6040516103999190612f40565b60405180910390f35b6103bc60048036038101906103b7919061320d565b610f17565b6040516103ca9291906132dc565b60405180910390f35b6103ed60048036038101906103e8919061325a565b610f35565b6040516103fa9190613103565b60405180910390f35b61040b610f7d565b005b610415611005565b6040516104229190613103565b60405180910390f35b610433611013565b6040516104409190613103565b60405180910390f35b61045161101d565b60405161045e919061331b565b60405180910390f35b61046f611047565b60405161047c9190613103565b60405180910390f35b61049f600480360381019061049a919061336c565b611056565b005b6104a96110f2565b6040516104b69190612ff4565b60405180910390f35b6104d960048036038101906104d491906130b4565b611184565b6040516104e69190612f40565b60405180910390f35b610509600480360381019061050491906130b4565b61126f565b6040516105169190612f40565b60405180910390f35b61052761128d565b005b610543600480360381019061053e919061325a565b6114ec565b6040516105509190613103565b60405180910390f35b610573600480360381019061056e919061325a565b611511565b6040516105809190613103565b60405180910390f35b6105916115fb565b60405161059e91906133cb565b60405180910390f35b6105c160048036038101906105bc91906133e6565b611633565b6040516105ce9190613103565b60405180910390f35b6105f160048036038101906105ec919061325a565b6116ba565b005b6105fb6117b2565b6040516106089190613103565b60405180910390f35b600061062361061e6117c1565b610ecc565b905090565b60606003805461063790613455565b80601f016020809104026020016040519081016040528092919081815260200182805461066390613455565b80156106b05780601f10610685576101008083540402835291602001916106b0565b820191906000526020600020905b81548152906001019060200180831161069357829003601f168201915b5050505050905090565b60006106ce6106c76117c1565b84846117c9565b6001905092915050565b6000600254905090565b6000806000905060005b6009805490508160ff1610156107c257600073ffffffffffffffffffffffffffffffffffffffff1660098260ff168154811061072b5761072a613487565b5b906000526020600020906003020160010160009054906101000a900473ffffffffffffffffffffffffffffffffffffffff1673ffffffffffffffffffffffffffffffffffffffff16146107af5760098160ff168154811061078f5761078e613487565b5b906000526020600020906003020160020154826107ac91906134e5565b91505b80806107ba9061353b565b9150506106ec565b50806107cc6106d8565b6107d69190613565565b91505090565b60006107e9848484611994565b6000600160008673ffffffffffffffffffffffffffffffffffffffff1673ffffffffffffffffffffffffffffffffffffffff16815260200190815260200160002060006108346117c1565b73ffffffffffffffffffffffffffffffffffffffff1673ffffffffffffffffffffffffffffffffffffffff168152602001908152602001600020549050828110156108b4576040517f08c379a00000000000000000000000000000000000000000000000000000000081526004016108ab9061360b565b60405180910390fd5b6108c8856108c06117c1565b8584036117c9565b60019150509392505050565b6000600760009054906101000a900460ff16905090565b60006008905090565b60006109966109016117c1565b84846001600061090f6117c1565b73ffffffffffffffffffffffffffffffffffffffff1673ffffffffffffffffffffffffffffffffffffffff16815260200190815260200160002060008873ffffffffffffffffffffffffffffffffffffffff1673ffffffffffffffffffffffffffffffffffffffff1681526020019081526020016000205461099191906134e5565b6117c9565b6001905092915050565b6109a8610aa6565b50603b600e546109b891906134e5565b4210610aa2576012547f000000000000000000000000000000000000000000000000000000000000000073ffffffffffffffffffffffffffffffffffffffff166370a08231306040518263ffffffff1660e01b8152600401610a1a919061331b565b602060405180830381865afa158015610a37573d6000803e3d6000fd5b505050506040513d601f19601f82011682018060405250810190610a5b9190613640565b10610a7457610a6e601154601254611c15565b50610aa1565b7f01dfa6bc0693a95833988d39a4008583372f6f9b7ed55bfb11dad26b24a111d560405160405180910390a15b5b5050565b6000600760019054906101000a900460ff1615610b0f57603b600d54610acc91906134e5565b421015610b0e576040517f08c379a0000000000000000000000000000000000000000000000000000000008152600401610b05906136df565b60405180910390fd5b5b6000600b5490506000610b20611d68565b9050600080821315610b30578190505b600083821115610b4d578382610b469190613565565b9050610b5c565b8184610b599190613565565b90505b6000811115610c90576000808511610b75576064610b8e565b84606483610b8391906136ff565b610b8d9190613788565b5b905060148160ff161115610c4a57600760009054906101000a900460ff16610bcc576001600760006101000a81548160ff0219169083151502179055505b62093a8042610bdb9190613565565b600d541015610c0b5782600b819055506000600760006101000a81548160ff021916908315150217905550610c45565b7f67f806498a0163f4964f7f18395189bd3f7a12c4a7950989c5f38b591d0126734282604051610c3c9291906137b9565b60405180910390a15b610c8a565b82600b8190555042600d81905550600760009054906101000a900460ff1615610c89576000600760006101000a81548160ff0219169083151502179055505b5b50610cc2565b600760009054906101000a900460ff1615610cc1576000600760006101000a81548160ff0219169083151502179055505b5b600760009054906101000a900460ff1615610ce4576000945050505050610de9565b620f4240660775f05a074000650464cc403280620f4240600b54610d0891906136ff565b610d129190613788565b610d1c91906136ff565b610d269190613788565b600c81905550610d80610d77620f424080610d3f6106e2565b620f4240600c54610d5091906136ff565b610d5a9190613788565b610d6491906136ff565b610d6e9190613788565b62100590611e50565b620e7ef0611e69565b600760026101000a81548163ffffffff021916908363ffffffff1602179055507fa0b79167ca082d6e3e6dc08b7ecc1d70db5f13620b5d1e2c277b47767405738342610dca6115fb565b604051610dd89291906137e2565b60405180910390a160019450505050505b90565b610df461101d565b73ffffffffffffffffffffffffffffffffffffffff16610e126117c1565b73ffffffffffffffffffffffffffffffffffffffff161415610e69576040517f08c379a0000000000000000000000000000000000000000000000000000000008152600401610e609061387d565b60405180910390fd5b610e8c610e746117c1565b6000610e86610e816117c1565b6114ec565b14611e83565b7fad2644799d22ccf482d35b38cc8c8c4ff4b7192df5f0e76b2c9c63a55b5be151610eb56117c1565b604051610ec2919061331b565b60405180910390a1565b600080601060008473ffffffffffffffffffffffffffffffffffffffff1673ffffffffffffffffffffffffffffffffffffffff16815260200190815260200160002054119050919050565b60006060603c600d54610f2a91906134e5565b421191509250929050565b60008060008373ffffffffffffffffffffffffffffffffffffffff1673ffffffffffffffffffffffffffffffffffffffff168152602001908152602001600020549050919050565b610f856117c1565b73ffffffffffffffffffffffffffffffffffffffff16610fa361101d565b73ffffffffffffffffffffffffffffffffffffffff1614610ff9576040517f08c379a0000000000000000000000000000000000000000000000000000000008152600401610ff0906138e9565b60405180910390fd5b61100360006120fb565b565b6000650464cc403280905090565b6000600c54905090565b6000600560009054906101000a900473ffffffffffffffffffffffffffffffffffffffff16905090565b6000660775f05a074000905090565b7f000000000000000000000000000000000000000000000000000000000000000073ffffffffffffffffffffffffffffffffffffffff163373ffffffffffffffffffffffffffffffffffffffff16146110e4576040517f08c379a00000000000000000000000000000000000000000000000000000000081526004016110db90613955565b60405180910390fd5b6110ee82826121c1565b5050565b60606004805461110190613455565b80601f016020809104026020016040519081016040528092919081815260200182805461112d90613455565b801561117a5780601f1061114f5761010080835404028352916020019161117a565b820191906000526020600020905b81548152906001019060200180831161115d57829003601f168201915b5050505050905090565b600080600160006111936117c1565b73ffffffffffffffffffffffffffffffffffffffff1673ffffffffffffffffffffffffffffffffffffffff16815260200190815260200160002060008573ffffffffffffffffffffffffffffffffffffffff1673ffffffffffffffffffffffffffffffffffffffff16815260200190815260200160002054905082811015611250576040517f08c379a0000000000000000000000000000000000000000000000000000000008152600401611247906139e7565b60405180910390fd5b61126461125b6117c1565b858584036117c9565b600191505092915050565b600061128361127c6117c1565b8484611994565b6001905092915050565b60005b6009805490508160ff1610156114e957600073ffffffffffffffffffffffffffffffffffffffff1660098260ff16815481106112cf576112ce613487565b5b906000526020600020906003020160010160009054906101000a900473ffffffffffffffffffffffffffffffffffffffff1673ffffffffffffffffffffffffffffffffffffffff161415801561134d57504360098260ff168154811061133857611337613487565b5b90600052602060002090600302016000015414155b156114d657600060098260ff168154811061136b5761136a613487565b5b906000526020600020906003020160010160009054906101000a900473ffffffffffffffffffffffffffffffffffffffff169050600060098360ff16815481106113b8576113b7613487565b5b9060005260206000209060030201600201549050600060098460ff16815481106113e5576113e4613487565b5b906000526020600020906003020160010160006101000a81548173ffffffffffffffffffffffffffffffffffffffff021916908373ffffffffffffffffffffffffffffffffffffffff160217905550600060098460ff168154811061144d5761144c613487565b5b906000526020600020906003020160020181905550600060098460ff168154811061147b5761147a613487565b5b90600052602060002090600302016000018190555061149a828261220e565b7fd0ee2fa2f967719a2568b137516c9af76a3f569d40e0174be72fad87b11c8fd282826040516114cb929190613a07565b60405180910390a150505b80806114e19061353b565b915050611290565b50565b60006114f782611511565b61150083610f35565b61150a9190613565565b9050919050565b6000806000905060005b6009805490508160ff1610156115f1578373ffffffffffffffffffffffffffffffffffffffff1660098260ff168154811061155957611558613487565b5b906000526020600020906003020160010160009054906101000a900473ffffffffffffffffffffffffffffffffffffffff1673ffffffffffffffffffffffffffffffffffffffff1614156115de5760098160ff16815481106115be576115bd613487565b5b906000526020600020906003020160020154826115db91906134e5565b91505b80806115e99061353b565b91505061151b565b5080915050919050565b6000600760009054906101000a900460ff1661162957600760029054906101000a900463ffffffff1661162e565b620f42405b905090565b6000600160008473ffffffffffffffffffffffffffffffffffffffff1673ffffffffffffffffffffffffffffffffffffffff16815260200190815260200160002060008373ffffffffffffffffffffffffffffffffffffffff1673ffffffffffffffffffffffffffffffffffffffff16815260200190815260200160002054905092915050565b6116c26117c1565b73ffffffffffffffffffffffffffffffffffffffff166116e061101d565b73ffffffffffffffffffffffffffffffffffffffff1614611736576040517f08c379a000000000000000000000000000000000000000000000000000000000815260040161172d906138e9565b60405180910390fd5b600073ffffffffffffffffffffffffffffffffffffffff168173ffffffffffffffffffffffffffffffffffffffff1614156117a6576040517f08c379a000000000000000000000000000000000000000000000000000000000815260040161179d90613aa2565b60405180910390fd5b6117af816120fb565b50565b6000600b54905090565b505050565b600033905090565b600073ffffffffffffffffffffffffffffffffffffffff168373ffffffffffffffffffffffffffffffffffffffff161415611839576040517f08c379a000000000000000000000000000000000000000000000000000000000815260040161183090613b34565b60405180910390fd5b600073ffffffffffffffffffffffffffffffffffffffff168273ffffffffffffffffffffffffffffffffffffffff1614156118a9576040517f08c379a00000000000000000000000000000000000000000000000000000000081526004016118a090613bc6565b60405180910390fd5b80600160008573ffffffffffffffffffffffffffffffffffffffff1673ffffffffffffffffffffffffffffffffffffffff16815260200190815260200160002060008473ffffffffffffffffffffffffffffffffffffffff1673ffffffffffffffffffffffffffffffffffffffff168152602001908152602001600020819055508173ffffffffffffffffffffffffffffffffffffffff168373ffffffffffffffffffffffffffffffffffffffff167f8c5be1e5ebec7d5bd14f71427d1e84f3dd0314c0f7b2291e5b200ac8c7c3b925836040516119879190613103565b60405180910390a3505050565b600073ffffffffffffffffffffffffffffffffffffffff168373ffffffffffffffffffffffffffffffffffffffff161415611a04576040517f08c379a00000000000000000000000000000000000000000000000000000000081526004016119fb90613c58565b60405180910390fd5b600073ffffffffffffffffffffffffffffffffffffffff168273ffffffffffffffffffffffffffffffffffffffff161415611a74576040517f08c379a0000000000000000000000000000000000000000000000000000000008152600401611a6b90613cea565b60405180910390fd5b611a7f8383836123e5565b60008060008573ffffffffffffffffffffffffffffffffffffffff1673ffffffffffffffffffffffffffffffffffffffff16815260200190815260200160002054905081811015611b05576040517f08c379a0000000000000000000000000000000000000000000000000000000008152600401611afc90613d7c565b60405180910390fd5b8181036000808673ffffffffffffffffffffffffffffffffffffffff1673ffffffffffffffffffffffffffffffffffffffff16815260200190815260200160002081905550816000808573ffffffffffffffffffffffffffffffffffffffff1673ffffffffffffffffffffffffffffffffffffffff1681526020019081526020016000206000828254611b9891906134e5565b925050819055508273ffffffffffffffffffffffffffffffffffffffff168473ffffffffffffffffffffffffffffffffffffffff167fddf252ad1be2c89b69c2b068fc378daa952ba7f163c4a11628f55a4df523b3ef84604051611bfc9190613103565b60405180910390a3611c0f84848461261c565b50505050565b60007f000000000000000000000000000000000000000000000000000000000000000073ffffffffffffffffffffffffffffffffffffffff16634000aea07f000000000000000000000000000000000000000000000000000000000000000084866000604051602001611c89929190613dab565b6040516020818303038152906040526040518463ffffffff1660e01b8152600401611cb693929190613dd4565b6020604051808303816000875af1158015611cd5573d6000803e3d6000fd5b505050506040513d601f19601f82011682018060405250810190611cf99190613e3e565b506000611d1c846000306006600089815260200190815260200160002054612621565b905060016006600086815260200190815260200160002054611d3e91906134e5565b6006600086815260200190815260200160002081905550611d5f848261265d565b91505092915050565b600080600080600080600a60009054906101000a900473ffffffffffffffffffffffffffffffffffffffff1673ffffffffffffffffffffffffffffffffffffffff1663feaf968c6040518163ffffffff1660e01b815260040160a060405180830381865afa158015611dde573d6000803e3d6000fd5b505050506040513d601f19601f82011682018060405250810190611e029190613ee3565b945094509450945094507f84346e4eb9a9c51c338a375ef4faeceb72f1c95e46924ac64856598ba0c8c6c94285604051611e3d929190613f6d565b60405180910390a1839550505050505090565b6000818310611e5f5781611e61565b825b905092915050565b600081831015611e795781611e7b565b825b905092915050565b6000601060008473ffffffffffffffffffffffffffffffffffffffff1673ffffffffffffffffffffffffffffffffffffffff1681526020019081526020016000205490506000811480611ee05750600181148015611edf575081155b5b156120f657600060019050826120a9576000805b60648160ff161015612022576000600f80549050611f148360ff16612690565b611f1e9190613f96565b9050600181111561200e57600073ffffffffffffffffffffffffffffffffffffffff16600f8281548110611f5557611f54613487565b5b9060005260206000200160009054906101000a900473ffffffffffffffffffffffffffffffffffffffff1673ffffffffffffffffffffffffffffffffffffffff16141561200d57611fa46117c1565b600f8281548110611fb857611fb7613487565b5b9060005260206000200160006101000a81548173ffffffffffffffffffffffffffffffffffffffff021916908373ffffffffffffffffffffffffffffffffffffffff1602179055506001925080935050612022565b5b50808061201a9061353b565b915050611ef4565b50806120a757600f6120326117c1565b9080600181540180825580915050600190039060005260206000200160009091909190916101000a81548173ffffffffffffffffffffffffffffffffffffffff021916908373ffffffffffffffffffffffffffffffffffffffff1602179055506001600f805490506120a49190613565565b91505b505b80601060006120b66117c1565b73ffffffffffffffffffffffffffffffffffffffff1673ffffffffffffffffffffffffffffffffffffffff16815260200190815260200160002081905550505b505050565b6000600560009054906101000a900473ffffffffffffffffffffffffffffffffffffffff16905081600560006101000a81548173ffffffffffffffffffffffffffffffffffffffff021916908373ffffffffffffffffffffffffffffffffffffffff1602179055508173ffffffffffffffffffffffffffffffffffffffff168173ffffffffffffffffffffffffffffffffffffffff167f8be0079c531659141344cd1fd0a4f28419497f9722a3daafe3b4186f6b6457e060405160405180910390a35050565b8060088190555042600e819055507fd0703bbe30c41149f7daedd23cc40f5f945d3a419378a7a62069c9d0e782299242600854604051612202929190613fc7565b60405180910390a15050565b600073ffffffffffffffffffffffffffffffffffffffff168273ffffffffffffffffffffffffffffffffffffffff16141561227e576040517f08c379a000000000000000000000000000000000000000000000000000000000815260040161227590614062565b60405180910390fd5b61228a826000836123e5565b60008060008473ffffffffffffffffffffffffffffffffffffffff1673ffffffffffffffffffffffffffffffffffffffff16815260200190815260200160002054905081811015612310576040517f08c379a0000000000000000000000000000000000000000000000000000000008152600401612307906140f4565b60405180910390fd5b8181036000808573ffffffffffffffffffffffffffffffffffffffff1673ffffffffffffffffffffffffffffffffffffffff1681526020019081526020016000208190555081600260008282546123679190613565565b92505081905550600073ffffffffffffffffffffffffffffffffffffffff168373ffffffffffffffffffffffffffffffffffffffff167fddf252ad1be2c89b69c2b068fc378daa952ba7f163c4a11628f55a4df523b3ef846040516123cc9190613103565b60405180910390a36123e08360008461261c565b505050565b6123f08383836117bc565b600073ffffffffffffffffffffffffffffffffffffffff168373ffffffffffffffffffffffffffffffffffffffff161415801561245a5750600073ffffffffffffffffffffffffffffffffffffffff168273ffffffffffffffffffffffffffffffffffffffff1614155b801561249257508173ffffffffffffffffffffffffffffffffffffffff168373ffffffffffffffffffffffffffffffffffffffff1614155b801561249e5750600081115b15612617576124ab61128d565b3073ffffffffffffffffffffffffffffffffffffffff168273ffffffffffffffffffffffffffffffffffffffff16141561251a576040517f08c379a000000000000000000000000000000000000000000000000000000000815260040161251190614186565b60405180910390fd5b600760009054906101000a900460ff1661257e576000612539826126cb565b90508181111561255c5761255782826125529190613565565b6127d3565b61257c565b8082111561257b5761257a848483856125759190613565565b6129ed565b5b5b505b61258783610ecc565b156125fc576000612597846114ec565b9050818110156125dc576040517f08c379a00000000000000000000000000000000000000000000000000000000081526004016125d390614218565b60405180910390fd5b600082826125ea9190613565565b14156125fa576125f984612a46565b5b505b61260582610ecc565b1561261657612615826000611e83565b5b5b505050565b505050565b60008484848460405160200161263a9493929190614238565b6040516020818303038152906040528051906020012060001c9050949350505050565b600082826040516020016126729291906142bf565b60405160208183030381529060405280519060200120905092915050565b60006008544442846040516020016126ab94939291906142eb565b6040516020818303038152906040528051906020012060001c9050919050565b600080620f42406126da6115fb565b63ffffffff16846126eb91906136ff565b6126f59190613788565b905060006127016106e2565b9050838211156127675780600c54111561276257600081600c546127259190613565565b9050600085846127359190613565565b90508181111561275657818661274b91906134e5565b9450505050506127ce565b839450505050506127ce565b6127c8565b818411156127c757600c548111156127c6576000600c54826127899190613565565b9050600083866127999190613565565b9050818111156127ba5781866127af9190613565565b9450505050506127ce565b839450505050506127ce565b5b5b83925050505b919050565b6000811180156127e857506000600f80549050115b156129ea576000806000806101f46103e8612807600f80549050612690565b6128119190613f96565b14156128265761281f61101d565b935061296d565b60005b600a8160ff16101561296b576000805b600a8160ff16101561291c57600f805490506128578260ff16612690565b6128619190613f96565b9350600184111561290957600f84815481106128805761287f613487565b5b9060005260206000200160009054906101000a900473ffffffffffffffffffffffffffffffffffffffff169450600073ffffffffffffffffffffffffffffffffffffffff168573ffffffffffffffffffffffffffffffffffffffff1614612908576128ea85610f35565b95506000861180156128fb57508186115b15612907578496508591505b5b5b80806129149061353b565b915050612839565b50600073ffffffffffffffffffffffffffffffffffffffff168673ffffffffffffffffffffffffffffffffffffffff1614612957575061296b565b5080806129639061353b565b915050612829565b505b600073ffffffffffffffffffffffffffffffffffffffff168473ffffffffffffffffffffffffffffffffffffffff16146129e5576129ab8486612b3b565b7f7b7ccc0db87ceb0fcbd03f8d4dd950588bfe00bb478752f85e888dc8039a3cc784866040516129dc929190613a07565b60405180910390a15b505050505b50565b60006129f884610ecc565b90506000612a0584610ecc565b9050818015612a115750805b80612a195750805b15612a2d57612a288484612c9b565b612a3f565b8115612a3e57612a3d8584612c9b565b5b5b5050505050565b6000601060008373ffffffffffffffffffffffffffffffffffffffff1673ffffffffffffffffffffffffffffffffffffffff1681526020019081526020016000205490506001811115612af2576000600f8281548110612aa957612aa8613487565b5b9060005260206000200160006101000a81548173ffffffffffffffffffffffffffffffffffffffff021916908373ffffffffffffffffffffffffffffffffffffffff1602179055505b6001601060008473ffffffffffffffffffffffffffffffffffffffff1673ffffffffffffffffffffffffffffffffffffffff168152602001908152602001600020819055505050565b600073ffffffffffffffffffffffffffffffffffffffff168273ffffffffffffffffffffffffffffffffffffffff161415612bab576040517f08c379a0000000000000000000000000000000000000000000000000000000008152600401612ba290614385565b60405180910390fd5b612bb7600083836123e5565b8060026000828254612bc991906134e5565b92505081905550806000808473ffffffffffffffffffffffffffffffffffffffff1673ffffffffffffffffffffffffffffffffffffffff1681526020019081526020016000206000828254612c1e91906134e5565b925050819055508173ffffffffffffffffffffffffffffffffffffffff16600073ffffffffffffffffffffffffffffffffffffffff167fddf252ad1be2c89b69c2b068fc378daa952ba7f163c4a11628f55a4df523b3ef83604051612c839190613103565b60405180910390a3612c976000838361261c565b5050565b6000805b6009805490508163ffffffff161015612e1457600073ffffffffffffffffffffffffffffffffffffffff1660098263ffffffff1681548110612ce457612ce3613487565b5b906000526020600020906003020160010160009054906101000a900473ffffffffffffffffffffffffffffffffffffffff1673ffffffffffffffffffffffffffffffffffffffff161415612e01574360098263ffffffff1681548110612d4d57612d4c613487565b5b9060005260206000209060030201600001819055508360098263ffffffff1681548110612d7d57612d7c613487565b5b906000526020600020906003020160010160006101000a81548173ffffffffffffffffffffffffffffffffffffffff021916908373ffffffffffffffffffffffffffffffffffffffff1602179055508260098263ffffffff1681548110612de757612de6613487565b5b906000526020600020906003020160020181905550600191505b8080612e0c906143a5565b915050612c9f565b5080612f2057600960405180606001604052804381526020018573ffffffffffffffffffffffffffffffffffffffff1681526020018481525090806001815401808255809150506001900390600052602060002090600302016000909190919091506000820151816000015560208201518160010160006101000a81548173ffffffffffffffffffffffffffffffffffffffff021916908373ffffffffffffffffffffffffffffffffffffffff160217905550604082015181600201555050603260ff166009805490501115612f1f576040517f08c379a0000000000000000000000000000000000000000000000000000000008152600401612f169061441e565b60405180910390fd5b5b505050565b60008115159050919050565b612f3a81612f25565b82525050565b6000602082019050612f556000830184612f31565b92915050565b600081519050919050565b600082825260208201905092915050565b60005b83811015612f95578082015181840152602081019050612f7a565b83811115612fa4576000848401525b50505050565b6000601f19601f8301169050919050565b6000612fc682612f5b565b612fd08185612f66565b9350612fe0818560208601612f77565b612fe981612faa565b840191505092915050565b6000602082019050818103600083015261300e8184612fbb565b905092915050565b600080fd5b600080fd5b600073ffffffffffffffffffffffffffffffffffffffff82169050919050565b600061304b82613020565b9050919050565b61305b81613040565b811461306657600080fd5b50565b60008135905061307881613052565b92915050565b6000819050919050565b6130918161307e565b811461309c57600080fd5b50565b6000813590506130ae81613088565b92915050565b600080604083850312156130cb576130ca613016565b5b60006130d985828601613069565b92505060206130ea8582860161309f565b9150509250929050565b6130fd8161307e565b82525050565b600060208201905061311860008301846130f4565b92915050565b60008060006060848603121561313757613136613016565b5b600061314586828701613069565b935050602061315686828701613069565b92505060406131678682870161309f565b9150509250925092565b600060ff82169050919050565b61318781613171565b82525050565b60006020820190506131a2600083018461317e565b92915050565b600080fd5b600080fd5b600080fd5b60008083601f8401126131cd576131cc6131a8565b5b8235905067ffffffffffffffff8111156131ea576131e96131ad565b5b602083019150836001820283011115613206576132056131b2565b5b9250929050565b6000806020838503121561322457613223613016565b5b600083013567ffffffffffffffff8111156132425761324161301b565b5b61324e858286016131b7565b92509250509250929050565b6000602082840312156132705761326f613016565b5b600061327e84828501613069565b91505092915050565b600081519050919050565b600082825260208201905092915050565b60006132ae82613287565b6132b88185613292565b93506132c8818560208601612f77565b6132d181612faa565b840191505092915050565b60006040820190506132f16000830185612f31565b818103602083015261330381846132a3565b90509392505050565b61331581613040565b82525050565b6000602082019050613330600083018461330c565b92915050565b6000819050919050565b61334981613336565b811461335457600080fd5b50565b60008135905061336681613340565b92915050565b6000806040838503121561338357613382613016565b5b600061339185828601613357565b92505060206133a28582860161309f565b9150509250929050565b600063ffffffff82169050919050565b6133c5816133ac565b82525050565b60006020820190506133e060008301846133bc565b92915050565b600080604083850312156133fd576133fc613016565b5b600061340b85828601613069565b925050602061341c85828601613069565b9150509250929050565b7f4e487b7100000000000000000000000000000000000000000000000000000000600052602260045260246000fd5b6000600282049050600182168061346d57607f821691505b6020821081141561348157613480613426565b5b50919050565b7f4e487b7100000000000000000000000000000000000000000000000000000000600052603260045260246000fd5b7f4e487b7100000000000000000000000000000000000000000000000000000000600052601160045260246000fd5b60006134f08261307e565b91506134fb8361307e565b9250827fffffffffffffffffffffffffffffffffffffffffffffffffffffffffffffffff038211156135305761352f6134b6565b5b828201905092915050565b600061354682613171565b915060ff82141561355a576135596134b6565b5b600182019050919050565b60006135708261307e565b915061357b8361307e565b92508282101561358e5761358d6134b6565b5b828203905092915050565b7f45524332303a207472616e7366657220616d6f756e742065786365656473206160008201527f6c6c6f77616e6365000000000000000000000000000000000000000000000000602082015250565b60006135f5602883612f66565b915061360082613599565b604082019050919050565b60006020820190508181036000830152613624816135e8565b9050919050565b60008151905061363a81613088565b92915050565b60006020828403121561365657613655613016565b5b60006136648482850161362b565b91505092915050565b7f757064617465496e666c6174696f6e4465666c6174696f6e526174653a20636160008201527f6e206f6e6c792062652063616c6c6564206f6e636520706572206d696e757465602082015250565b60006136c9604083612f66565b91506136d48261366d565b604082019050919050565b600060208201905081810360008301526136f8816136bc565b9050919050565b600061370a8261307e565b91506137158361307e565b9250817fffffffffffffffffffffffffffffffffffffffffffffffffffffffffffffffff048311821515161561374e5761374d6134b6565b5b828202905092915050565b7f4e487b7100000000000000000000000000000000000000000000000000000000600052601260045260246000fd5b60006137938261307e565b915061379e8361307e565b9250826137ae576137ad613759565b5b828204905092915050565b60006040820190506137ce60008301856130f4565b6137db602083018461317e565b9392505050565b60006040820190506137f760008301856130f4565b61380460208301846133bc565b9392505050565b7f746865206f776e6572206163636f756e74206973206e6f7420616c6c6f77656460008201527f20746f20656e61626c6520696e666c6174696f6e2f6465666c6174696f6e0000602082015250565b6000613867603e83612f66565b91506138728261380b565b604082019050919050565b600060208201905081810360008301526138968161385a565b9050919050565b7f4f776e61626c653a2063616c6c6572206973206e6f7420746865206f776e6572600082015250565b60006138d3602083612f66565b91506138de8261389d565b602082019050919050565b60006020820190508181036000830152613902816138c6565b9050919050565b7f4f6e6c7920565246436f6f7264696e61746f722063616e2066756c66696c6c00600082015250565b600061393f601f83612f66565b915061394a82613909565b602082019050919050565b6000602082019050818103600083015261396e81613932565b9050919050565b7f45524332303a2064656372656173656420616c6c6f77616e63652062656c6f7760008201527f207a65726f000000000000000000000000000000000000000000000000000000602082015250565b60006139d1602583612f66565b91506139dc82613975565b604082019050919050565b60006020820190508181036000830152613a00816139c4565b9050919050565b6000604082019050613a1c600083018561330c565b613a2960208301846130f4565b9392505050565b7f4f776e61626c653a206e6577206f776e657220697320746865207a65726f206160008201527f6464726573730000000000000000000000000000000000000000000000000000602082015250565b6000613a8c602683612f66565b9150613a9782613a30565b604082019050919050565b60006020820190508181036000830152613abb81613a7f565b9050919050565b7f45524332303a20617070726f76652066726f6d20746865207a65726f2061646460008201527f7265737300000000000000000000000000000000000000000000000000000000602082015250565b6000613b1e602483612f66565b9150613b2982613ac2565b604082019050919050565b60006020820190508181036000830152613b4d81613b11565b9050919050565b7f45524332303a20617070726f766520746f20746865207a65726f20616464726560008201527f7373000000000000000000000000000000000000000000000000000000000000602082015250565b6000613bb0602283612f66565b9150613bbb82613b54565b604082019050919050565b60006020820190508181036000830152613bdf81613ba3565b9050919050565b7f45524332303a207472616e736665722066726f6d20746865207a65726f20616460008201527f6472657373000000000000000000000000000000000000000000000000000000602082015250565b6000613c42602583612f66565b9150613c4d82613be6565b604082019050919050565b60006020820190508181036000830152613c7181613c35565b9050919050565b7f45524332303a207472616e7366657220746f20746865207a65726f206164647260008201527f6573730000000000000000000000000000000000000000000000000000000000602082015250565b6000613cd4602383612f66565b9150613cdf82613c78565b604082019050919050565b60006020820190508181036000830152613d0381613cc7565b9050919050565b7f45524332303a207472616e7366657220616d6f756e742065786365656473206260008201527f616c616e63650000000000000000000000000000000000000000000000000000602082015250565b6000613d66602683612f66565b9150613d7182613d0a565b604082019050919050565b60006020820190508181036000830152613d9581613d59565b9050919050565b613da581613336565b82525050565b6000604082019050613dc06000830185613d9c565b613dcd60208301846130f4565b9392505050565b6000606082019050613de9600083018661330c565b613df660208301856130f4565b8181036040830152613e0881846132a3565b9050949350505050565b613e1b81612f25565b8114613e2657600080fd5b50565b600081519050613e3881613e12565b92915050565b600060208284031215613e5457613e53613016565b5b6000613e6284828501613e29565b91505092915050565b600069ffffffffffffffffffff82169050919050565b613e8a81613e6b565b8114613e9557600080fd5b50565b600081519050613ea781613e81565b92915050565b6000819050919050565b613ec081613ead565b8114613ecb57600080fd5b50565b600081519050613edd81613eb7565b92915050565b600080600080600060a08688031215613eff57613efe613016565b5b6000613f0d88828901613e98565b9550506020613f1e88828901613ece565b9450506040613f2f8882890161362b565b9350506060613f408882890161362b565b9250506080613f5188828901613e98565b9150509295509295909350565b613f6781613ead565b82525050565b6000604082019050613f8260008301856130f4565b613f8f6020830184613f5e565b9392505050565b6000613fa18261307e565b9150613fac8361307e565b925082613fbc57613fbb613759565b5b828206905092915050565b6000604082019050613fdc60008301856130f4565b613fe960208301846130f4565b9392505050565b7f45524332303a206275726e2066726f6d20746865207a65726f2061646472657360008201527f7300000000000000000000000000000000000000000000000000000000000000602082015250565b600061404c602183612f66565b915061405782613ff0565b604082019050919050565b6000602082019050818103600083015261407b8161403f565b9050919050565b7f45524332303a206275726e20616d6f756e7420657863656564732062616c616e60008201527f6365000000000000000000000000000000000000000000000000000000000000602082015250565b60006140de602283612f66565b91506140e982614082565b604082019050919050565b6000602082019050818103600083015261410d816140d1565b9050919050565b7f7472616e73666572206e6f7420616c6c6f77656420746f2074686520636f6e7460008201527f7261637420616464726573732028796f752772652077656c636f6d6529000000602082015250565b6000614170603d83612f66565b915061417b82614114565b604082019050919050565b6000602082019050818103600083015261419f81614163565b9050919050565b7f7472616e7366657220616d6f756e742028696e636c7564696e672070656e646960008201527f6e67206465666c6174696f6e2920657863656564732062616c616e6365000000602082015250565b6000614202603d83612f66565b915061420d826141a6565b604082019050919050565b60006020820190508181036000830152614231816141f5565b9050919050565b600060808201905061424d6000830187613d9c565b61425a60208301866130f4565b614267604083018561330c565b61427460608301846130f4565b95945050505050565b6000819050919050565b61429861429382613336565b61427d565b82525050565b6000819050919050565b6142b96142b48261307e565b61429e565b82525050565b60006142cb8285614287565b6020820191506142db82846142a8565b6020820191508190509392505050565b60006142f782876142a8565b60208201915061430782866142a8565b60208201915061431782856142a8565b60208201915061432782846142a8565b60208201915081905095945050505050565b7f45524332303a206d696e7420746f20746865207a65726f206164647265737300600082015250565b600061436f601f83612f66565b915061437a82614339565b602082019050919050565b6000602082019050818103600083015261439e81614362565b9050919050565b60006143b0826133ac565b915063ffffffff8214156143c7576143c66134b6565b5b600182019050919050565b7f746f6f206d756368206465666c6174696f6e0000000000000000000000000000600082015250565b6000614408601283612f66565b9150614413826143d2565b602082019050919050565b60006020820190508181036000830152614437816143fb565b905091905056fea2646970667358221220db2d99b390c4e080168c0ea55a433bd3340d4bffc2bde1f463e964b55bd93a1064736f6c634300080a0033",
  "immutableReferences": {
    "73": [
      {
        "length": 32,
        "start": 2499
      },
      {
        "length": 32,
        "start": 7193
      }
    ],
    "75": [
      {
        "length": 32,
        "start": 4184
      },
      {
        "length": 32,
        "start": 7253
      }
    ]
  },
  "source": "pragma solidity ^0.8.10;\n\nimport \"./BearcoinBase.sol\";\n\ncontract DevBearcoin is BearcoinBase {\n  event DebugUint265(uint256 value);\n  event DebugAddress(address value);\n\n  constructor() ERC20(\"BTC Bearcoin\", \"BTCBEAR\") VRFConsumerBase(\n        0x3d2341ADb2D31f1c5530cDC622016af293177AE0, // VRF Coordinator\n        0xb0897686c545045aFc77CF20eC7A532E3120E0F1  // LINK Token\n    )\n  {\n    _priceFeed = AggregatorV3Interface(0x007A22900a3B98143368Bd5906f8E17e9867581b);  //Polygon Testnet BTC / USD\n\n    //Randomness\n    s_keyHash = 0x6e75b569a01ef56d18cab6a8e71e6600d6ce853834d4a5748b720d06f878b3a4;\n\n\n    onDeploy();\n  }\n}",
  "sourcePath": "/Users/james/Projects/bearcoin/contracts/DevBearcoin.sol",
  "compiler": {
    "name": "solc",
    "version": "0.8.10+commit.fc410830.Emscripten.clang"
  },
  "schemaVersion": "3.4.4",
  "updatedAt": "2022-01-28T01:30:13.734Z",
  "networkType": "ethereum",
  "devdoc": {
    "kind": "dev",
    "methods": {
      "allowance(address,address)": {
        "details": "See {IERC20-allowance}."
      },
      "approve(address,uint256)": {
        "details": "See {IERC20-approve}. Requirements: - `spender` cannot be the zero address."
      },
      "balanceOf(address)": {
        "details": "See {IERC20-balanceOf}."
      },
      "decimals()": {
        "details": "Returns the number of decimals used to get its user representation. For example, if `decimals` equals `2`, a balance of `505` tokens should be displayed to a user as `5.05` (`505 / 10 ** 2`). Tokens usually opt for a value of 18, imitating the relationship between Ether and Wei. This is the value {ERC20} uses, unless this function is overridden; NOTE: This information is only used for _display_ purposes: it in no way affects any of the arithmetic of the contract, including {IERC20-balanceOf} and {IERC20-transfer}."
      },
      "decreaseAllowance(address,uint256)": {
        "details": "Atomically decreases the allowance granted to `spender` by the caller. This is an alternative to {approve} that can be used as a mitigation for problems described in {IERC20-approve}. Emits an {Approval} event indicating the updated allowance. Requirements: - `spender` cannot be the zero address. - `spender` must have allowance for the caller of at least `subtractedValue`."
      },
      "increaseAllowance(address,uint256)": {
        "details": "Atomically increases the allowance granted to `spender` by the caller. This is an alternative to {approve} that can be used as a mitigation for problems described in {IERC20-approve}. Emits an {Approval} event indicating the updated allowance. Requirements: - `spender` cannot be the zero address."
      },
      "name()": {
        "details": "Returns the name of the token."
      },
      "owner()": {
        "details": "Returns the address of the current owner."
      },
      "renounceOwnership()": {
        "details": "Leaves the contract without owner. It will not be possible to call `onlyOwner` functions anymore. Can only be called by the current owner. NOTE: Renouncing ownership will leave the contract without an owner, thereby removing any functionality that is only available to the owner."
      },
      "symbol()": {
        "details": "Returns the symbol of the token, usually a shorter version of the name."
      },
      "totalSupply()": {
        "details": "See {IERC20-totalSupply}."
      },
      "transfer(address,uint256)": {
        "details": "See {IERC20-transfer}. Requirements: - `recipient` cannot be the zero address. - the caller must have a balance of at least `amount`."
      },
      "transferFrom(address,address,uint256)": {
        "details": "See {IERC20-transferFrom}. Emits an {Approval} event indicating the updated allowance. This is not required by the EIP. See the note at the beginning of {ERC20}. Requirements: - `sender` and `recipient` cannot be the zero address. - `sender` must have a balance of at least `amount`. - the caller must have allowance for ``sender``'s tokens of at least `amount`."
      },
      "transferOwnership(address)": {
        "details": "Transfers ownership of the contract to a new account (`newOwner`). Can only be called by the current owner."
      }
    },
    "version": 1
  },
  "userdoc": {
    "kind": "user",
    "methods": {},
    "version": 1
  }
}